{
  "contractName": "KYC",
  "abi": [
    {
      "inputs": [
        {
          "internalType": "string",
          "name": "name_",
          "type": "string"
        },
        {
          "internalType": "string",
          "name": "email_",
          "type": "string"
        }
      ],
      "stateMutability": "nonpayable",
      "type": "constructor"
    },
    {
      "anonymous": false,
      "inputs": [
        {
          "indexed": false,
          "internalType": "address",
          "name": "id_",
          "type": "address"
        },
        {
          "indexed": false,
          "internalType": "string",
          "name": "name",
          "type": "string"
        }
      ],
      "name": "BankActivated",
      "type": "event"
    },
    {
      "anonymous": false,
      "inputs": [
        {
          "indexed": false,
          "internalType": "address",
          "name": "id_",
          "type": "address"
        },
        {
          "indexed": false,
          "internalType": "string",
          "name": "name",
          "type": "string"
        },
        {
          "indexed": false,
          "internalType": "string",
          "name": "email",
          "type": "string"
        },
        {
          "indexed": false,
          "internalType": "string",
          "name": "ifscCode",
          "type": "string"
        }
      ],
      "name": "BankAdded",
      "type": "event"
    },
    {
      "anonymous": false,
      "inputs": [
        {
          "indexed": false,
          "internalType": "address",
          "name": "id_",
          "type": "address"
        },
        {
          "indexed": false,
          "internalType": "string",
          "name": "name",
          "type": "string"
        }
      ],
      "name": "BankDeactivated",
      "type": "event"
    },
    {
      "anonymous": false,
      "inputs": [
        {
          "indexed": false,
          "internalType": "address",
          "name": "id_",
          "type": "address"
        },
        {
          "indexed": false,
          "internalType": "string",
          "name": "name",
          "type": "string"
        },
        {
          "indexed": false,
          "internalType": "string",
          "name": "email",
          "type": "string"
        }
      ],
      "name": "BankUpdated",
      "type": "event"
    },
    {
      "anonymous": false,
      "inputs": [
        {
          "indexed": false,
          "internalType": "address",
          "name": "id_",
          "type": "address"
        },
        {
          "indexed": false,
          "internalType": "string",
          "name": "name",
          "type": "string"
        },
        {
          "indexed": false,
          "internalType": "string",
          "name": "email",
          "type": "string"
        }
      ],
      "name": "CustomerAdded",
      "type": "event"
    },
    {
      "anonymous": false,
      "inputs": [
        {
          "indexed": false,
          "internalType": "address",
          "name": "id_",
          "type": "address"
        },
        {
          "indexed": false,
          "internalType": "string",
          "name": "name",
          "type": "string"
        },
        {
          "indexed": false,
          "internalType": "string",
          "name": "email",
          "type": "string"
        }
      ],
      "name": "CustomerDataUpdated",
      "type": "event"
    },
    {
      "anonymous": false,
      "inputs": [
        {
          "indexed": false,
          "internalType": "string",
          "name": "reqId",
          "type": "string"
        },
        {
          "indexed": false,
          "internalType": "address",
          "name": "customerId",
          "type": "address"
        },
        {
          "indexed": false,
          "internalType": "address",
          "name": "bankId",
          "type": "address"
        },
        {
          "indexed": false,
          "internalType": "enum Types.DataHashStatus",
          "name": "status",
          "type": "uint8"
        }
      ],
      "name": "DataHashPermissionChanged",
      "type": "event"
    },
    {
      "anonymous": false,
      "inputs": [
        {
          "indexed": false,
          "internalType": "address",
          "name": "id_",
          "type": "address"
        },
        {
          "indexed": false,
          "internalType": "string",
          "name": "customerName",
          "type": "string"
        },
        {
          "indexed": false,
          "internalType": "string",
          "name": "dataHash",
          "type": "string"
        }
      ],
      "name": "DataHashUpdated",
      "type": "event"
    },
    {
      "anonymous": false,
      "inputs": [
        {
          "indexed": false,
          "internalType": "string",
          "name": "reqId",
          "type": "string"
        },
        {
          "indexed": false,
          "internalType": "string",
          "name": "bankName",
          "type": "string"
        },
        {
          "indexed": false,
          "internalType": "string",
          "name": "customerName",
          "type": "string"
        }
      ],
      "name": "KycReRequested",
      "type": "event"
    },
    {
      "anonymous": false,
      "inputs": [
        {
          "indexed": false,
          "internalType": "string",
          "name": "reqId",
          "type": "string"
        },
        {
          "indexed": false,
          "internalType": "string",
          "name": "bankName",
          "type": "string"
        },
        {
          "indexed": false,
          "internalType": "string",
          "name": "customerName",
          "type": "string"
        }
      ],
      "name": "KycRequestAdded",
      "type": "event"
    },
    {
      "anonymous": false,
      "inputs": [
        {
          "indexed": false,
          "internalType": "string",
          "name": "reqId",
          "type": "string"
        },
        {
          "indexed": false,
          "internalType": "address",
          "name": "customerId",
          "type": "address"
        },
        {
          "indexed": false,
          "internalType": "address",
          "name": "bankId",
          "type": "address"
        },
        {
          "indexed": false,
          "internalType": "enum Types.KycStatus",
          "name": "status",
          "type": "uint8"
        }
      ],
      "name": "KycStatusChanged",
      "type": "event"
    },
    {
      "inputs": [
        {
          "internalType": "address",
          "name": "",
          "type": "address"
        }
      ],
      "name": "verification",
      "outputs": [
        {
          "internalType": "bool",
          "name": "",
          "type": "bool"
        }
      ],
      "stateMutability": "view",
      "type": "function",
      "constant": true
    },
    {
      "inputs": [
        {
          "internalType": "address",
          "name": "_address",
          "type": "address"
        }
      ],
      "name": "addAddress",
      "outputs": [],
      "stateMutability": "nonpayable",
      "type": "function"
    },
    {
      "inputs": [
        {
          "internalType": "address",
          "name": "_address",
          "type": "address"
        }
      ],
      "name": "checkAddress",
      "outputs": [
        {
          "internalType": "bool",
          "name": "",
          "type": "bool"
        }
      ],
      "stateMutability": "view",
      "type": "function",
      "constant": true
    },
    {
      "inputs": [
        {
          "internalType": "uint256",
          "name": "pageNumber",
          "type": "uint256"
        }
      ],
      "name": "getAllBanks",
      "outputs": [
        {
          "internalType": "uint256",
          "name": "totalPages",
          "type": "uint256"
        },
        {
          "components": [
            {
              "internalType": "string",
              "name": "name",
              "type": "string"
            },
            {
              "internalType": "string",
              "name": "email",
              "type": "string"
            },
            {
              "internalType": "address",
              "name": "id_",
              "type": "address"
            },
            {
              "internalType": "string",
              "name": "ifscCode",
              "type": "string"
            },
            {
              "internalType": "uint16",
              "name": "kycCount",
              "type": "uint16"
            },
            {
              "internalType": "enum Types.BankStatus",
              "name": "status",
              "type": "uint8"
            }
          ],
          "internalType": "struct Types.Bank[]",
          "name": "",
          "type": "tuple[]"
        }
      ],
      "stateMutability": "view",
      "type": "function",
      "constant": true
    },
    {
      "inputs": [
        {
          "components": [
            {
              "internalType": "string",
              "name": "name",
              "type": "string"
            },
            {
              "internalType": "string",
              "name": "email",
              "type": "string"
            },
            {
              "internalType": "address",
              "name": "id_",
              "type": "address"
            },
            {
              "internalType": "string",
              "name": "ifscCode",
              "type": "string"
            },
            {
              "internalType": "uint16",
              "name": "kycCount",
              "type": "uint16"
            },
            {
              "internalType": "enum Types.BankStatus",
              "name": "status",
              "type": "uint8"
            }
          ],
          "internalType": "struct Types.Bank",
          "name": "bank_",
          "type": "tuple"
        }
      ],
      "name": "addBank",
      "outputs": [],
      "stateMutability": "nonpayable",
      "type": "function"
    },
    {
      "inputs": [
        {
          "internalType": "address",
          "name": "id_",
          "type": "address"
        },
        {
          "internalType": "string",
          "name": "email_",
          "type": "string"
        },
        {
          "internalType": "string",
          "name": "name_",
          "type": "string"
        }
      ],
      "name": "updateBankDetails",
      "outputs": [],
      "stateMutability": "nonpayable",
      "type": "function"
    },
    {
      "inputs": [
        {
          "internalType": "address",
          "name": "id_",
          "type": "address"
        },
        {
          "internalType": "bool",
          "name": "makeActive_",
          "type": "bool"
        }
      ],
      "name": "activateDeactivateBank",
      "outputs": [],
      "stateMutability": "nonpayable",
      "type": "function"
    },
    {
      "inputs": [
        {
          "internalType": "uint256",
          "name": "pageNumber",
          "type": "uint256"
        }
      ],
      "name": "getCustomersOfBank",
      "outputs": [
        {
          "internalType": "uint256",
          "name": "totalPages",
          "type": "uint256"
        },
        {
          "components": [
            {
              "internalType": "string",
              "name": "id_",
              "type": "string"
            },
            {
              "internalType": "address",
              "name": "userId_",
              "type": "address"
            },
            {
              "internalType": "string",
              "name": "customerName",
              "type": "string"
            },
            {
              "internalType": "address",
              "name": "bankId_",
              "type": "address"
            },
            {
              "internalType": "string",
              "name": "bankName",
              "type": "string"
            },
            {
              "internalType": "string",
              "name": "dataHash",
              "type": "string"
            },
            {
              "internalType": "uint256",
              "name": "updatedOn",
              "type": "uint256"
            },
            {
              "internalType": "enum Types.KycStatus",
              "name": "status",
              "type": "uint8"
            },
            {
              "internalType": "enum Types.DataHashStatus",
              "name": "dataRequest",
              "type": "uint8"
            },
            {
              "internalType": "string",
              "name": "additionalNotes",
              "type": "string"
            }
          ],
          "internalType": "struct Types.KycRequest[]",
          "name": "",
          "type": "tuple[]"
        }
      ],
      "stateMutability": "view",
      "type": "function",
      "constant": true
    },
    {
      "inputs": [
        {
          "components": [
            {
              "internalType": "string",
              "name": "name",
              "type": "string"
            },
            {
              "internalType": "string",
              "name": "email",
              "type": "string"
            },
            {
              "internalType": "uint256",
              "name": "mobileNumber",
              "type": "uint256"
            },
            {
              "internalType": "address",
              "name": "id_",
              "type": "address"
            },
            {
              "internalType": "address",
              "name": "kycVerifiedBy",
              "type": "address"
            },
            {
              "internalType": "string",
              "name": "dataHash",
              "type": "string"
            },
            {
              "internalType": "uint256",
              "name": "dataUpdatedOn",
              "type": "uint256"
            }
          ],
          "internalType": "struct Types.Customer",
          "name": "customer_",
          "type": "tuple"
        },
        {
          "internalType": "uint256",
          "name": "currentTime_",
          "type": "uint256"
        },
        {
          "internalType": "string",
          "name": "notes_",
          "type": "string"
        }
      ],
      "name": "addKycRequest",
      "outputs": [],
      "stateMutability": "nonpayable",
      "type": "function"
    },
    {
      "inputs": [
        {
          "internalType": "address",
          "name": "id_",
          "type": "address"
        },
        {
          "internalType": "string",
          "name": "notes_",
          "type": "string"
        }
      ],
      "name": "reRequestForKycRequest",
      "outputs": [],
      "stateMutability": "nonpayable",
      "type": "function"
    },
    {
      "inputs": [
        {
          "internalType": "address",
          "name": "userId_",
          "type": "address"
        },
        {
          "internalType": "bool",
          "name": "verified_",
          "type": "bool"
        },
        {
          "internalType": "string",
          "name": "note_",
          "type": "string"
        }
      ],
      "name": "updateKycVerification",
      "outputs": [],
      "stateMutability": "nonpayable",
      "type": "function"
    },
    {
      "inputs": [
        {
          "internalType": "address",
          "name": "id_",
          "type": "address"
        }
      ],
      "name": "searchCustomers",
      "outputs": [
        {
          "internalType": "bool",
          "name": "",
          "type": "bool"
        },
        {
          "components": [
            {
              "internalType": "string",
              "name": "name",
              "type": "string"
            },
            {
              "internalType": "string",
              "name": "email",
              "type": "string"
            },
            {
              "internalType": "uint256",
              "name": "mobileNumber",
              "type": "uint256"
            },
            {
              "internalType": "address",
              "name": "id_",
              "type": "address"
            },
            {
              "internalType": "address",
              "name": "kycVerifiedBy",
              "type": "address"
            },
            {
              "internalType": "string",
              "name": "dataHash",
              "type": "string"
            },
            {
              "internalType": "uint256",
              "name": "dataUpdatedOn",
              "type": "uint256"
            }
          ],
          "internalType": "struct Types.Customer",
          "name": "",
          "type": "tuple"
        },
        {
          "components": [
            {
              "internalType": "string",
              "name": "id_",
              "type": "string"
            },
            {
              "internalType": "address",
              "name": "userId_",
              "type": "address"
            },
            {
              "internalType": "string",
              "name": "customerName",
              "type": "string"
            },
            {
              "internalType": "address",
              "name": "bankId_",
              "type": "address"
            },
            {
              "internalType": "string",
              "name": "bankName",
              "type": "string"
            },
            {
              "internalType": "string",
              "name": "dataHash",
              "type": "string"
            },
            {
              "internalType": "uint256",
              "name": "updatedOn",
              "type": "uint256"
            },
            {
              "internalType": "enum Types.KycStatus",
              "name": "status",
              "type": "uint8"
            },
            {
              "internalType": "enum Types.DataHashStatus",
              "name": "dataRequest",
              "type": "uint8"
            },
            {
              "internalType": "string",
              "name": "additionalNotes",
              "type": "string"
            }
          ],
          "internalType": "struct Types.KycRequest",
          "name": "",
          "type": "tuple"
        }
      ],
      "stateMutability": "view",
      "type": "function",
      "constant": true
    },
    {
      "inputs": [
        {
          "internalType": "uint256",
          "name": "pageNumber",
          "type": "uint256"
        }
      ],
      "name": "getBankRequests",
      "outputs": [
        {
          "internalType": "uint256",
          "name": "totalPages",
          "type": "uint256"
        },
        {
          "components": [
            {
              "internalType": "string",
              "name": "id_",
              "type": "string"
            },
            {
              "internalType": "address",
              "name": "userId_",
              "type": "address"
            },
            {
              "internalType": "string",
              "name": "customerName",
              "type": "string"
            },
            {
              "internalType": "address",
              "name": "bankId_",
              "type": "address"
            },
            {
              "internalType": "string",
              "name": "bankName",
              "type": "string"
            },
            {
              "internalType": "string",
              "name": "dataHash",
              "type": "string"
            },
            {
              "internalType": "uint256",
              "name": "updatedOn",
              "type": "uint256"
            },
            {
              "internalType": "enum Types.KycStatus",
              "name": "status",
              "type": "uint8"
            },
            {
              "internalType": "enum Types.DataHashStatus",
              "name": "dataRequest",
              "type": "uint8"
            },
            {
              "internalType": "string",
              "name": "additionalNotes",
              "type": "string"
            }
          ],
          "internalType": "struct Types.KycRequest[]",
          "name": "",
          "type": "tuple[]"
        }
      ],
      "stateMutability": "view",
      "type": "function",
      "constant": true
    },
    {
      "inputs": [
        {
          "internalType": "address",
          "name": "bankId_",
          "type": "address"
        },
        {
          "internalType": "bool",
          "name": "approve_",
          "type": "bool"
        },
        {
          "internalType": "string",
          "name": "note_",
          "type": "string"
        }
      ],
      "name": "actionOnKycRequest",
      "outputs": [],
      "stateMutability": "nonpayable",
      "type": "function"
    },
    {
      "inputs": [
        {
          "internalType": "string",
          "name": "name_",
          "type": "string"
        },
        {
          "internalType": "string",
          "name": "email_",
          "type": "string"
        },
        {
          "internalType": "uint256",
          "name": "mobile_",
          "type": "uint256"
        }
      ],
      "name": "updateProfile",
      "outputs": [],
      "stateMutability": "nonpayable",
      "type": "function"
    },
    {
      "inputs": [
        {
          "internalType": "string",
          "name": "hash_",
          "type": "string"
        },
        {
          "internalType": "uint256",
          "name": "currentTime_",
          "type": "uint256"
        }
      ],
      "name": "updateDatahash",
      "outputs": [],
      "stateMutability": "nonpayable",
      "type": "function"
    },
    {
      "inputs": [
        {
          "internalType": "string",
          "name": "hash_",
          "type": "string"
        },
        {
          "internalType": "uint256",
          "name": "currentTime_",
          "type": "uint256"
        }
      ],
      "name": "addDataHash",
      "outputs": [],
      "stateMutability": "nonpayable",
      "type": "function"
    },
    {
      "inputs": [
        {
          "internalType": "address",
          "name": "bankId_",
          "type": "address"
        },
        {
          "internalType": "string",
          "name": "notes_",
          "type": "string"
        }
      ],
      "name": "removerDatahashPermission",
      "outputs": [],
      "stateMutability": "nonpayable",
      "type": "function"
    },
    {
      "inputs": [
        {
          "internalType": "address",
          "name": "bankId_",
          "type": "address"
        }
      ],
      "name": "searchBanks",
      "outputs": [
        {
          "internalType": "bool",
          "name": "",
          "type": "bool"
        },
        {
          "components": [
            {
              "internalType": "string",
              "name": "name",
              "type": "string"
            },
            {
              "internalType": "string",
              "name": "email",
              "type": "string"
            },
            {
              "internalType": "address",
              "name": "id_",
              "type": "address"
            },
            {
              "internalType": "string",
              "name": "ifscCode",
              "type": "string"
            },
            {
              "internalType": "uint16",
              "name": "kycCount",
              "type": "uint16"
            },
            {
              "internalType": "enum Types.BankStatus",
              "name": "status",
              "type": "uint8"
            }
          ],
          "internalType": "struct Types.Bank",
          "name": "",
          "type": "tuple"
        },
        {
          "components": [
            {
              "internalType": "string",
              "name": "id_",
              "type": "string"
            },
            {
              "internalType": "address",
              "name": "userId_",
              "type": "address"
            },
            {
              "internalType": "string",
              "name": "customerName",
              "type": "string"
            },
            {
              "internalType": "address",
              "name": "bankId_",
              "type": "address"
            },
            {
              "internalType": "string",
              "name": "bankName",
              "type": "string"
            },
            {
              "internalType": "string",
              "name": "dataHash",
              "type": "string"
            },
            {
              "internalType": "uint256",
              "name": "updatedOn",
              "type": "uint256"
            },
            {
              "internalType": "enum Types.KycStatus",
              "name": "status",
              "type": "uint8"
            },
            {
              "internalType": "enum Types.DataHashStatus",
              "name": "dataRequest",
              "type": "uint8"
            },
            {
              "internalType": "string",
              "name": "additionalNotes",
              "type": "string"
            }
          ],
          "internalType": "struct Types.KycRequest",
          "name": "",
          "type": "tuple"
        }
      ],
      "stateMutability": "view",
      "type": "function",
      "constant": true
    },
    {
      "inputs": [],
      "name": "whoAmI",
      "outputs": [
        {
          "components": [
            {
              "internalType": "string",
              "name": "name",
              "type": "string"
            },
            {
              "internalType": "string",
              "name": "email",
              "type": "string"
            },
            {
              "internalType": "address",
              "name": "id_",
              "type": "address"
            },
            {
              "internalType": "enum Types.Role",
              "name": "role",
              "type": "uint8"
            },
            {
              "internalType": "enum Types.BankStatus",
              "name": "status",
              "type": "uint8"
            }
          ],
          "internalType": "struct Types.User",
          "name": "",
          "type": "tuple"
        }
      ],
      "stateMutability": "view",
      "type": "function",
      "constant": true
    },
    {
      "inputs": [
        {
          "internalType": "address",
          "name": "id_",
          "type": "address"
        }
      ],
      "name": "getCustomerDetails",
      "outputs": [
        {
          "components": [
            {
              "internalType": "string",
              "name": "name",
              "type": "string"
            },
            {
              "internalType": "string",
              "name": "email",
              "type": "string"
            },
            {
              "internalType": "uint256",
              "name": "mobileNumber",
              "type": "uint256"
            },
            {
              "internalType": "address",
              "name": "id_",
              "type": "address"
            },
            {
              "internalType": "address",
              "name": "kycVerifiedBy",
              "type": "address"
            },
            {
              "internalType": "string",
              "name": "dataHash",
              "type": "string"
            },
            {
              "internalType": "uint256",
              "name": "dataUpdatedOn",
              "type": "uint256"
            }
          ],
          "internalType": "struct Types.Customer",
          "name": "",
          "type": "tuple"
        }
      ],
      "stateMutability": "view",
      "type": "function",
      "constant": true
    },
    {
      "inputs": [
        {
          "internalType": "address",
          "name": "id_",
          "type": "address"
        }
      ],
      "name": "getBankDetails",
      "outputs": [
        {
          "components": [
            {
              "internalType": "string",
              "name": "name",
              "type": "string"
            },
            {
              "internalType": "string",
              "name": "email",
              "type": "string"
            },
            {
              "internalType": "address",
              "name": "id_",
              "type": "address"
            },
            {
              "internalType": "string",
              "name": "ifscCode",
              "type": "string"
            },
            {
              "internalType": "uint16",
              "name": "kycCount",
              "type": "uint16"
            },
            {
              "internalType": "enum Types.BankStatus",
              "name": "status",
              "type": "uint8"
            }
          ],
          "internalType": "struct Types.Bank",
          "name": "",
          "type": "tuple"
        }
      ],
      "stateMutability": "view",
      "type": "function",
      "constant": true
    }
  ],
  "bytecode": "0x60806040523480156200001157600080fd5b5060405162005f3b38038062005f3b83398101604081905262000034916200030c565b600480546001600160a01b031916339081179091556040805160a081018252848152602080820185905281830184905260006060830181905260808301819052938452600681529190922082518051849362000095928492910190620001b3565b506020828101518051620000b09260018501920190620001b3565b506040820151600280830180546001600160a01b039093166001600160a01b031984168117825560608601519391926001600160a81b03199092161790600160a01b9084908111156200011357634e487b7160e01b600052602160045260246000fd5b0217905550608082015160028201805460ff60a81b1916600160a81b8360018111156200015057634e487b7160e01b600052602160045260246000fd5b021790555050600454600580546001810182556000919091527f036b6384b5eca791c62761152d0c79bb0604c104a5fb6f4eb0703f3154bb3db00180546001600160a01b0319166001600160a01b0390921691909117905550620003c692505050565b828054620001c19062000373565b90600052602060002090601f016020900481019282620001e5576000855562000230565b82601f106200020057805160ff191683800117855562000230565b8280016001018555821562000230579182015b828111156200023057825182559160200191906001019062000213565b506200023e92915062000242565b5090565b5b808211156200023e576000815560010162000243565b600082601f8301126200026a578081fd5b81516001600160401b0380821115620002875762000287620003b0565b604051601f8301601f19908116603f01168101908282118183101715620002b257620002b2620003b0565b81604052838152602092508683858801011115620002ce578485fd5b8491505b83821015620002f15785820183015181830184015290820190620002d2565b838211156200030257848385830101525b9695505050505050565b600080604083850312156200031f578182fd5b82516001600160401b038082111562000336578384fd5b620003448683870162000259565b935060208501519150808211156200035a578283fd5b50620003698582860162000259565b9150509250929050565b600181811c908216806200038857607f821691505b60208210811415620003aa57634e487b7160e01b600052602260045260246000fd5b50919050565b634e487b7160e01b600052604160045260246000fd5b615b6580620003d66000396000f3fe608060405234801561001057600080fd5b50600436106101425760003560e01c80635f4d6ddf116100b8578063b2921bfd1161007c578063b2921bfd14610320578063b374a7dd14610333578063baa2b9fd14610346578063da91254c14610367578063dbc671d01461037c578063dc57d07e1461038f57600080fd5b80635f4d6ddf146102a257806377fa069c146102c45780637c1d6197146102d75780638915fb0c146102ea57806392b4e132146102fd57600080fd5b80632ce23acb1161010a5780632ce23acb146101f457806334b5241114610216578063369ba32b1461022957806338eada1c1461023c5780633f2c0e961461026e5780634d82d8e81461028157600080fd5b80630c60f83d146101475780630ddcfe8e1461017057806315101e02146101ac5780631bdd5a0f146101cc5780632283db9c146101e1575b600080fd5b61015a610155366004614df9565b6103a2565b6040516101679190615830565b60405180910390f35b61019c61017e366004614df9565b6001600160a01b03166000908152600a602052604090205460ff1690565b6040519015158152602001610167565b6101bf6101ba366004614df9565b610502565b604051610167919061581d565b6101df6101da366004614ea8565b6105ef565b005b6101df6101ef366004615008565b61086e565b610207610202366004614df9565b610a12565b60405161016793929190615626565b6101df610224366004614e4c565b611089565b6101df610237366004614ef4565b611347565b6101df61024a366004614df9565b6001600160a01b03166000908152600a60205260409020805460ff19166001179055565b6101df61027c366004614ea8565b6113db565b61029461028f3660046151e7565b611595565b6040516101679291906158b8565b6102b56102b0366004614df9565b6115d7565b60405161016793929190615653565b6101df6102d23660046150ea565b611bf4565b6101df6102e5366004614f5b565b612192565b6101df6102f8366004614fc5565b612285565b61019c61030b366004614df9565b600a6020526000908152604090205460ff1681565b6101df61032e366004614fc5565b612509565b6101df610341366004614e1a565b61280f565b6103596103543660046151e7565b612895565b604051610167929190615921565b61036f612987565b6040516101679190615843565b61035961038a3660046151e7565b612c01565b6101df61039d366004614e4c565b612cb1565b6103aa614b36565b816001600160a01b0381166103da5760405162461bcd60e51b81526004016103d190615724565b60405180910390fd5b6001600160a01b03818116600090815260016020526040902060030154166104145760405162461bcd60e51b81526004016103d190615773565b6001600160a01b03811660009081526001602081905260409091200180546104d3919061044090615a3e565b80601f016020809104026020016040519081016040528092919081815260200182805461046c90615a3e565b80156104b95780601f1061048e576101008083540402835291602001916104b9565b820191906000526020600020905b81548152906001019060200180831161049c57829003601f168201915b505050505060405180602001604052806000815250612ed9565b156104f05760405162461bcd60e51b81526004016103d190615749565b6104f983612f33565b91505b50919050565b61050a614b85565b6001600160a01b038083166000908152600360205260409020600201548391166105465760405162461bcd60e51b81526004016103d1906157f5565b6001600160a01b03808216600081815260036020526040902060020154909116146105835760405162461bcd60e51b81526004016103d1906157f5565b60006001600160a01b03821660009081526003602052604090206004015462010000900460ff1660018111156105c957634e487b7160e01b600052602160045260246000fd5b146105e65760405162461bcd60e51b81526004016103d1906157c9565b6104f983613152565b336000818152600360205260409020600201546001600160a01b03166106275760405162461bcd60e51b81526004016103d1906157f5565b6001600160a01b03808216600081815260036020526040902060020154909116146106645760405162461bcd60e51b81526004016103d1906157f5565b60006001600160a01b03821660009081526003602052604090206004015462010000900460ff1660018111156106aa57634e487b7160e01b600052602160045260246000fd5b146106c75760405162461bcd60e51b81526004016103d1906157c9565b60006106d333856133f3565b90506106de81613431565b61071e5760405162461bcd60e51b815260206004820152601160248201527012d650c81c995c481b9bdd08199bdd5b99607a1b60448201526064016103d1565b6107278461353d565b6107645760405162461bcd60e51b815260206004820152600e60248201526d155cd95c881b9bdd08199bdd5b9960921b60448201526064016103d1565b600060078260405161077691906154c0565b908152604051908190036020019020600701805461ff0019166101008360028111156107b257634e487b7160e01b600052602160045260246000fd5b0217905550826007826040516107c891906154c0565b908152602001604051809103902060080190805190602001906107ec929190614bb7565b507f524a348eaa0159a5bd9d05667fe8d01e3fef50369ae5f27c2ade107c84bfeaf78160078360405161081f91906154c0565b908152602001604051809103902060040160078460405161084091906154c0565b9081526020016040518091039020600201604051610860939291906156eb565b60405180910390a150505050565b6004546001600160a01b031633146108985760405162461bcd60e51b81526004016103d19061579a565b6108a1816135e6565b6040805160a081018252825181526020808401518183015283830180516001600160a01b0390811684860152600160608501526000608085018190529151168152600682529290922081518051929391926108ff9284920190614bb7565b5060208281015180516109189260018501920190614bb7565b506040820151600280830180546001600160a01b039093166001600160a01b031984168117825560608601519391926001600160a81b03199092161790600160a01b90849081111561097a57634e487b7160e01b600052602160045260246000fd5b0217905550608082015160028201805460ff60a81b1916600160a81b8360018111156109b657634e487b7160e01b600052602160045260246000fd5b0217905550505060400151600580546001810182556000919091527f036b6384b5eca791c62761152d0c79bb0604c104a5fb6f4eb0703f3154bb3db00180546001600160a01b0319166001600160a01b03909216919091179055565b6000610a1c614b85565b610a24614c3b565b3380610a425760405162461bcd60e51b81526004016103d190615724565b6001600160a01b0381811660009081526001602052604090206003015416610a7c5760405162461bcd60e51b81526004016103d190615773565b6001600160a01b0381166000908152600160208190526040909120018054610aa8919061044090615a3e565b15610ac55760405162461bcd60e51b81526004016103d190615749565b6001600160a01b03808616600090815260036020526040902060020154869116610b015760405162461bcd60e51b81526004016103d1906157f5565b6001600160a01b0380821660008181526003602052604090206002015490911614610b3e5760405162461bcd60e51b81526004016103d1906157f5565b60006001600160a01b03821660009081526003602052604090206004015462010000900460ff166001811115610b8457634e487b7160e01b600052602160045260246000fd5b14610ba15760405162461bcd60e51b81526004016103d1906157c9565b6000610bab614b85565b610bb3614c3b565b33600090815260096020908152604080832080548251818502810185019093528083529192909190830182828015610c1457602002820191906000526020600020905b81546001600160a01b03168152600190910190602001808311610bf6575b5050505050905060005b8151811015611079578a6001600160a01b0316828281518110610c5157634e487b7160e01b600052603260045260246000fd5b60200260200101516001600160a01b031614156110675760019450610c758b613152565b93506007610c838c336133f3565b604051610c9091906154c0565b908152602001604051809103902060405180610140016040529081600082018054610cba90615a3e565b80601f0160208091040260200160405190810160405280929190818152602001828054610ce690615a3e565b8015610d335780601f10610d0857610100808354040283529160200191610d33565b820191906000526020600020905b815481529060010190602001808311610d1657829003601f168201915b505050918352505060018201546001600160a01b03166020820152600282018054604090920191610d6390615a3e565b80601f0160208091040260200160405190810160405280929190818152602001828054610d8f90615a3e565b8015610ddc5780601f10610db157610100808354040283529160200191610ddc565b820191906000526020600020905b815481529060010190602001808311610dbf57829003601f168201915b505050918352505060038201546001600160a01b03166020820152600482018054604090920191610e0c90615a3e565b80601f0160208091040260200160405190810160405280929190818152602001828054610e3890615a3e565b8015610e855780601f10610e5a57610100808354040283529160200191610e85565b820191906000526020600020905b815481529060010190602001808311610e6857829003601f168201915b50505050508152602001600582018054610e9e90615a3e565b80601f0160208091040260200160405190810160405280929190818152602001828054610eca90615a3e565b8015610f175780601f10610eec57610100808354040283529160200191610f17565b820191906000526020600020905b815481529060010190602001808311610efa57829003601f168201915b505050918352505060068201546020820152600782015460409091019060ff166002811115610f5657634e487b7160e01b600052602160045260246000fd5b6002811115610f7557634e487b7160e01b600052602160045260246000fd5b81526020016007820160019054906101000a900460ff166002811115610fab57634e487b7160e01b600052602160045260246000fd5b6002811115610fca57634e487b7160e01b600052602160045260246000fd5b8152602001600882018054610fde90615a3e565b80601f016020809104026020016040519081016040528092919081815260200182805461100a90615a3e565b80156110575780601f1061102c57610100808354040283529160200191611057565b820191906000526020600020905b81548152906001019060200180831161103a57829003601f168201915b5050505050815250509250611079565b8061107181615a95565b915050610c1e565b5092999198509650945050505050565b33806110a75760405162461bcd60e51b81526004016103d190615724565b6001600160a01b03818116600090815260016020526040902060030154166110e15760405162461bcd60e51b81526004016103d190615773565b6001600160a01b038116600090815260016020819052604090912001805461110d919061044090615a3e565b1561112a5760405162461bcd60e51b81526004016103d190615749565b6001600160a01b038085166000908152600360205260409020600201548591166111665760405162461bcd60e51b81526004016103d1906157f5565b6001600160a01b03808216600081815260036020526040902060020154909116146111a35760405162461bcd60e51b81526004016103d1906157f5565b60006001600160a01b03821660009081526003602052604090206004015462010000900460ff1660018111156111e957634e487b7160e01b600052602160045260246000fd5b146112065760405162461bcd60e51b81526004016103d1906157c9565b600061121286336133f3565b905061121d81613431565b6112655760405162461bcd60e51b81526020600482015260196024820152785573657220646f65736e27742068617665204b59432072657160381b60448201526064016103d1565b6000851561127557506001611279565b5060025b8060078360405161128a91906154c0565b908152604051908190036020019020600701805461ff0019166101008360028111156112c657634e487b7160e01b600052602160045260246000fd5b0217905550846007836040516112dc91906154c0565b90815260200160405180910390206008019080519060200190611300929190614bb7565b507f9a3f3f9de5ac964f84f08c6124f7b844ffd73de3fd4b472eb59f6b68e5729a8182338984604051611336949392919061566e565b60405180910390a150505050505050565b6004546001600160a01b031633146113715760405162461bcd60e51b81526004016103d19061579a565b61137c8383836137c4565b6001600160a01b038316600090815260066020908152604090912082516113a592840190614bb7565b506001600160a01b038316600090815260066020908152604090912083516113d592600190920191850190614bb7565b50505050565b33806113f95760405162461bcd60e51b81526004016103d190615724565b6001600160a01b03818116600090815260016020526040902060030154166114335760405162461bcd60e51b81526004016103d190615773565b6001600160a01b038116600090815260016020819052604090912001805461145f919061044090615a3e565b1561147c5760405162461bcd60e51b81526004016103d190615749565b600061148884336133f3565b905061149381613431565b6114d65760405162461bcd60e51b815260206004820152601460248201527314195c9b5a5cdcda5bdb881b9bdd08199bdd5b9960621b60448201526064016103d1565b60026007826040516114e891906154c0565b908152604051908190036020019020600701805461ff00191661010083600281111561152457634e487b7160e01b600052602160045260246000fd5b02179055508260078260405161153a91906154c0565b9081526020016040518091039020600801908051906020019061155e929190614bb7565b507f9a3f3f9de5ac964f84f08c6124f7b844ffd73de3fd4b472eb59f6b68e5729a818133866002604051610860949392919061566e565b6004546000906060906001600160a01b031633146115c55760405162461bcd60e51b81526004016103d19061579a565b6115ce83613898565b91509150915091565b60006115e1614b36565b6115e9614c3b565b836001600160a01b0381166116105760405162461bcd60e51b81526004016103d190615724565b6001600160a01b038181166000908152600160205260409020600301541661164a5760405162461bcd60e51b81526004016103d190615773565b6001600160a01b0381166000908152600160208190526040909120018054611676919061044090615a3e565b156116935760405162461bcd60e51b81526004016103d190615749565b336000818152600360205260409020600201546001600160a01b03166116cb5760405162461bcd60e51b81526004016103d1906157f5565b6001600160a01b03808216600081815260036020526040902060020154909116146117085760405162461bcd60e51b81526004016103d1906157f5565b60006001600160a01b03821660009081526003602052604090206004015462010000900460ff16600181111561174e57634e487b7160e01b600052602160045260246000fd5b1461176b5760405162461bcd60e51b81526004016103d1906157c9565b6000611775614b36565b61177d614c3b565b3360009081526008602090815260409182902080548351818402810184019094528084526117ee938d93909291908301828280156117e457602002820191906000526020600020905b81546001600160a01b031681526001909101906020018083116117c6575b5050505050613c8d565b90935091508215611be5576007611805338b6133f3565b60405161181291906154c0565b90815260200160405180910390206040518061014001604052908160008201805461183c90615a3e565b80601f016020809104026020016040519081016040528092919081815260200182805461186890615a3e565b80156118b55780601f1061188a576101008083540402835291602001916118b5565b820191906000526020600020905b81548152906001019060200180831161189857829003601f168201915b505050918352505060018201546001600160a01b031660208201526002820180546040909201916118e590615a3e565b80601f016020809104026020016040519081016040528092919081815260200182805461191190615a3e565b801561195e5780601f106119335761010080835404028352916020019161195e565b820191906000526020600020905b81548152906001019060200180831161194157829003601f168201915b505050918352505060038201546001600160a01b0316602082015260048201805460409092019161198e90615a3e565b80601f01602080910402602001604051908101604052809291908181526020018280546119ba90615a3e565b8015611a075780601f106119dc57610100808354040283529160200191611a07565b820191906000526020600020905b8154815290600101906020018083116119ea57829003601f168201915b50505050508152602001600582018054611a2090615a3e565b80601f0160208091040260200160405190810160405280929190818152602001828054611a4c90615a3e565b8015611a995780601f10611a6e57610100808354040283529160200191611a99565b820191906000526020600020905b815481529060010190602001808311611a7c57829003601f168201915b505050918352505060068201546020820152600782015460409091019060ff166002811115611ad857634e487b7160e01b600052602160045260246000fd5b6002811115611af757634e487b7160e01b600052602160045260246000fd5b81526020016007820160019054906101000a900460ff166002811115611b2d57634e487b7160e01b600052602160045260246000fd5b6002811115611b4c57634e487b7160e01b600052602160045260246000fd5b8152602001600882018054611b6090615a3e565b80601f0160208091040260200160405190810160405280929190818152602001828054611b8c90615a3e565b8015611bd95780601f10611bae57610100808354040283529160200191611bd9565b820191906000526020600020905b815481529060010190602001808311611bbc57829003601f168201915b50505050508152505090505b91989097509095509350505050565b336000818152600360205260409020600201546001600160a01b0316611c2c5760405162461bcd60e51b81526004016103d1906157f5565b6001600160a01b0380821660008181526003602052604090206002015490911614611c695760405162461bcd60e51b81526004016103d1906157f5565b60006001600160a01b03821660009081526003602052604090206004015462010000900460ff166001811115611caf57634e487b7160e01b600052602160045260246000fd5b14611ccc5760405162461bcd60e51b81526004016103d1906157c9565b6000611cdc3386606001516133f3565b9050611ce781613431565b15611d285760405162461bcd60e51b81526020600482015260116024820152702ab9b2b9103430b21035bcb1903932b89760791b60448201526064016103d1565b60405180610140016040528082815260200186606001516001600160a01b0316815260200186600001518152602001336001600160a01b03168152602001611d6f33613152565b51815260a0870151602082015260408101869052606001600081526020016000815260200184815250600782604051611da891906154c0565b90815260200160405180910390206000820151816000019080519060200190611dd2929190614bb7565b506020828101516001830180546001600160a01b0319166001600160a01b0390921691909117905560408301518051611e119260028501920190614bb7565b5060608201516003820180546001600160a01b0319166001600160a01b0390921691909117905560808201518051611e53916004840191602090910190614bb7565b5060a08201518051611e6f916005840191602090910190614bb7565b5060c0820151600682015560e082015160078201805460ff19166001836002811115611eab57634e487b7160e01b600052602160045260246000fd5b0217905550610100828101516007830180549192909161ff00191690836002811115611ee757634e487b7160e01b600052602160045260246000fd5b02179055506101208201518051611f08916008840191602090910190614bb7565b505033600081815260086020908152604080832060608b0180518254600181810185559387528587200180546001600160a01b039283166001600160a01b031991821617909155915116855260098452828520805492830181558552929093209092018054909116909217909155517f1c9ca7942139211bfb75ec030ee95c38e96f4eb7d755b28d3eede55f8d5eb86d91508290600790611faa9083906154c0565b9081526040519081900360200181208851611fcb93926004909201916156b2565b60405180910390a1611fe0856060015161353d565b61218b57611fed85613f35565b6040518060a00160405280866000015181526020018660200151815260200186606001516001600160a01b0316815260200160028081111561203f57634e487b7160e01b600052602160045260246000fd5b81526000602091820181905260608801516001600160a01b03168152600682526040902082518051919261207892849290910190614bb7565b5060208281015180516120919260018501920190614bb7565b506040820151600280830180546001600160a01b039093166001600160a01b031984168117825560608601519391926001600160a81b03199092161790600160a01b9084908111156120f357634e487b7160e01b600052602160045260246000fd5b0217905550608082015160028201805460ff60a81b1916600160a81b83600181111561212f57634e487b7160e01b600052602160045260246000fd5b021790555050506060850151600580546001810182556000919091527f036b6384b5eca791c62761152d0c79bb0604c104a5fb6f4eb0703f3154bb3db00180546001600160a01b0319166001600160a01b039092169190911790555b5050505050565b33806121b05760405162461bcd60e51b81526004016103d190615724565b6001600160a01b03818116600090815260016020526040902060030154166121ea5760405162461bcd60e51b81526004016103d190615773565b6001600160a01b0381166000908152600160208190526040909120018054612216919061044090615a3e565b156122335760405162461bcd60e51b81526004016103d190615749565b61223e84848461407b565b336000908152600660209081526040909120855161225e92870190614bb7565b50336000908152600660209081526040909120845161218b92600190920191860190614bb7565b33806122a35760405162461bcd60e51b81526004016103d190615724565b6001600160a01b03818116600090815260016020526040902060030154166122dd5760405162461bcd60e51b81526004016103d190615773565b6001600160a01b0381166000908152600160208190526040909120018054612309919061044090615a3e565b156123265760405162461bcd60e51b81526004016103d190615749565b612330838361410a565b3360009081526009602090815260408083208054825181850281018501909352808352919290919083018282801561239157602002820191906000526020600020905b81546001600160a01b03168152600190910190602001808311612373575b5050505050905060005b815181101561218b5760006123d78383815181106123c957634e487b7160e01b600052603260045260246000fd5b6020026020010151336133f3565b90506123e281613431565b156124f657856007826040516123f891906154c0565b9081526020016040518091039020600501908051906020019061241c929190614bb7565b508460078260405161242e91906154c0565b908152602001604051809103902060060181905550600060078260405161245591906154c0565b908152604051908190036020019020600701805460ff1916600183600281111561248f57634e487b7160e01b600052602160045260246000fd5b0217905550604051806040016040528060138152602001725570646174656420616c6c206d7920646f637360681b8152506007826040516124d091906154c0565b908152602001604051809103902060080190805190602001906124f4929190614bb7565b505b508061250181615a95565b91505061239b565b33806125275760405162461bcd60e51b81526004016103d190615724565b6001600160a01b03818116600090815260016020526040902060030154166125615760405162461bcd60e51b81526004016103d190615773565b6001600160a01b038116600090815260016020819052604090912001805461258d919061044090615a3e565b156125aa5760405162461bcd60e51b81526004016103d190615749565b6125b4838361410a565b3360009081526009602090815260408083208054825181850281018501909352808352919290919083018282801561261557602002820191906000526020600020905b81546001600160a01b031681526001909101906020018083116125f7575b5050505050905060005b815181101561218b57600061264d8383815181106123c957634e487b7160e01b600052603260045260246000fd5b905061265881613431565b156127fc57604080516000815260208101918290525181209060079061267f9084906154c0565b90815260200160405180910390206005016040516020016126a091906154dc565b6040516020818303038152906040528051906020012014156126ed5760405162461bcd60e51b815260206004820152600660248201526511985a5b195960d21b60448201526064016103d1565b856007826040516126fe91906154c0565b90815260200160405180910390206005019080519060200190612722929190614bb7565b508460078260405161273491906154c0565b908152602001604051809103902060060181905550600060078260405161275b91906154c0565b908152604051908190036020019020600701805460ff1916600183600281111561279557634e487b7160e01b600052602160045260246000fd5b0217905550604051806040016040528060138152602001725570646174656420616c6c206d7920646f637360681b8152506007826040516127d691906154c0565b908152602001604051809103902060080190805190602001906127fa929190614bb7565b505b508061280781615a95565b91505061261f565b6004546001600160a01b031633146128395760405162461bcd60e51b81526004016103d19061579a565b6128438282614186565b6001600160a01b0383166000908152600660205260409020600201805460ff60a81b1916600160a81b83600181111561288c57634e487b7160e01b600052602160045260246000fd5b02179055505050565b3360008181526003602052604081206002015490916060916001600160a01b03166128d25760405162461bcd60e51b81526004016103d1906157f5565b6001600160a01b038082166000818152600360205260409020600201549091161461290f5760405162461bcd60e51b81526004016103d1906157f5565b60006001600160a01b03821660009081526003602052604090206004015462010000900460ff16600181111561295557634e487b7160e01b600052602160045260246000fd5b146129725760405162461bcd60e51b81526004016103d1906157c9565b61297d84600161436d565b9250925050915091565b61298f614cbf565b336129ce5760405162461bcd60e51b815260206004820152600f60248201526e53656e64657220496420456d70747960881b60448201526064016103d1565b336000908152600660205260409020600201546001600160a01b0316612a065760405162461bcd60e51b81526004016103d190615773565b3360009081526006602052604090819020815160a08101909252805482908290612a2f90615a3e565b80601f0160208091040260200160405190810160405280929190818152602001828054612a5b90615a3e565b8015612aa85780601f10612a7d57610100808354040283529160200191612aa8565b820191906000526020600020905b815481529060010190602001808311612a8b57829003601f168201915b50505050508152602001600182018054612ac190615a3e565b80601f0160208091040260200160405190810160405280929190818152602001828054612aed90615a3e565b8015612b3a5780601f10612b0f57610100808354040283529160200191612b3a565b820191906000526020600020905b815481529060010190602001808311612b1d57829003601f168201915b50505091835250506002828101546001600160a01b0381166020840152604090920191600160a01b900460ff1690811115612b8557634e487b7160e01b600052602160045260246000fd5b6002811115612ba457634e487b7160e01b600052602160045260246000fd5b81526020016002820160159054906101000a900460ff166001811115612bda57634e487b7160e01b600052602160045260246000fd5b6001811115612bf957634e487b7160e01b600052602160045260246000fd5b905250919050565b600060603380612c235760405162461bcd60e51b81526004016103d190615724565b6001600160a01b0381811660009081526001602052604090206003015416612c5d5760405162461bcd60e51b81526004016103d190615773565b6001600160a01b0381166000908152600160208190526040909120018054612c89919061044090615a3e565b15612ca65760405162461bcd60e51b81526004016103d190615749565b61297d84600061436d565b336000818152600360205260409020600201546001600160a01b0316612ce95760405162461bcd60e51b81526004016103d1906157f5565b6001600160a01b0380821660008181526003602052604090206002015490911614612d265760405162461bcd60e51b81526004016103d1906157f5565b60006001600160a01b03821660009081526003602052604090206004015462010000900460ff166001811115612d6c57634e487b7160e01b600052602160045260246000fd5b14612d895760405162461bcd60e51b81526004016103d1906157c9565b6000612d9533866133f3565b9050612da081613431565b612de85760405162461bcd60e51b81526020600482015260196024820152785573657220646f65736e27742068617665204b59432072657160381b60448201526064016103d1565b60008415612e0a57506001612dfc336149b1565b612e0586614a20565b612e0e565b5060025b80600783604051612e1f91906154c0565b908152604051908190036020019020600701805460ff19166001836002811115612e5957634e487b7160e01b600052602160045260246000fd5b021790555083600783604051612e6f91906154c0565b90815260200160405180910390206008019080519060200190612e93929190614bb7565b507f900b83a690e29ff7d6e76e350983afea30403d6c47fe8ce52045fb20074c79a082873384604051612ec9949392919061566e565b60405180910390a1505050505050565b600081604051602001612eec91906154c0565b6040516020818303038152906040528051906020012083604051602001612f1391906154c0565b604051602081830303815290604052805190602001201490505b92915050565b612f3b614b36565b6001600160a01b03821660009081526001602052604090819020815160e08101909252805482908290612f6d90615a3e565b80601f0160208091040260200160405190810160405280929190818152602001828054612f9990615a3e565b8015612fe65780601f10612fbb57610100808354040283529160200191612fe6565b820191906000526020600020905b815481529060010190602001808311612fc957829003601f168201915b50505050508152602001600182018054612fff90615a3e565b80601f016020809104026020016040519081016040528092919081815260200182805461302b90615a3e565b80156130785780601f1061304d57610100808354040283529160200191613078565b820191906000526020600020905b81548152906001019060200180831161305b57829003601f168201915b50505091835250506002820154602082015260038201546001600160a01b03908116604083015260048301541660608201526005820180546080909201916130bf90615a3e565b80601f01602080910402602001604051908101604052809291908181526020018280546130eb90615a3e565b80156131385780601f1061310d57610100808354040283529160200191613138565b820191906000526020600020905b81548152906001019060200180831161311b57829003601f168201915b505050505081526020016006820154815250509050919050565b61315a614b85565b6001600160a01b0382166131a05760405162461bcd60e51b815260206004820152600d60248201526c42616e6b20496420456d70747960981b60448201526064016103d1565b6001600160a01b03821660009081526003602052604090819020815160c081019092528054829082906131d290615a3e565b80601f01602080910402602001604051908101604052809291908181526020018280546131fe90615a3e565b801561324b5780601f106132205761010080835404028352916020019161324b565b820191906000526020600020905b81548152906001019060200180831161322e57829003601f168201915b5050505050815260200160018201805461326490615a3e565b80601f016020809104026020016040519081016040528092919081815260200182805461329090615a3e565b80156132dd5780601f106132b2576101008083540402835291602001916132dd565b820191906000526020600020905b8154815290600101906020018083116132c057829003601f168201915b505050918352505060028201546001600160a01b0316602082015260038201805460409092019161330d90615a3e565b80601f016020809104026020016040519081016040528092919081815260200182805461333990615a3e565b80156133865780601f1061335b57610100808354040283529160200191613386565b820191906000526020600020905b81548152906001019060200180831161336957829003601f168201915b5050509183525050600482015461ffff8116602083015260409091019062010000900460ff1660018111156133cb57634e487b7160e01b600052602160045260246000fd5b60018111156133ea57634e487b7160e01b600052602160045260246000fd5b90525092915050565b604080516bffffffffffffffffffffffff19606094851b811660208301529290931b9091166034830152805160288184030181526048909201905290565b600061344c8260405180602001604052806000815250612ed9565b1561348c5760405162461bcd60e51b815260206004820152601060248201526f5265717565737420496420656d70747960801b60448201526064016103d1565b612f2d60078360405161349f91906154c0565b90815260405190819003602001902080546134b990615a3e565b80601f01602080910402602001604051908101604052809291908181526020018280546134e590615a3e565b80156135325780601f1061350757610100808354040283529160200191613532565b820191906000526020600020905b81548152906001019060200180831161351557829003601f168201915b505050505083612ed9565b60006001600160a01b0382166135835760405162461bcd60e51b815260206004820152600b60248201526a496420697320656d70747960a81b60448201526064016103d1565b6001600160a01b0382811660009081526001602052604090206003015416158015906135d857506001600160a01b03821660009081526001602081905260409091200180546135d6919061044090615a3e565b155b156135e1575060015b919050565b6040808201516001600160a01b0390811660009081526003602052919091206002015416156136455760405162461bcd60e51b815260206004820152600b60248201526a42616e6b2065786973747360a81b60448201526064016103d1565b6040808201516001600160a01b0316600090815260036020908152919020825180518493613677928492910190614bb7565b5060208281015180516136909260018501920190614bb7565b5060408201516002820180546001600160a01b0319166001600160a01b03909216919091179055606082015180516136d2916003840191602090910190614bb7565b50608082015160048201805461ffff90921661ffff1983168117825560a08501519262ffffff1916176201000083600181111561371f57634e487b7160e01b600052602160045260246000fd5b0217905550505060408181018051600280546001810182556000919091527f405787fa12a823e0f2b7631cc41b3ba8828b3321ca811111fa75cd3aa3bb5ace0180546001600160a01b0319166001600160a01b039092169190911790555182516020840151606085015193517f17ee33cc6a54067d735ee1c9200fc0dc8354b1d7deae9908692bcd90723044b1946137b994939291615581565b60405180910390a150565b6001600160a01b03838116600090815260036020526040902060020154166137fe5760405162461bcd60e51b81526004016103d1906157f5565b6001600160a01b0383166000908152600360209081526040909120825161382792840190614bb7565b506001600160a01b0383166000908152600360209081526040909120835161385792600190920191850190614bb7565b507fc0e694475d9755514453a459373ded91f1517029faca54000da1c3007ec2c4f983828460405161388b9392919061554b565b60405180910390a1505050565b60006060600083116138df5760405162461bcd60e51b815260206004820152601060248201526f0504e2073686f756c64206265203e20360841b60448201526064016103d1565b60008060008061394987600280548060200260200160405190810160405280929190818152602001828054801561393f57602002820191906000526020600020905b81546001600160a01b03168152600190910190602001808311613921575b5050505050614a96565b935093509350935060008367ffffffffffffffff81111561397a57634e487b7160e01b600052604160045260246000fd5b6040519080825280602002602001820160405280156139b357816020015b6139a0614b85565b8152602001906001900390816139985790505b509050825b82811015613c7e5760036000600283815481106139e557634e487b7160e01b600052603260045260246000fd5b60009182526020808320909101546001600160a01b031683528201929092526040908101909120815160c08101909252805482908290613a2490615a3e565b80601f0160208091040260200160405190810160405280929190818152602001828054613a5090615a3e565b8015613a9d5780601f10613a7257610100808354040283529160200191613a9d565b820191906000526020600020905b815481529060010190602001808311613a8057829003601f168201915b50505050508152602001600182018054613ab690615a3e565b80601f0160208091040260200160405190810160405280929190818152602001828054613ae290615a3e565b8015613b2f5780601f10613b0457610100808354040283529160200191613b2f565b820191906000526020600020905b815481529060010190602001808311613b1257829003601f168201915b505050918352505060028201546001600160a01b03166020820152600382018054604090920191613b5f90615a3e565b80601f0160208091040260200160405190810160405280929190818152602001828054613b8b90615a3e565b8015613bd85780601f10613bad57610100808354040283529160200191613bd8565b820191906000526020600020905b815481529060010190602001808311613bbb57829003601f168201915b5050509183525050600482015461ffff8116602083015260409091019062010000900460ff166001811115613c1d57634e487b7160e01b600052602160045260246000fd5b6001811115613c3c57634e487b7160e01b600052602160045260246000fd5b81525050828281518110613c6057634e487b7160e01b600052603260045260246000fd5b60200260200101819052508080613c7690615a95565b9150506139b8565b50939793965092945050505050565b6000613c97614b36565b6000613ca1614b36565b60005b8551811015613f2957866001600160a01b0316868281518110613cd757634e487b7160e01b600052603260045260246000fd5b60200260200101516001600160a01b03161415613f17576001925060016000886001600160a01b03166001600160a01b031681526020019081526020016000206040518060e0016040529081600082018054613d3290615a3e565b80601f0160208091040260200160405190810160405280929190818152602001828054613d5e90615a3e565b8015613dab5780601f10613d8057610100808354040283529160200191613dab565b820191906000526020600020905b815481529060010190602001808311613d8e57829003601f168201915b50505050508152602001600182018054613dc490615a3e565b80601f0160208091040260200160405190810160405280929190818152602001828054613df090615a3e565b8015613e3d5780601f10613e1257610100808354040283529160200191613e3d565b820191906000526020600020905b815481529060010190602001808311613e2057829003601f168201915b50505091835250506002820154602082015260038201546001600160a01b0390811660408301526004830154166060820152600582018054608090920191613e8490615a3e565b80601f0160208091040260200160405190810160405280929190818152602001828054613eb090615a3e565b8015613efd5780601f10613ed257610100808354040283529160200191613efd565b820191906000526020600020905b815481529060010190602001808311613ee057829003601f168201915b505050505081526020016006820154815250509150613f29565b80613f2181615a95565b915050613ca4565b50909590945092505050565b60608101516001600160a01b03166000908152600160209081526040909120825180518493613f68928492910190614bb7565b506020828101518051613f819260018501920190614bb7565b506040820151600282015560608201516003820180546001600160a01b039283166001600160a01b031991821617909155608084015160048401805491909316911617905560a08201518051613fe1916005840191602090910190614bb7565b5060c09190910151600690910155606081018051600080546001810182559080527f290decd9548b62a8d60345a988386fc84ba6bc95484008f6362f93160ef3e5630180546001600160a01b0319166001600160a01b0390921691909117905551815160208301516040517f77eacb4962819f791ebd2750d7be9519622ddcf4c37fe09c6fd33ace5ce32ccb936137b9939092909161554b565b336000908152600160209081526040909120845161409b92860190614bb7565b5033600090815260016020818152604090922084516140c293919092019190850190614bb7565b503360008181526001602052604090819020600201839055517fcfc84fa73e8500b1f994b7616fda16714aa77352defd398c17f8dda41cc921959161388b918690869061554b565b336000908152600160209081526040909120835161413092600590920191850190614bb7565b5033600081815260016020526040908190206006810184905590517f844d9124dad5a413c4b99664397291f93f1e89513cd8c3a68674c050283c55619261417a9290918690615602565b60405180910390a15050565b6001600160a01b038281166000908152600360205260408120600201549091166141c25760405162461bcd60e51b81526004016103d1906157f5565b818015614212575060016001600160a01b03841660009081526003602052604090206004015462010000900460ff16600181111561421057634e487b7160e01b600052602160045260246000fd5b145b1561427f576001600160a01b0383166000908152600360205260409081902060048101805462ff00001916905590517fbbb85d77e85c02977b28ba58175443b7d9c020551c53482ea6df5fe2e1cb88439161426f918691906155d6565b60405180910390a1506000612f2d565b811580156142d0575060006001600160a01b03841660009081526003602052604090206004015462010000900460ff1660018111156142ce57634e487b7160e01b600052602160045260246000fd5b145b15614342576001600160a01b0383166000908152600360205260409081902060048101805462ff000019166201000017905590517fe2914c072e85a93716aea3154e8dc2a6d4f9a823930697852b892fe10bd598f891614332918691906155d6565b60405180910390a1506001612f2d565b506001600160a01b03821660009081526003602052604090206004015462010000900460ff16612f2d565b60006060600084116143b75760405162461bcd60e51b8152602060048201526013602482015272504e2073686f756c64206265203e207a65726f60681b60448201526064016103d1565b60008060008061444688886143da573360009081526009602052604090206143ea565b3360009081526008602052604090205b80548060200260200160405190810160405280929190818152602001828054801561393f576020028201919060005260206000209081546001600160a01b03168152600190910190602001808311613921575050505050614a96565b935093509350935060008367ffffffffffffffff81111561447757634e487b7160e01b600052604160045260246000fd5b6040519080825280602002602001820160405280156144b057816020015b61449d614c3b565b8152602001906001900390816144955790505b509050825b828110156149a1578861453357336000908152600960205260409020805460079161451391849081106144f857634e487b7160e01b600052603260045260246000fd5b6000918252602090912001546001600160a01b0316336133f3565b60405161452091906154c0565b90815260200160405180910390206145a1565b33600081815260086020526040902080546007926145859290918590811061456b57634e487b7160e01b600052603260045260246000fd5b6000918252602090912001546001600160a01b03166133f3565b60405161459291906154c0565b90815260200160405180910390205b604051806101400160405290816000820180546145bd90615a3e565b80601f01602080910402602001604051908101604052809291908181526020018280546145e990615a3e565b80156146365780601f1061460b57610100808354040283529160200191614636565b820191906000526020600020905b81548152906001019060200180831161461957829003601f168201915b505050918352505060018201546001600160a01b0316602082015260028201805460409092019161466690615a3e565b80601f016020809104026020016040519081016040528092919081815260200182805461469290615a3e565b80156146df5780601f106146b4576101008083540402835291602001916146df565b820191906000526020600020905b8154815290600101906020018083116146c257829003601f168201915b505050918352505060038201546001600160a01b0316602082015260048201805460409092019161470f90615a3e565b80601f016020809104026020016040519081016040528092919081815260200182805461473b90615a3e565b80156147885780601f1061475d57610100808354040283529160200191614788565b820191906000526020600020905b81548152906001019060200180831161476b57829003601f168201915b505050505081526020016005820180546147a190615a3e565b80601f01602080910402602001604051908101604052809291908181526020018280546147cd90615a3e565b801561481a5780601f106147ef5761010080835404028352916020019161481a565b820191906000526020600020905b8154815290600101906020018083116147fd57829003601f168201915b505050918352505060068201546020820152600782015460409091019060ff16600281111561485957634e487b7160e01b600052602160045260246000fd5b600281111561487857634e487b7160e01b600052602160045260246000fd5b81526020016007820160019054906101000a900460ff1660028111156148ae57634e487b7160e01b600052602160045260246000fd5b60028111156148cd57634e487b7160e01b600052602160045260246000fd5b81526020016008820180546148e190615a3e565b80601f016020809104026020016040519081016040528092919081815260200182805461490d90615a3e565b801561495a5780601f1061492f5761010080835404028352916020019161495a565b820191906000526020600020905b81548152906001019060200180831161493d57829003601f168201915b50505050508152505082828151811061498357634e487b7160e01b600052603260045260246000fd5b6020026020010181905250808061499990615a95565b9150506144b5565b5093989397509295505050505050565b6001600160a01b0381166149d75760405162461bcd60e51b81526004016103d1906157f5565b6001600160a01b0381166000908152600360205260408120600401805461ffff1691614a0283615a73565b91906101000a81548161ffff021916908361ffff1602179055505050565b6001600160a01b038116614a6a5760405162461bcd60e51b8152602060048201526011602482015270437573746f6d657220496420456d70747960781b60448201526064016103d1565b6001600160a01b0316600090815260016020526040902060040180546001600160a01b03191633179055565b600080600080600060198651614aac9190615ab0565b905060198651614abc91906159c8565b94508015614ad25784614ace81615a95565b9550505b60199350614ae16001886159fb565b614aec9060196159dc565b9250614af98760196159dc565b915084871115614b10576000935060009150614b2c565b8487148015614b1f5750600081115b15614b2c57809350855191505b5092959194509250565b6040518060e0016040528060608152602001606081526020016000815260200160006001600160a01b0316815260200160006001600160a01b0316815260200160608152602001600081525090565b6040805160c081018252606080825260208201819052600092820183905280820152608081018290529060a082015290565b828054614bc390615a3e565b90600052602060002090601f016020900481019282614be55760008555614c2b565b82601f10614bfe57805160ff1916838001178555614c2b565b82800160010185558215614c2b579182015b82811115614c2b578251825591602001919060010190614c10565b50614c37929150614d15565b5090565b6040518061014001604052806060815260200160006001600160a01b031681526020016060815260200160006001600160a01b0316815260200160608152602001606081526020016000815260200160006002811115614cab57634e487b7160e01b600052602160045260246000fd5b815260200160008152602001606081525090565b6040518060a00160405280606081526020016060815260200160006001600160a01b0316815260200160006002811115614d0957634e487b7160e01b600052602160045260246000fd5b81526020016000905290565b5b80821115614c375760008155600101614d16565b80356001600160a01b03811681146135e157600080fd5b803580151581146135e157600080fd5b8035600281106135e157600080fd5b600082601f830112614d70578081fd5b813567ffffffffffffffff80821115614d8b57614d8b615b06565b604051601f8301601f19908116603f01168101908282118183101715614db357614db3615b06565b81604052838152866020858801011115614dcb578485fd5b8360208701602083013792830160200193909352509392505050565b803561ffff811681146135e157600080fd5b600060208284031215614e0a578081fd5b614e1382614d2a565b9392505050565b60008060408385031215614e2c578081fd5b614e3583614d2a565b9150614e4360208401614d41565b90509250929050565b600080600060608486031215614e60578081fd5b614e6984614d2a565b9250614e7760208501614d41565b9150604084013567ffffffffffffffff811115614e92578182fd5b614e9e86828701614d60565b9150509250925092565b60008060408385031215614eba578182fd5b614ec383614d2a565b9150602083013567ffffffffffffffff811115614ede578182fd5b614eea85828601614d60565b9150509250929050565b600080600060608486031215614f08578283fd5b614f1184614d2a565b9250602084013567ffffffffffffffff80821115614f2d578384fd5b614f3987838801614d60565b93506040860135915080821115614f4e578283fd5b50614e9e86828701614d60565b600080600060608486031215614f6f578283fd5b833567ffffffffffffffff80821115614f86578485fd5b614f9287838801614d60565b94506020860135915080821115614fa7578384fd5b50614fb486828701614d60565b925050604084013590509250925092565b60008060408385031215614fd7578182fd5b823567ffffffffffffffff811115614fed578283fd5b614ff985828601614d60565b95602094909401359450505050565b600060208284031215615019578081fd5b813567ffffffffffffffff80821115615030578283fd5b9083019060c08286031215615043578283fd5b61504b61597c565b823582811115615059578485fd5b61506587828601614d60565b825250602083013582811115615079578485fd5b61508587828601614d60565b60208301525061509760408401614d2a565b60408201526060830135828111156150ad578485fd5b6150b987828601614d60565b6060830152506150cb60808401614de7565b60808201526150dc60a08401614d51565b60a082015295945050505050565b6000806000606084860312156150fe578283fd5b833567ffffffffffffffff80821115615115578485fd5b9085019060e08288031215615128578485fd5b6151306159a5565b82358281111561513e578687fd5b61514a89828601614d60565b82525060208301358281111561515e578687fd5b61516a89828601614d60565b6020830152506040830135604082015261518660608401614d2a565b606082015261519760808401614d2a565b608082015260a0830135828111156151ad578687fd5b6151b989828601614d60565b60a08301525060c083013560c082015280955050602086013593506040860135915080821115614f4e578283fd5b6000602082840312156151f8578081fd5b5035919050565b6002811061520f5761520f615af0565b9052565b61520f81615b1c565b60008151808452615234816020860160208601615a12565b601f01601f19169290920160200192915050565b6000815461525581615a3e565b8085526020600183811680156152725760018114615286576152b4565b60ff198516888401526040880195506152b4565b866000528260002060005b858110156152ac5781548a8201860152908301908401615291565b890184019650505b505050505092915050565b6000815160c084526152d460c085018261521c565b9050602083015184820360208601526152ed828261521c565b91505060018060a01b03604084015116604085015260608301518482036060860152615319828261521c565b91505061ffff608084015116608085015260a083015161533c60a08601826151ff565b509392505050565b6000815160e0845261535960e085018261521c565b905060208301518482036020860152615372828261521c565b91505060408301516040850152606083015160018060a01b038082166060870152806080860151166080870152505060a083015184820360a08601526153b8828261521c565b91505060c083015160c08501528091505092915050565b600061014082518185526153e58286018261521c565b915050602083015161540260208601826001600160a01b03169052565b506040830151848203604086015261541a828261521c565b915050606083015161543760608601826001600160a01b03169052565b506080830151848203608086015261544f828261521c565b91505060a083015184820360a0860152615469828261521c565b91505060c083015160c085015260e083015161548860e0860182615213565b506101008084015161549c82870182615213565b505061012080840151858303828701526154b6838261521c565b9695505050505050565b600082516154d2818460208701615a12565b9190910192915050565b60008083546154ea81615a3e565b6001828116801561550257600181146155135761553f565b60ff1984168752828701945061553f565b8786526020808720875b858110156155365781548a82015290840190820161551d565b50505082870194505b50929695505050505050565b6001600160a01b038416815260606020820181905260009061556f9083018561521c565b82810360408401526154b6818561521c565b6001600160a01b03851681526080602082018190526000906155a59083018661521c565b82810360408401526155b7818661521c565b905082810360608401526155cb818561521c565b979650505050505050565b6001600160a01b03831681526040602082018190526000906155fa90830184615248565b949350505050565b6001600160a01b038416815260606020820181905260009061556f90830185615248565b831515815260606020820152600061564160608301856152bf565b82810360408401526154b681856153cf565b83151581526060602082015260006156416060830185615344565b608081526000615681608083018761521c565b6001600160a01b0386811660208501528516604084015290506156a383615b1c565b82606083015295945050505050565b6060815260006156c5606083018661521c565b82810360208401526156d78186615248565b905082810360408401526154b6818561521c565b6060815260006156fe606083018661521c565b82810360208401526157108186615248565b905082810360408401526154b68185615248565b6020808252600b908201526a496420697320456d70747960a81b604082015260600190565b60208082526010908201526f5573657220456d61696c20456d70747960801b604082015260600190565b6020808252600d908201526c5573657220496420456d70747960981b604082015260600190565b60208082526015908201527413db9b1e4818591b5a5b881a5cc8185b1b1bddd959605a1b604082015260600190565b60208082526012908201527142616e6b206973206e6f742061637469766560701b604082015260600190565b6020808252600e908201526d10985b9ac81b9bdd08199bdd5b9960921b604082015260600190565b602081526000614e1360208301846152bf565b602081526000614e136020830184615344565b602081526000825160a0602084015261585f60c084018261521c565b90506020840151601f1984830301604085015261587c828261521c565b91505060018060a01b036040850151166060840152606084015161589f81615b1c565b80608085015250608084015161533c60a08501826151ff565b600060408201848352602060408185015281855180845260608601915060608160051b8701019350828701855b8281101561591357605f198887030184526159018683516152bf565b955092840192908401906001016158e5565b509398975050505050505050565b600060408201848352602060408185015281855180845260608601915060608160051b8701019350828701855b8281101561591357605f1988870301845261596a8683516153cf565b9550928401929084019060010161594e565b60405160c0810167ffffffffffffffff8111828210171561599f5761599f615b06565b60405290565b60405160e0810167ffffffffffffffff8111828210171561599f5761599f615b06565b6000826159d7576159d7615ada565b500490565b60008160001904831182151516156159f6576159f6615ac4565b500290565b600082821015615a0d57615a0d615ac4565b500390565b60005b83811015615a2d578181015183820152602001615a15565b838111156113d55750506000910152565b600181811c90821680615a5257607f821691505b602082108114156104fc57634e487b7160e01b600052602260045260246000fd5b600061ffff80831681811415615a8b57615a8b615ac4565b6001019392505050565b6000600019821415615aa957615aa9615ac4565b5060010190565b600082615abf57615abf615ada565b500690565b634e487b7160e01b600052601160045260246000fd5b634e487b7160e01b600052601260045260246000fd5b634e487b7160e01b600052602160045260246000fd5b634e487b7160e01b600052604160045260246000fd5b60038110615b2c57615b2c615af0565b5056fea2646970667358221220cfcbf34dff7535fe24646b4e9aafea7e943c3c150b8015f52b404480cb4cce9264736f6c63430008040033",
  "immutableReferences": {},
  "source": "// SPDX-License-Identifier: GPL-3.0\r\npragma experimental ABIEncoderV2;\r\npragma solidity >=0.4.25 <0.9.0;\r\n\r\n/** \r\nAssumptions\r\n* Finanicial Institutions - Bank\r\n* Users - Customer\r\n* Super Admin - Admin\r\n*/\r\n\r\nimport \"./Customers.sol\";\r\nimport \"./Banks.sol\";\r\n\r\ncontract KYC is Customers, Banks {\r\n    address admin;\r\n    address[] internal userList;\r\n\r\n    mapping(address => Types.User) internal users;\r\n    mapping(string => Types.KycRequest) internal kycRequests;\r\n    mapping(address => address[]) internal bankCustomers; // All customers associated to a Bank\r\n    mapping(address => address[]) internal customerbanks; // All banks associated to a Customer\r\n\r\n    mapping(address => bool) public verification;\r\n\r\n    function addAddress(address _address) public {\r\n        verification[_address] = true;\r\n    }\r\n\r\n    function checkAddress(address _address) public view returns (bool) {\r\n        return verification[_address];\r\n    }\r\n\r\n    /**\r\n     * @notice Set admin to one who deploy this contract\r\n     * Who will act as the super-admin to add all the financial institutions (banks)\r\n     * @param name_ Name of the admin\r\n     * @param email_ Email of the admin\r\n     */\r\n    constructor(string memory name_, string memory email_) {\r\n        admin = msg.sender;\r\n        Types.User memory usr_ = Types.User({\r\n            name: name_,\r\n            email: email_,\r\n            id_: admin,\r\n            role: Types.Role.Admin,\r\n            status: Types.BankStatus.Active\r\n        });\r\n        users[admin] = usr_;\r\n        userList.push(admin);\r\n    }\r\n\r\n    // Modifiers\r\n\r\n    /**\r\n     * @notice Checks whether the requestor is admin\r\n     */\r\n    modifier isAdmin() {\r\n        require(msg.sender == admin, \"Only admin is allowed\");\r\n        _;\r\n    }\r\n\r\n    // Support functions\r\n\r\n    /**\r\n     * @notice Checks whether the KYC request already exists\r\n     * @param reqId_ Unique Id of the KYC request\r\n     * @return boolean which says request exists or not\r\n     */\r\n    function kycRequestExists(\r\n        string memory reqId_\r\n    ) internal view returns (bool) {\r\n        require(!Helpers.compareStrings(reqId_, \"\"), \"Request Id empty\");\r\n        return Helpers.compareStrings(kycRequests[reqId_].id_, reqId_);\r\n    }\r\n\r\n    /**\r\n     * @notice All kyc requests. Data will be sent in pages to avoid the more gas fee\r\n     * @param pageNumber page number for which data is needed (1..2..3....n)\r\n     * @param isForBank List needed for bank or for customer\r\n     * @return totalPages Total pages available\r\n     * @return KycRequest[] List of KYC requests in the current page\r\n     */\r\n    function getKYCRequests(\r\n        uint256 pageNumber,\r\n        bool isForBank\r\n    ) internal view returns (uint256 totalPages, Types.KycRequest[] memory) {\r\n        require(pageNumber > 0, \"PN should be > zero\");\r\n        (\r\n            uint256 pages,\r\n            uint256 pageLength_,\r\n            uint256 startIndex_,\r\n            uint256 endIndex_\r\n        ) = Helpers.getIndexes(\r\n                pageNumber,\r\n                isForBank\r\n                    ? bankCustomers[msg.sender]\r\n                    : customerbanks[msg.sender]\r\n            );\r\n        Types.KycRequest[] memory list_ = new Types.KycRequest[](pageLength_);\r\n        for (uint256 i = startIndex_; i < endIndex_; i++)\r\n            list_[i] = isForBank\r\n                ? kycRequests[\r\n                    Helpers.append(msg.sender, bankCustomers[msg.sender][i])\r\n                ]\r\n                : kycRequests[\r\n                    Helpers.append(customerbanks[msg.sender][i], msg.sender)\r\n                ];\r\n        return (pages, list_);\r\n    }\r\n\r\n    // Events\r\n\r\n    event KycRequestAdded(string reqId, string bankName, string customerName);\r\n    event KycReRequested(string reqId, string bankName, string customerName);\r\n    event KycStatusChanged(\r\n        string reqId,\r\n        address customerId,\r\n        address bankId,\r\n        Types.KycStatus status\r\n    );\r\n    event DataHashPermissionChanged(\r\n        string reqId,\r\n        address customerId,\r\n        address bankId,\r\n        Types.DataHashStatus status\r\n    );\r\n\r\n    // Admin Interface\r\n\r\n    /**\r\n     * @dev All the banks list. Data will be sent in pages to avoid the more gas fee\r\n     * @param pageNumber page number for which data is needed (1..2..3....n)\r\n     * @return totalPages Total pages available\r\n     * @return Bank[] List of banks in the current page\r\n     */\r\n    function getAllBanks(\r\n        uint256 pageNumber\r\n    ) public view isAdmin returns (uint256 totalPages, Types.Bank[] memory) {\r\n        return getallbanks(pageNumber);\r\n    }\r\n\r\n    /**\r\n     * @dev To add new bank account\r\n     * @param bank_ Bank details, which need to be added to the system\r\n     */\r\n    function addBank(Types.Bank memory bank_) public isAdmin {\r\n        addbank(bank_);\r\n        // Adding to common list\r\n        users[bank_.id_] = Types.User({\r\n            name: bank_.name,\r\n            email: bank_.email,\r\n            id_: bank_.id_,\r\n            role: Types.Role.Bank,\r\n            status: Types.BankStatus.Active\r\n        });\r\n        userList.push(bank_.id_);\r\n    }\r\n\r\n    /**\r\n     * @dev To add new bank account\r\n     * @param id_ Bank's metamask address\r\n     * @param email_ Bank's email address that need to be updated\r\n     * @param name_ Bank's name which need to be updated\r\n     */\r\n    function updateBankDetails(\r\n        address id_,\r\n        string memory email_,\r\n        string memory name_\r\n    ) public isAdmin {\r\n        updatebank(id_, email_, name_);\r\n        // Updating in common list\r\n        users[id_].name = name_;\r\n        users[id_].email = email_;\r\n    }\r\n\r\n    /**\r\n     * @dev To add new bank account\r\n     * @param id_ Bank's metamask address\r\n     * @param makeActive_ If true, bank will be marked as active, else, it will be marked as deactivateds\r\n     */\r\n    function activateDeactivateBank(\r\n        address id_,\r\n        bool makeActive_\r\n    ) public isAdmin {\r\n        // Updating in common list\r\n        users[id_].status = activatedeactivatebank(id_, makeActive_);\r\n    }\r\n\r\n    // Bank Interface\r\n\r\n    /**\r\n     * @dev List of customers, who are linked to the current bank. Data will be sent in pages to avoid the more gas fee\r\n     * @param pageNumber page number for which data is needed (1..2..3....n)\r\n     * @return totalPages Total pages available\r\n     * @return KycRequest[] List of KYC requests in the current page\r\n     */\r\n    function getCustomersOfBank(\r\n        uint256 pageNumber\r\n    )\r\n        public\r\n        view\r\n        isValidBank(msg.sender)\r\n        returns (uint256 totalPages, Types.KycRequest[] memory)\r\n    {\r\n        return getKYCRequests(pageNumber, true);\r\n    }\r\n\r\n    /**\r\n     * @notice Records new KYC request for a customer\r\n     * @param customer_ Customer details for whom the request is to be raised\r\n     * @param currentTime_ Current Date & Time in unix epoch timestamp\r\n     * @param notes_ Any additional notes that need to be added\r\n     */\r\n    function addKycRequest(\r\n        Types.Customer memory customer_,\r\n        uint256 currentTime_,\r\n        string memory notes_\r\n    ) public isValidBank(msg.sender) {\r\n        string memory reqId_ = Helpers.append(msg.sender, customer_.id_);\r\n        require(!kycRequestExists(reqId_), \"User had kyc req.\");\r\n\r\n        kycRequests[reqId_] = Types.KycRequest({\r\n            id_: reqId_,\r\n            userId_: customer_.id_,\r\n            customerName: customer_.name,\r\n            bankId_: msg.sender,\r\n            bankName: getsinglebank(msg.sender).name,\r\n            dataHash: customer_.dataHash,\r\n            updatedOn: currentTime_,\r\n            status: Types.KycStatus.Pending,\r\n            dataRequest: Types.DataHashStatus.Pending,\r\n            additionalNotes: notes_\r\n        });\r\n        bankCustomers[msg.sender].push(customer_.id_);\r\n        customerbanks[customer_.id_].push(msg.sender);\r\n        emit KycRequestAdded(\r\n            reqId_,\r\n            kycRequests[reqId_].bankName,\r\n            customer_.name\r\n        );\r\n\r\n        if (!customerExists(customer_.id_)) {\r\n            addcustomer(customer_);\r\n            // Adding to common list\r\n            users[customer_.id_] = Types.User({\r\n                name: customer_.name,\r\n                email: customer_.email,\r\n                id_: customer_.id_,\r\n                role: Types.Role.Customer,\r\n                status: Types.BankStatus.Active\r\n            });\r\n            userList.push(customer_.id_);\r\n        }\r\n    }\r\n\r\n    /**\r\n     * @notice Updates existing KYC request for a customer (It's a re-request)\r\n     * @param id_ Customer ID for whom the request has to be re-raised\r\n     * @param notes_ Any additional notes that need to be added\r\n     */\r\n    function reRequestForKycRequest(\r\n        address id_,\r\n        string memory notes_\r\n    ) public isValidBank(msg.sender) {\r\n        string memory reqId_ = Helpers.append(msg.sender, id_);\r\n        require(kycRequestExists(reqId_), \"KYC req not found\");\r\n        require(customerExists(id_), \"User not found\");\r\n\r\n        // kycRequests[reqId_].status = Types.KycStatus.Pending;\r\n        kycRequests[reqId_].dataRequest = Types.DataHashStatus.Pending;\r\n        kycRequests[reqId_].additionalNotes = notes_;\r\n\r\n        emit KycReRequested(\r\n            reqId_,\r\n            kycRequests[reqId_].bankName,\r\n            kycRequests[reqId_].customerName\r\n        );\r\n    }\r\n\r\n    /**\r\n     * @dev To mark the KYC verification as failure\r\n     * @param userId_ Id of the user\r\n     * @param userId_ KYC Verified\r\n     * @param note_ Any info that need to be shared\r\n     */\r\n    function updateKycVerification(\r\n        address userId_,\r\n        bool verified_,\r\n        string memory note_\r\n    ) public isValidBank(msg.sender) {\r\n        string memory reqId_ = Helpers.append(msg.sender, userId_);\r\n        require(kycRequestExists(reqId_), \"User doesn't have KYC req\");\r\n\r\n        Types.KycStatus status_ = Types.KycStatus.Pending;\r\n        if (verified_) {\r\n            status_ = Types.KycStatus.KYCVerified;\r\n            updatekyccount(msg.sender);\r\n            updatekycdoneby(userId_);\r\n        } else {\r\n            status_ = Types.KycStatus.KYCFailed;\r\n        }\r\n\r\n        kycRequests[reqId_].status = status_;\r\n        kycRequests[reqId_].additionalNotes = note_;\r\n        emit KycStatusChanged(reqId_, userId_, msg.sender, status_);\r\n    }\r\n\r\n    /**\r\n     * @dev Search for customer details in the list that the bank is directly linked to\r\n     * @param id_ Customer's metamask Id\r\n     * @return boolean to say if customer exists or not\r\n     * @return Customer object to get the complete details of the customer\r\n     * @return KycRequest object to get the details about the request & it's status\r\n     * Costly operation if we had more customers linked to this single bank\r\n     */\r\n    function searchCustomers(\r\n        address id_\r\n    )\r\n        public\r\n        view\r\n        isValidCustomer(id_)\r\n        isValidBank(msg.sender)\r\n        returns (bool, Types.Customer memory, Types.KycRequest memory)\r\n    {\r\n        bool found_;\r\n        Types.Customer memory customer_;\r\n        Types.KycRequest memory request_;\r\n        (found_, customer_) = searchcustomers(id_, bankCustomers[msg.sender]);\r\n        if (found_) request_ = kycRequests[Helpers.append(msg.sender, id_)];\r\n        return (found_, customer_, request_);\r\n    }\r\n\r\n    // Customer Interface\r\n\r\n    /**\r\n     * @notice List of all banks. Data will be sent in pages to avoid the more gas fee\r\n     * @dev This is customer facing RPC end point\r\n     * @param pageNumber page number for which data is needed (1..2..3....n)\r\n     * @return totalPages Total pages available\r\n     * @return KycRequest[] List of KYC requests in the current page\r\n     */\r\n    function getBankRequests(\r\n        uint256 pageNumber\r\n    )\r\n        public\r\n        view\r\n        isValidCustomer(msg.sender)\r\n        returns (uint256 totalPages, Types.KycRequest[] memory)\r\n    {\r\n        return getKYCRequests(pageNumber, false);\r\n    }\r\n\r\n    /**\r\n     * @dev Updates the KYC request (Either Approves or Rejects)\r\n     * @param bankId_ Id of the bank\r\n     * @param approve_ Approve the data hash or reject\r\n     * @param note_ Any info that need to be shared\r\n     */\r\n    function actionOnKycRequest(\r\n        address bankId_,\r\n        bool approve_,\r\n        string memory note_\r\n    ) public isValidCustomer(msg.sender) isValidBank(bankId_) {\r\n        string memory reqId_ = Helpers.append(bankId_, msg.sender);\r\n        require(kycRequestExists(reqId_), \"User doesn't have KYC req\");\r\n\r\n        Types.DataHashStatus status_ = Types.DataHashStatus.Pending;\r\n        if (approve_) {\r\n            status_ = Types.DataHashStatus.Approved;\r\n        } else {\r\n            status_ = Types.DataHashStatus.Rejected;\r\n        }\r\n        kycRequests[reqId_].dataRequest = status_;\r\n        kycRequests[reqId_].additionalNotes = note_;\r\n\r\n        emit DataHashPermissionChanged(reqId_, msg.sender, bankId_, status_);\r\n    }\r\n\r\n    /**\r\n     * @dev Updates the user profile\r\n     * @param name_ Customer name\r\n     * @param email_ Email that need to be updated\r\n     * @param mobile_ Mobile number that need to be updated\r\n     */\r\n    function updateProfile(\r\n        string memory name_,\r\n        string memory email_,\r\n        uint256 mobile_\r\n    ) public isValidCustomer(msg.sender) {\r\n        updateprofile(name_, email_, mobile_);\r\n        // Updating in common list\r\n        users[msg.sender].name = name_;\r\n        users[msg.sender].email = email_;\r\n    }\r\n\r\n    /**\r\n     * @dev Updates the Datahash of the documents\r\n     * @param hash_ Data hash value that need to be updated\r\n     * @param currentTime_ Current Date Time in unix epoch timestamp\r\n     */\r\n    function updateDatahash(\r\n        string memory hash_,\r\n        uint256 currentTime_\r\n    ) public isValidCustomer(msg.sender) {\r\n        updatedatahash(hash_, currentTime_);\r\n\r\n        // Reset KYC verification status for all banks\r\n        address[] memory banksList_ = customerbanks[msg.sender];\r\n        for (uint256 i = 0; i < banksList_.length; i++) {\r\n            string memory reqId_ = Helpers.append(banksList_[i], msg.sender);\r\n            if (kycRequestExists(reqId_)) {\r\n                kycRequests[reqId_].dataHash = hash_;\r\n                kycRequests[reqId_].updatedOn = currentTime_;\r\n                kycRequests[reqId_].status = Types.KycStatus.Pending;\r\n                kycRequests[reqId_].additionalNotes = \"Updated all my docs\";\r\n            }\r\n        }\r\n    }\r\n\r\n    function addDataHash(\r\n        string memory hash_,\r\n        uint256 currentTime_\r\n    ) public isValidCustomer(msg.sender) {\r\n        updatedatahash(hash_, currentTime_);\r\n        address[] memory banksList_ = customerbanks[msg.sender];\r\n        for (uint256 i = 0; i < banksList_.length; i++) {\r\n            string memory reqId_ = Helpers.append(banksList_[i], msg.sender);\r\n            if (kycRequestExists(reqId_)) {\r\n                require(\r\n                    keccak256(abi.encodePacked(kycRequests[reqId_].dataHash)) !=\r\n                        keccak256(abi.encodePacked(\"\")),\r\n                    \"Failed\"\r\n                );\r\n                kycRequests[reqId_].dataHash = hash_;\r\n                kycRequests[reqId_].updatedOn = currentTime_;\r\n                kycRequests[reqId_].status = Types.KycStatus.Pending;\r\n                kycRequests[reqId_].additionalNotes = \"Updated all my docs\";\r\n            }\r\n        }\r\n    }\r\n\r\n    /**\r\n     * @dev Removes the permission to a specific bank, so that they can't access the documents again\r\n     * @param bankId_ Id of the bank to whom permission has to be revoked\r\n     * @param notes_ Any additional notes that need to included\r\n     */\r\n    function removerDatahashPermission(\r\n        address bankId_,\r\n        string memory notes_\r\n    ) public isValidCustomer(msg.sender) {\r\n        string memory reqId_ = Helpers.append(bankId_, msg.sender);\r\n        require(kycRequestExists(reqId_), \"Permission not found\");\r\n        kycRequests[reqId_].dataRequest = Types.DataHashStatus.Rejected;\r\n        kycRequests[reqId_].additionalNotes = notes_;\r\n        emit DataHashPermissionChanged(\r\n            reqId_,\r\n            msg.sender,\r\n            bankId_,\r\n            Types.DataHashStatus.Rejected\r\n        );\r\n    }\r\n\r\n    /**\r\n     * @dev Search for bank details in the list that the customer is directly linked to\r\n     * @param bankId_ Bank's metamask Id\r\n     * @return boolean to say if bank exists or not\r\n     * @return Bank object to get the complete details of the bank\r\n     * @return KycRequest object to get the details about the request & it's status\r\n     * Costly operation if we had more banks linked to this single customer\r\n     */\r\n    function searchBanks(\r\n        address bankId_\r\n    )\r\n        public\r\n        view\r\n        isValidCustomer(msg.sender)\r\n        isValidBank(bankId_)\r\n        returns (bool, Types.Bank memory, Types.KycRequest memory)\r\n    {\r\n        bool found_;\r\n        Types.Bank memory bank_;\r\n        Types.KycRequest memory request_;\r\n        address[] memory banks_ = customerbanks[msg.sender];\r\n\r\n        for (uint256 i = 0; i < banks_.length; i++) {\r\n            if (banks_[i] == bankId_) {\r\n                found_ = true;\r\n                bank_ = getsinglebank(bankId_);\r\n                request_ = kycRequests[Helpers.append(bankId_, msg.sender)];\r\n                break;\r\n            }\r\n        }\r\n        return (found_, bank_, request_);\r\n    }\r\n\r\n    // Common Interface\r\n\r\n    /**\r\n     * @dev Updates the KYC request (Either Approves or Rejects)\r\n     * @return User object which contains the role & other basic info\r\n     */\r\n    function whoAmI() public view returns (Types.User memory) {\r\n        require(msg.sender != address(0), \"Sender Id Empty\");\r\n        require(users[msg.sender].id_ != address(0), \"User Id Empty\");\r\n        return users[msg.sender];\r\n    }\r\n\r\n    /**\r\n     * @dev To get details of the customer\r\n     * @param id_ Customer's metamask address\r\n     * @return Customer object which will have complete details of the customer\r\n     */\r\n    function getCustomerDetails(\r\n        address id_\r\n    ) public view isValidCustomer(id_) returns (Types.Customer memory) {\r\n        return getcustomerdetails(id_);\r\n    }\r\n\r\n    /**\r\n     * @dev To get details of the bank\r\n     * @param id_ Bank's metamask address\r\n     * @return Bank object which will have complete details of the bank\r\n     */\r\n    function getBankDetails(\r\n        address id_\r\n    ) public view isValidBank(id_) returns (Types.Bank memory) {\r\n        return getsinglebank(id_);\r\n    }\r\n}\r\n",
  "sourcePath": "C:\\Users\\alokk\\Desktop\\Learning\\learning blockchain\\kyc2\\blockchain\\contracts\\KYC.sol",
  "compiler": {
    "name": "solc",
    "version": "0.8.4+commit.c7e474f2.Emscripten.clang"
  },
  "schemaVersion": "3.4.13",
  "updatedAt": "2023-05-23T11:05:46.286Z",
  "networkType": "ethereum",
  "devdoc": {
    "kind": "dev",
    "methods": {
      "actionOnKycRequest(address,bool,string)": {
        "details": "Updates the KYC request (Either Approves or Rejects)",
        "params": {
          "approve_": "Approve the data hash or reject",
          "bankId_": "Id of the bank",
          "note_": "Any info that need to be shared"
        }
      },
      "activateDeactivateBank(address,bool)": {
        "details": "To add new bank account",
        "params": {
          "id_": "Bank's metamask address",
          "makeActive_": "If true, bank will be marked as active, else, it will be marked as deactivateds"
        }
      },
      "addBank((string,string,address,string,uint16,uint8))": {
        "details": "To add new bank account",
        "params": {
          "bank_": "Bank details, which need to be added to the system"
        }
      },
      "addKycRequest((string,string,uint256,address,address,string,uint256),uint256,string)": {
        "params": {
          "currentTime_": "Current Date & Time in unix epoch timestamp",
          "customer_": "Customer details for whom the request is to be raised",
          "notes_": "Any additional notes that need to be added"
        }
      },
      "constructor": {
        "params": {
          "email_": "Email of the admin",
          "name_": "Name of the admin"
        }
      },
      "getAllBanks(uint256)": {
        "details": "All the banks list. Data will be sent in pages to avoid the more gas fee",
        "params": {
          "pageNumber": "page number for which data is needed (1..2..3....n)"
        },
        "returns": {
          "_1": "Bank[] List of banks in the current page",
          "totalPages": "Total pages available"
        }
      },
      "getBankDetails(address)": {
        "details": "To get details of the bank",
        "params": {
          "id_": "Bank's metamask address"
        },
        "returns": {
          "_0": "Bank object which will have complete details of the bank"
        }
      },
      "getBankRequests(uint256)": {
        "details": "This is customer facing RPC end point",
        "params": {
          "pageNumber": "page number for which data is needed (1..2..3....n)"
        },
        "returns": {
          "_1": "KycRequest[] List of KYC requests in the current page",
          "totalPages": "Total pages available"
        }
      },
      "getCustomerDetails(address)": {
        "details": "To get details of the customer",
        "params": {
          "id_": "Customer's metamask address"
        },
        "returns": {
          "_0": "Customer object which will have complete details of the customer"
        }
      },
      "getCustomersOfBank(uint256)": {
        "details": "List of customers, who are linked to the current bank. Data will be sent in pages to avoid the more gas fee",
        "params": {
          "pageNumber": "page number for which data is needed (1..2..3....n)"
        },
        "returns": {
          "_1": "KycRequest[] List of KYC requests in the current page",
          "totalPages": "Total pages available"
        }
      },
      "reRequestForKycRequest(address,string)": {
        "params": {
          "id_": "Customer ID for whom the request has to be re-raised",
          "notes_": "Any additional notes that need to be added"
        }
      },
      "removerDatahashPermission(address,string)": {
        "details": "Removes the permission to a specific bank, so that they can't access the documents again",
        "params": {
          "bankId_": "Id of the bank to whom permission has to be revoked",
          "notes_": "Any additional notes that need to included"
        }
      },
      "searchBanks(address)": {
        "details": "Search for bank details in the list that the customer is directly linked to",
        "params": {
          "bankId_": "Bank's metamask Id"
        },
        "returns": {
          "_0": "boolean to say if bank exists or not",
          "_1": "Bank object to get the complete details of the bank",
          "_2": "KycRequest object to get the details about the request & it's status Costly operation if we had more banks linked to this single customer"
        }
      },
      "searchCustomers(address)": {
        "details": "Search for customer details in the list that the bank is directly linked to",
        "params": {
          "id_": "Customer's metamask Id"
        },
        "returns": {
          "_0": "boolean to say if customer exists or not",
          "_1": "Customer object to get the complete details of the customer",
          "_2": "KycRequest object to get the details about the request & it's status Costly operation if we had more customers linked to this single bank"
        }
      },
      "updateBankDetails(address,string,string)": {
        "details": "To add new bank account",
        "params": {
          "email_": "Bank's email address that need to be updated",
          "id_": "Bank's metamask address",
          "name_": "Bank's name which need to be updated"
        }
      },
      "updateDatahash(string,uint256)": {
        "details": "Updates the Datahash of the documents",
        "params": {
          "currentTime_": "Current Date Time in unix epoch timestamp",
          "hash_": "Data hash value that need to be updated"
        }
      },
      "updateKycVerification(address,bool,string)": {
        "details": "To mark the KYC verification as failure",
        "params": {
          "note_": "Any info that need to be shared",
          "userId_": "KYC Verified"
        }
      },
      "updateProfile(string,string,uint256)": {
        "details": "Updates the user profile",
        "params": {
          "email_": "Email that need to be updated",
          "mobile_": "Mobile number that need to be updated",
          "name_": "Customer name"
        }
      },
      "whoAmI()": {
        "details": "Updates the KYC request (Either Approves or Rejects)",
        "returns": {
          "_0": "User object which contains the role & other basic info"
        }
      }
    },
    "version": 1
  },
  "userdoc": {
    "kind": "user",
    "methods": {
      "addKycRequest((string,string,uint256,address,address,string,uint256),uint256,string)": {
        "notice": "Records new KYC request for a customer"
      },
      "constructor": {
        "notice": "Set admin to one who deploy this contract Who will act as the super-admin to add all the financial institutions (banks)"
      },
      "getBankRequests(uint256)": {
        "notice": "List of all banks. Data will be sent in pages to avoid the more gas fee"
      },
      "reRequestForKycRequest(address,string)": {
        "notice": "Updates existing KYC request for a customer (It's a re-request)"
      }
    },
    "version": 1
  }
}