{
  "contractName": "KYC",
  "abi": [
    {
      "inputs": [
        {
          "internalType": "string",
          "name": "name_",
          "type": "string"
        },
        {
          "internalType": "string",
          "name": "email_",
          "type": "string"
        }
      ],
      "stateMutability": "nonpayable",
      "type": "constructor"
    },
    {
      "anonymous": false,
      "inputs": [
        {
          "indexed": false,
          "internalType": "address",
          "name": "id_",
          "type": "address"
        },
        {
          "indexed": false,
          "internalType": "string",
          "name": "name",
          "type": "string"
        }
      ],
      "name": "BankActivated",
      "type": "event"
    },
    {
      "anonymous": false,
      "inputs": [
        {
          "indexed": false,
          "internalType": "address",
          "name": "id_",
          "type": "address"
        },
        {
          "indexed": false,
          "internalType": "string",
          "name": "name",
          "type": "string"
        },
        {
          "indexed": false,
          "internalType": "string",
          "name": "email",
          "type": "string"
        },
        {
          "indexed": false,
          "internalType": "string",
          "name": "ifscCode",
          "type": "string"
        }
      ],
      "name": "BankAdded",
      "type": "event"
    },
    {
      "anonymous": false,
      "inputs": [
        {
          "indexed": false,
          "internalType": "address",
          "name": "id_",
          "type": "address"
        },
        {
          "indexed": false,
          "internalType": "string",
          "name": "name",
          "type": "string"
        }
      ],
      "name": "BankDeactivated",
      "type": "event"
    },
    {
      "anonymous": false,
      "inputs": [
        {
          "indexed": false,
          "internalType": "address",
          "name": "id_",
          "type": "address"
        },
        {
          "indexed": false,
          "internalType": "string",
          "name": "name",
          "type": "string"
        },
        {
          "indexed": false,
          "internalType": "string",
          "name": "email",
          "type": "string"
        }
      ],
      "name": "BankUpdated",
      "type": "event"
    },
    {
      "anonymous": false,
      "inputs": [
        {
          "indexed": false,
          "internalType": "address",
          "name": "id_",
          "type": "address"
        },
        {
          "indexed": false,
          "internalType": "string",
          "name": "name",
          "type": "string"
        },
        {
          "indexed": false,
          "internalType": "string",
          "name": "email",
          "type": "string"
        }
      ],
      "name": "CustomerAdded",
      "type": "event"
    },
    {
      "anonymous": false,
      "inputs": [
        {
          "indexed": false,
          "internalType": "address",
          "name": "id_",
          "type": "address"
        },
        {
          "indexed": false,
          "internalType": "string",
          "name": "name",
          "type": "string"
        },
        {
          "indexed": false,
          "internalType": "string",
          "name": "email",
          "type": "string"
        }
      ],
      "name": "CustomerDataUpdated",
      "type": "event"
    },
    {
      "anonymous": false,
      "inputs": [
        {
          "indexed": false,
          "internalType": "string",
          "name": "reqId",
          "type": "string"
        },
        {
          "indexed": false,
          "internalType": "address",
          "name": "customerId",
          "type": "address"
        },
        {
          "indexed": false,
          "internalType": "address",
          "name": "bankId",
          "type": "address"
        },
        {
          "indexed": false,
          "internalType": "enum Types.DataHashStatus",
          "name": "status",
          "type": "uint8"
        }
      ],
      "name": "DataHashPermissionChanged",
      "type": "event"
    },
    {
      "anonymous": false,
      "inputs": [
        {
          "indexed": false,
          "internalType": "address",
          "name": "id_",
          "type": "address"
        },
        {
          "indexed": false,
          "internalType": "string",
          "name": "customerName",
          "type": "string"
        },
        {
          "indexed": false,
          "internalType": "string",
          "name": "dataHash",
          "type": "string"
        }
      ],
      "name": "DataHashUpdated",
      "type": "event"
    },
    {
      "anonymous": false,
      "inputs": [
        {
          "indexed": false,
          "internalType": "string",
          "name": "reqId",
          "type": "string"
        },
        {
          "indexed": false,
          "internalType": "string",
          "name": "bankName",
          "type": "string"
        },
        {
          "indexed": false,
          "internalType": "string",
          "name": "customerName",
          "type": "string"
        }
      ],
      "name": "KycReRequested",
      "type": "event"
    },
    {
      "anonymous": false,
      "inputs": [
        {
          "indexed": false,
          "internalType": "string",
          "name": "reqId",
          "type": "string"
        },
        {
          "indexed": false,
          "internalType": "string",
          "name": "bankName",
          "type": "string"
        },
        {
          "indexed": false,
          "internalType": "string",
          "name": "customerName",
          "type": "string"
        }
      ],
      "name": "KycRequestAdded",
      "type": "event"
    },
    {
      "anonymous": false,
      "inputs": [
        {
          "indexed": false,
          "internalType": "string",
          "name": "reqId",
          "type": "string"
        },
        {
          "indexed": false,
          "internalType": "address",
          "name": "customerId",
          "type": "address"
        },
        {
          "indexed": false,
          "internalType": "address",
          "name": "bankId",
          "type": "address"
        },
        {
          "indexed": false,
          "internalType": "enum Types.KycStatus",
          "name": "status",
          "type": "uint8"
        }
      ],
      "name": "KycStatusChanged",
      "type": "event"
    },
    {
      "inputs": [
        {
          "internalType": "address",
          "name": "",
          "type": "address"
        }
      ],
      "name": "verification",
      "outputs": [
        {
          "internalType": "bool",
          "name": "",
          "type": "bool"
        }
      ],
      "stateMutability": "view",
      "type": "function",
      "constant": true
    },
    {
      "inputs": [
        {
          "internalType": "address",
          "name": "_address",
          "type": "address"
        }
      ],
      "name": "addAddress",
      "outputs": [],
      "stateMutability": "nonpayable",
      "type": "function"
    },
    {
      "inputs": [
        {
          "internalType": "address",
          "name": "_address",
          "type": "address"
        }
      ],
      "name": "checkAddress",
      "outputs": [
        {
          "internalType": "bool",
          "name": "",
          "type": "bool"
        }
      ],
      "stateMutability": "view",
      "type": "function",
      "constant": true
    },
    {
      "inputs": [
        {
          "internalType": "uint256",
          "name": "pageNumber",
          "type": "uint256"
        }
      ],
      "name": "getAllBanks",
      "outputs": [
        {
          "internalType": "uint256",
          "name": "totalPages",
          "type": "uint256"
        },
        {
          "components": [
            {
              "internalType": "string",
              "name": "name",
              "type": "string"
            },
            {
              "internalType": "string",
              "name": "email",
              "type": "string"
            },
            {
              "internalType": "address",
              "name": "id_",
              "type": "address"
            },
            {
              "internalType": "string",
              "name": "ifscCode",
              "type": "string"
            },
            {
              "internalType": "uint16",
              "name": "kycCount",
              "type": "uint16"
            },
            {
              "internalType": "enum Types.BankStatus",
              "name": "status",
              "type": "uint8"
            }
          ],
          "internalType": "struct Types.Bank[]",
          "name": "",
          "type": "tuple[]"
        }
      ],
      "stateMutability": "view",
      "type": "function",
      "constant": true
    },
    {
      "inputs": [
        {
          "components": [
            {
              "internalType": "string",
              "name": "name",
              "type": "string"
            },
            {
              "internalType": "string",
              "name": "email",
              "type": "string"
            },
            {
              "internalType": "address",
              "name": "id_",
              "type": "address"
            },
            {
              "internalType": "string",
              "name": "ifscCode",
              "type": "string"
            },
            {
              "internalType": "uint16",
              "name": "kycCount",
              "type": "uint16"
            },
            {
              "internalType": "enum Types.BankStatus",
              "name": "status",
              "type": "uint8"
            }
          ],
          "internalType": "struct Types.Bank",
          "name": "bank_",
          "type": "tuple"
        }
      ],
      "name": "addBank",
      "outputs": [],
      "stateMutability": "nonpayable",
      "type": "function"
    },
    {
      "inputs": [
        {
          "internalType": "address",
          "name": "id_",
          "type": "address"
        },
        {
          "internalType": "string",
          "name": "email_",
          "type": "string"
        },
        {
          "internalType": "string",
          "name": "name_",
          "type": "string"
        }
      ],
      "name": "updateBankDetails",
      "outputs": [],
      "stateMutability": "nonpayable",
      "type": "function"
    },
    {
      "inputs": [
        {
          "internalType": "address",
          "name": "id_",
          "type": "address"
        },
        {
          "internalType": "bool",
          "name": "makeActive_",
          "type": "bool"
        }
      ],
      "name": "activateDeactivateBank",
      "outputs": [],
      "stateMutability": "nonpayable",
      "type": "function"
    },
    {
      "inputs": [
        {
          "internalType": "uint256",
          "name": "pageNumber",
          "type": "uint256"
        }
      ],
      "name": "getCustomersOfBank",
      "outputs": [
        {
          "internalType": "uint256",
          "name": "totalPages",
          "type": "uint256"
        },
        {
          "components": [
            {
              "internalType": "string",
              "name": "id_",
              "type": "string"
            },
            {
              "internalType": "address",
              "name": "userId_",
              "type": "address"
            },
            {
              "internalType": "string",
              "name": "customerName",
              "type": "string"
            },
            {
              "internalType": "address",
              "name": "bankId_",
              "type": "address"
            },
            {
              "internalType": "string",
              "name": "bankName",
              "type": "string"
            },
            {
              "internalType": "string",
              "name": "dataHash",
              "type": "string"
            },
            {
              "internalType": "uint256",
              "name": "updatedOn",
              "type": "uint256"
            },
            {
              "internalType": "enum Types.KycStatus",
              "name": "status",
              "type": "uint8"
            },
            {
              "internalType": "enum Types.DataHashStatus",
              "name": "dataRequest",
              "type": "uint8"
            },
            {
              "internalType": "string",
              "name": "additionalNotes",
              "type": "string"
            }
          ],
          "internalType": "struct Types.KycRequest[]",
          "name": "",
          "type": "tuple[]"
        }
      ],
      "stateMutability": "view",
      "type": "function",
      "constant": true
    },
    {
      "inputs": [
        {
          "components": [
            {
              "internalType": "string",
              "name": "name",
              "type": "string"
            },
            {
              "internalType": "string",
              "name": "email",
              "type": "string"
            },
            {
              "internalType": "uint256",
              "name": "mobileNumber",
              "type": "uint256"
            },
            {
              "internalType": "address",
              "name": "id_",
              "type": "address"
            },
            {
              "internalType": "address",
              "name": "kycVerifiedBy",
              "type": "address"
            },
            {
              "internalType": "string",
              "name": "dataHash",
              "type": "string"
            },
            {
              "internalType": "uint256",
              "name": "dataUpdatedOn",
              "type": "uint256"
            }
          ],
          "internalType": "struct Types.Customer",
          "name": "customer_",
          "type": "tuple"
        },
        {
          "internalType": "uint256",
          "name": "currentTime_",
          "type": "uint256"
        },
        {
          "internalType": "string",
          "name": "notes_",
          "type": "string"
        }
      ],
      "name": "addKycRequest",
      "outputs": [],
      "stateMutability": "nonpayable",
      "type": "function"
    },
    {
      "inputs": [
        {
          "internalType": "address",
          "name": "id_",
          "type": "address"
        },
        {
          "internalType": "string",
          "name": "notes_",
          "type": "string"
        }
      ],
      "name": "reRequestForKycRequest",
      "outputs": [],
      "stateMutability": "nonpayable",
      "type": "function"
    },
    {
      "inputs": [
        {
          "internalType": "address",
          "name": "userId_",
          "type": "address"
        },
        {
          "internalType": "bool",
          "name": "verified_",
          "type": "bool"
        },
        {
          "internalType": "string",
          "name": "note_",
          "type": "string"
        }
      ],
      "name": "updateKycVerification",
      "outputs": [],
      "stateMutability": "nonpayable",
      "type": "function"
    },
    {
      "inputs": [
        {
          "internalType": "address",
          "name": "id_",
          "type": "address"
        }
      ],
      "name": "searchCustomers",
      "outputs": [
        {
          "internalType": "bool",
          "name": "",
          "type": "bool"
        },
        {
          "components": [
            {
              "internalType": "string",
              "name": "name",
              "type": "string"
            },
            {
              "internalType": "string",
              "name": "email",
              "type": "string"
            },
            {
              "internalType": "uint256",
              "name": "mobileNumber",
              "type": "uint256"
            },
            {
              "internalType": "address",
              "name": "id_",
              "type": "address"
            },
            {
              "internalType": "address",
              "name": "kycVerifiedBy",
              "type": "address"
            },
            {
              "internalType": "string",
              "name": "dataHash",
              "type": "string"
            },
            {
              "internalType": "uint256",
              "name": "dataUpdatedOn",
              "type": "uint256"
            }
          ],
          "internalType": "struct Types.Customer",
          "name": "",
          "type": "tuple"
        },
        {
          "components": [
            {
              "internalType": "string",
              "name": "id_",
              "type": "string"
            },
            {
              "internalType": "address",
              "name": "userId_",
              "type": "address"
            },
            {
              "internalType": "string",
              "name": "customerName",
              "type": "string"
            },
            {
              "internalType": "address",
              "name": "bankId_",
              "type": "address"
            },
            {
              "internalType": "string",
              "name": "bankName",
              "type": "string"
            },
            {
              "internalType": "string",
              "name": "dataHash",
              "type": "string"
            },
            {
              "internalType": "uint256",
              "name": "updatedOn",
              "type": "uint256"
            },
            {
              "internalType": "enum Types.KycStatus",
              "name": "status",
              "type": "uint8"
            },
            {
              "internalType": "enum Types.DataHashStatus",
              "name": "dataRequest",
              "type": "uint8"
            },
            {
              "internalType": "string",
              "name": "additionalNotes",
              "type": "string"
            }
          ],
          "internalType": "struct Types.KycRequest",
          "name": "",
          "type": "tuple"
        }
      ],
      "stateMutability": "view",
      "type": "function",
      "constant": true
    },
    {
      "inputs": [
        {
          "internalType": "uint256",
          "name": "pageNumber",
          "type": "uint256"
        }
      ],
      "name": "getBankRequests",
      "outputs": [
        {
          "internalType": "uint256",
          "name": "totalPages",
          "type": "uint256"
        },
        {
          "components": [
            {
              "internalType": "string",
              "name": "id_",
              "type": "string"
            },
            {
              "internalType": "address",
              "name": "userId_",
              "type": "address"
            },
            {
              "internalType": "string",
              "name": "customerName",
              "type": "string"
            },
            {
              "internalType": "address",
              "name": "bankId_",
              "type": "address"
            },
            {
              "internalType": "string",
              "name": "bankName",
              "type": "string"
            },
            {
              "internalType": "string",
              "name": "dataHash",
              "type": "string"
            },
            {
              "internalType": "uint256",
              "name": "updatedOn",
              "type": "uint256"
            },
            {
              "internalType": "enum Types.KycStatus",
              "name": "status",
              "type": "uint8"
            },
            {
              "internalType": "enum Types.DataHashStatus",
              "name": "dataRequest",
              "type": "uint8"
            },
            {
              "internalType": "string",
              "name": "additionalNotes",
              "type": "string"
            }
          ],
          "internalType": "struct Types.KycRequest[]",
          "name": "",
          "type": "tuple[]"
        }
      ],
      "stateMutability": "view",
      "type": "function",
      "constant": true
    },
    {
      "inputs": [
        {
          "internalType": "address",
          "name": "bankId_",
          "type": "address"
        },
        {
          "internalType": "bool",
          "name": "approve_",
          "type": "bool"
        },
        {
          "internalType": "string",
          "name": "note_",
          "type": "string"
        }
      ],
      "name": "actionOnKycRequest",
      "outputs": [],
      "stateMutability": "nonpayable",
      "type": "function"
    },
    {
      "inputs": [
        {
          "internalType": "string",
          "name": "name_",
          "type": "string"
        },
        {
          "internalType": "string",
          "name": "email_",
          "type": "string"
        },
        {
          "internalType": "uint256",
          "name": "mobile_",
          "type": "uint256"
        }
      ],
      "name": "updateProfile",
      "outputs": [],
      "stateMutability": "nonpayable",
      "type": "function"
    },
    {
      "inputs": [
        {
          "internalType": "string",
          "name": "hash_",
          "type": "string"
        },
        {
          "internalType": "uint256",
          "name": "currentTime_",
          "type": "uint256"
        }
      ],
      "name": "updateDatahash",
      "outputs": [],
      "stateMutability": "nonpayable",
      "type": "function"
    },
    {
      "inputs": [
        {
          "internalType": "address",
          "name": "bankId_",
          "type": "address"
        },
        {
          "internalType": "string",
          "name": "notes_",
          "type": "string"
        }
      ],
      "name": "removerDatahashPermission",
      "outputs": [],
      "stateMutability": "nonpayable",
      "type": "function"
    },
    {
      "inputs": [
        {
          "internalType": "address",
          "name": "bankId_",
          "type": "address"
        }
      ],
      "name": "searchBanks",
      "outputs": [
        {
          "internalType": "bool",
          "name": "",
          "type": "bool"
        },
        {
          "components": [
            {
              "internalType": "string",
              "name": "name",
              "type": "string"
            },
            {
              "internalType": "string",
              "name": "email",
              "type": "string"
            },
            {
              "internalType": "address",
              "name": "id_",
              "type": "address"
            },
            {
              "internalType": "string",
              "name": "ifscCode",
              "type": "string"
            },
            {
              "internalType": "uint16",
              "name": "kycCount",
              "type": "uint16"
            },
            {
              "internalType": "enum Types.BankStatus",
              "name": "status",
              "type": "uint8"
            }
          ],
          "internalType": "struct Types.Bank",
          "name": "",
          "type": "tuple"
        },
        {
          "components": [
            {
              "internalType": "string",
              "name": "id_",
              "type": "string"
            },
            {
              "internalType": "address",
              "name": "userId_",
              "type": "address"
            },
            {
              "internalType": "string",
              "name": "customerName",
              "type": "string"
            },
            {
              "internalType": "address",
              "name": "bankId_",
              "type": "address"
            },
            {
              "internalType": "string",
              "name": "bankName",
              "type": "string"
            },
            {
              "internalType": "string",
              "name": "dataHash",
              "type": "string"
            },
            {
              "internalType": "uint256",
              "name": "updatedOn",
              "type": "uint256"
            },
            {
              "internalType": "enum Types.KycStatus",
              "name": "status",
              "type": "uint8"
            },
            {
              "internalType": "enum Types.DataHashStatus",
              "name": "dataRequest",
              "type": "uint8"
            },
            {
              "internalType": "string",
              "name": "additionalNotes",
              "type": "string"
            }
          ],
          "internalType": "struct Types.KycRequest",
          "name": "",
          "type": "tuple"
        }
      ],
      "stateMutability": "view",
      "type": "function",
      "constant": true
    },
    {
      "inputs": [],
      "name": "whoAmI",
      "outputs": [
        {
          "components": [
            {
              "internalType": "string",
              "name": "name",
              "type": "string"
            },
            {
              "internalType": "string",
              "name": "email",
              "type": "string"
            },
            {
              "internalType": "address",
              "name": "id_",
              "type": "address"
            },
            {
              "internalType": "enum Types.Role",
              "name": "role",
              "type": "uint8"
            },
            {
              "internalType": "enum Types.BankStatus",
              "name": "status",
              "type": "uint8"
            }
          ],
          "internalType": "struct Types.User",
          "name": "",
          "type": "tuple"
        }
      ],
      "stateMutability": "view",
      "type": "function",
      "constant": true
    },
    {
      "inputs": [
        {
          "internalType": "address",
          "name": "id_",
          "type": "address"
        }
      ],
      "name": "getCustomerDetails",
      "outputs": [
        {
          "components": [
            {
              "internalType": "string",
              "name": "name",
              "type": "string"
            },
            {
              "internalType": "string",
              "name": "email",
              "type": "string"
            },
            {
              "internalType": "uint256",
              "name": "mobileNumber",
              "type": "uint256"
            },
            {
              "internalType": "address",
              "name": "id_",
              "type": "address"
            },
            {
              "internalType": "address",
              "name": "kycVerifiedBy",
              "type": "address"
            },
            {
              "internalType": "string",
              "name": "dataHash",
              "type": "string"
            },
            {
              "internalType": "uint256",
              "name": "dataUpdatedOn",
              "type": "uint256"
            }
          ],
          "internalType": "struct Types.Customer",
          "name": "",
          "type": "tuple"
        }
      ],
      "stateMutability": "view",
      "type": "function",
      "constant": true
    },
    {
      "inputs": [
        {
          "internalType": "address",
          "name": "id_",
          "type": "address"
        }
      ],
      "name": "getBankDetails",
      "outputs": [
        {
          "components": [
            {
              "internalType": "string",
              "name": "name",
              "type": "string"
            },
            {
              "internalType": "string",
              "name": "email",
              "type": "string"
            },
            {
              "internalType": "address",
              "name": "id_",
              "type": "address"
            },
            {
              "internalType": "string",
              "name": "ifscCode",
              "type": "string"
            },
            {
              "internalType": "uint16",
              "name": "kycCount",
              "type": "uint16"
            },
            {
              "internalType": "enum Types.BankStatus",
              "name": "status",
              "type": "uint8"
            }
          ],
          "internalType": "struct Types.Bank",
          "name": "",
          "type": "tuple"
        }
      ],
      "stateMutability": "view",
      "type": "function",
      "constant": true
    }
  ],
  "bytecode": "0x60806040523480156200001157600080fd5b5060405162005bcf38038062005bcf83398101604081905262000034916200030c565b600480546001600160a01b031916339081179091556040805160a081018252848152602080820185905281830184905260006060830181905260808301819052938452600681529190922082518051849362000095928492910190620001b3565b506020828101518051620000b09260018501920190620001b3565b506040820151600280830180546001600160a01b039093166001600160a01b031984168117825560608601519391926001600160a81b03199092161790600160a01b9084908111156200011357634e487b7160e01b600052602160045260246000fd5b0217905550608082015160028201805460ff60a81b1916600160a81b8360018111156200015057634e487b7160e01b600052602160045260246000fd5b021790555050600454600580546001810182556000919091527f036b6384b5eca791c62761152d0c79bb0604c104a5fb6f4eb0703f3154bb3db00180546001600160a01b0319166001600160a01b0390921691909117905550620003c692505050565b828054620001c19062000373565b90600052602060002090601f016020900481019282620001e5576000855562000230565b82601f106200020057805160ff191683800117855562000230565b8280016001018555821562000230579182015b828111156200023057825182559160200191906001019062000213565b506200023e92915062000242565b5090565b5b808211156200023e576000815560010162000243565b600082601f8301126200026a578081fd5b81516001600160401b0380821115620002875762000287620003b0565b604051601f8301601f19908116603f01168101908282118183101715620002b257620002b2620003b0565b81604052838152602092508683858801011115620002ce578485fd5b8491505b83821015620002f15785820183015181830184015290820190620002d2565b838211156200030257848385830101525b9695505050505050565b600080604083850312156200031f578182fd5b82516001600160401b038082111562000336578384fd5b620003448683870162000259565b935060208501519150808211156200035a578283fd5b50620003698582860162000259565b9150509250929050565b600181811c908216806200038857607f821691505b60208210811415620003aa57634e487b7160e01b600052602260045260246000fd5b50919050565b634e487b7160e01b600052604160045260246000fd5b6157f980620003d66000396000f3fe608060405234801561001057600080fd5b50600436106101375760003560e01c80634d82d8e8116100b857806392b4e1321161007c57806392b4e132146102f2578063b374a7dd14610315578063baa2b9fd14610328578063da91254c14610349578063dbc671d01461035e578063dc57d07e1461037157600080fd5b80634d82d8e8146102765780635f4d6ddf1461029757806377fa069c146102b95780637c1d6197146102cc5780638915fb0c146102df57600080fd5b80632ce23acb116100ff5780632ce23acb146101e957806334b524111461020b578063369ba32b1461021e57806338eada1c146102315780633f2c0e961461026357600080fd5b80630c60f83d1461013c5780630ddcfe8e1461016557806315101e02146101a15780631bdd5a0f146101c15780632283db9c146101d6575b600080fd5b61014f61014a366004614ad5565b610384565b60405161015c91906154c4565b60405180910390f35b610191610173366004614ad5565b6001600160a01b03166000908152600a602052604090205460ff1690565b604051901515815260200161015c565b6101b46101af366004614ad5565b6104e4565b60405161015c91906154b1565b6101d46101cf366004614b84565b6105d1565b005b6101d46101e4366004614ce4565b610850565b6101fc6101f7366004614ad5565b6109f4565b60405161015c939291906152ba565b6101d4610219366004614b28565b61106b565b6101d461022c366004614bd0565b611329565b6101d461023f366004614ad5565b6001600160a01b03166000908152600a60205260409020805460ff19166001179055565b6101d4610271366004614b84565b6113bd565b610289610284366004614ec3565b611577565b60405161015c92919061554c565b6102aa6102a5366004614ad5565b6115b9565b60405161015c939291906152e7565b6101d46102c7366004614dc6565b611bd6565b6101d46102da366004614c37565b612174565b6101d46102ed366004614ca1565b612267565b610191610300366004614ad5565b600a6020526000908152604090205460ff1681565b6101d4610323366004614af6565b6124eb565b61033b610336366004614ec3565b612571565b60405161015c9291906155b5565b610351612663565b60405161015c91906154d7565b61033b61036c366004614ec3565b6128dd565b6101d461037f366004614b28565b61298d565b61038c614812565b816001600160a01b0381166103bc5760405162461bcd60e51b81526004016103b3906153b8565b60405180910390fd5b6001600160a01b03818116600090815260016020526040902060030154166103f65760405162461bcd60e51b81526004016103b390615407565b6001600160a01b03811660009081526001602081905260409091200180546104b59190610422906156d2565b80601f016020809104026020016040519081016040528092919081815260200182805461044e906156d2565b801561049b5780601f106104705761010080835404028352916020019161049b565b820191906000526020600020905b81548152906001019060200180831161047e57829003601f168201915b505050505060405180602001604052806000815250612bb5565b156104d25760405162461bcd60e51b81526004016103b3906153dd565b6104db83612c0f565b91505b50919050565b6104ec614861565b6001600160a01b038083166000908152600360205260409020600201548391166105285760405162461bcd60e51b81526004016103b390615489565b6001600160a01b03808216600081815260036020526040902060020154909116146105655760405162461bcd60e51b81526004016103b390615489565b60006001600160a01b03821660009081526003602052604090206004015462010000900460ff1660018111156105ab57634e487b7160e01b600052602160045260246000fd5b146105c85760405162461bcd60e51b81526004016103b39061545d565b6104db83612e2e565b336000818152600360205260409020600201546001600160a01b03166106095760405162461bcd60e51b81526004016103b390615489565b6001600160a01b03808216600081815260036020526040902060020154909116146106465760405162461bcd60e51b81526004016103b390615489565b60006001600160a01b03821660009081526003602052604090206004015462010000900460ff16600181111561068c57634e487b7160e01b600052602160045260246000fd5b146106a95760405162461bcd60e51b81526004016103b39061545d565b60006106b533856130cf565b90506106c08161310d565b6107005760405162461bcd60e51b815260206004820152601160248201527012d650c81c995c481b9bdd08199bdd5b99607a1b60448201526064016103b3565b61070984613219565b6107465760405162461bcd60e51b815260206004820152600e60248201526d155cd95c881b9bdd08199bdd5b9960921b60448201526064016103b3565b600060078260405161075891906151c3565b908152604051908190036020019020600701805461ff00191661010083600281111561079457634e487b7160e01b600052602160045260246000fd5b0217905550826007826040516107aa91906151c3565b908152602001604051809103902060080190805190602001906107ce929190614893565b507f524a348eaa0159a5bd9d05667fe8d01e3fef50369ae5f27c2ade107c84bfeaf78160078360405161080191906151c3565b908152602001604051809103902060040160078460405161082291906151c3565b90815260200160405180910390206002016040516108429392919061537f565b60405180910390a150505050565b6004546001600160a01b0316331461087a5760405162461bcd60e51b81526004016103b39061542e565b610883816132c2565b6040805160a081018252825181526020808401518183015283830180516001600160a01b0390811684860152600160608501526000608085018190529151168152600682529290922081518051929391926108e19284920190614893565b5060208281015180516108fa9260018501920190614893565b506040820151600280830180546001600160a01b039093166001600160a01b031984168117825560608601519391926001600160a81b03199092161790600160a01b90849081111561095c57634e487b7160e01b600052602160045260246000fd5b0217905550608082015160028201805460ff60a81b1916600160a81b83600181111561099857634e487b7160e01b600052602160045260246000fd5b0217905550505060400151600580546001810182556000919091527f036b6384b5eca791c62761152d0c79bb0604c104a5fb6f4eb0703f3154bb3db00180546001600160a01b0319166001600160a01b03909216919091179055565b60006109fe614861565b610a06614917565b3380610a245760405162461bcd60e51b81526004016103b3906153b8565b6001600160a01b0381811660009081526001602052604090206003015416610a5e5760405162461bcd60e51b81526004016103b390615407565b6001600160a01b0381166000908152600160208190526040909120018054610a8a9190610422906156d2565b15610aa75760405162461bcd60e51b81526004016103b3906153dd565b6001600160a01b03808616600090815260036020526040902060020154869116610ae35760405162461bcd60e51b81526004016103b390615489565b6001600160a01b0380821660008181526003602052604090206002015490911614610b205760405162461bcd60e51b81526004016103b390615489565b60006001600160a01b03821660009081526003602052604090206004015462010000900460ff166001811115610b6657634e487b7160e01b600052602160045260246000fd5b14610b835760405162461bcd60e51b81526004016103b39061545d565b6000610b8d614861565b610b95614917565b33600090815260096020908152604080832080548251818502810185019093528083529192909190830182828015610bf657602002820191906000526020600020905b81546001600160a01b03168152600190910190602001808311610bd8575b5050505050905060005b815181101561105b578a6001600160a01b0316828281518110610c3357634e487b7160e01b600052603260045260246000fd5b60200260200101516001600160a01b031614156110495760019450610c578b612e2e565b93506007610c658c336130cf565b604051610c7291906151c3565b908152602001604051809103902060405180610140016040529081600082018054610c9c906156d2565b80601f0160208091040260200160405190810160405280929190818152602001828054610cc8906156d2565b8015610d155780601f10610cea57610100808354040283529160200191610d15565b820191906000526020600020905b815481529060010190602001808311610cf857829003601f168201915b505050918352505060018201546001600160a01b03166020820152600282018054604090920191610d45906156d2565b80601f0160208091040260200160405190810160405280929190818152602001828054610d71906156d2565b8015610dbe5780601f10610d9357610100808354040283529160200191610dbe565b820191906000526020600020905b815481529060010190602001808311610da157829003601f168201915b505050918352505060038201546001600160a01b03166020820152600482018054604090920191610dee906156d2565b80601f0160208091040260200160405190810160405280929190818152602001828054610e1a906156d2565b8015610e675780601f10610e3c57610100808354040283529160200191610e67565b820191906000526020600020905b815481529060010190602001808311610e4a57829003601f168201915b50505050508152602001600582018054610e80906156d2565b80601f0160208091040260200160405190810160405280929190818152602001828054610eac906156d2565b8015610ef95780601f10610ece57610100808354040283529160200191610ef9565b820191906000526020600020905b815481529060010190602001808311610edc57829003601f168201915b505050918352505060068201546020820152600782015460409091019060ff166002811115610f3857634e487b7160e01b600052602160045260246000fd5b6002811115610f5757634e487b7160e01b600052602160045260246000fd5b81526020016007820160019054906101000a900460ff166002811115610f8d57634e487b7160e01b600052602160045260246000fd5b6002811115610fac57634e487b7160e01b600052602160045260246000fd5b8152602001600882018054610fc0906156d2565b80601f0160208091040260200160405190810160405280929190818152602001828054610fec906156d2565b80156110395780601f1061100e57610100808354040283529160200191611039565b820191906000526020600020905b81548152906001019060200180831161101c57829003601f168201915b505050505081525050925061105b565b8061105381615729565b915050610c00565b5092999198509650945050505050565b33806110895760405162461bcd60e51b81526004016103b3906153b8565b6001600160a01b03818116600090815260016020526040902060030154166110c35760405162461bcd60e51b81526004016103b390615407565b6001600160a01b03811660009081526001602081905260409091200180546110ef9190610422906156d2565b1561110c5760405162461bcd60e51b81526004016103b3906153dd565b6001600160a01b038085166000908152600360205260409020600201548591166111485760405162461bcd60e51b81526004016103b390615489565b6001600160a01b03808216600081815260036020526040902060020154909116146111855760405162461bcd60e51b81526004016103b390615489565b60006001600160a01b03821660009081526003602052604090206004015462010000900460ff1660018111156111cb57634e487b7160e01b600052602160045260246000fd5b146111e85760405162461bcd60e51b81526004016103b39061545d565b60006111f486336130cf565b90506111ff8161310d565b6112475760405162461bcd60e51b81526020600482015260196024820152785573657220646f65736e27742068617665204b59432072657160381b60448201526064016103b3565b600085156112575750600161125b565b5060025b8060078360405161126c91906151c3565b908152604051908190036020019020600701805461ff0019166101008360028111156112a857634e487b7160e01b600052602160045260246000fd5b0217905550846007836040516112be91906151c3565b908152602001604051809103902060080190805190602001906112e2929190614893565b507f9a3f3f9de5ac964f84f08c6124f7b844ffd73de3fd4b472eb59f6b68e5729a81823389846040516113189493929190615302565b60405180910390a150505050505050565b6004546001600160a01b031633146113535760405162461bcd60e51b81526004016103b39061542e565b61135e8383836134a0565b6001600160a01b0383166000908152600660209081526040909120825161138792840190614893565b506001600160a01b038316600090815260066020908152604090912083516113b792600190920191850190614893565b50505050565b33806113db5760405162461bcd60e51b81526004016103b3906153b8565b6001600160a01b03818116600090815260016020526040902060030154166114155760405162461bcd60e51b81526004016103b390615407565b6001600160a01b03811660009081526001602081905260409091200180546114419190610422906156d2565b1561145e5760405162461bcd60e51b81526004016103b3906153dd565b600061146a84336130cf565b90506114758161310d565b6114b85760405162461bcd60e51b815260206004820152601460248201527314195c9b5a5cdcda5bdb881b9bdd08199bdd5b9960621b60448201526064016103b3565b60026007826040516114ca91906151c3565b908152604051908190036020019020600701805461ff00191661010083600281111561150657634e487b7160e01b600052602160045260246000fd5b02179055508260078260405161151c91906151c3565b90815260200160405180910390206008019080519060200190611540929190614893565b507f9a3f3f9de5ac964f84f08c6124f7b844ffd73de3fd4b472eb59f6b68e5729a8181338660026040516108429493929190615302565b6004546000906060906001600160a01b031633146115a75760405162461bcd60e51b81526004016103b39061542e565b6115b083613574565b91509150915091565b60006115c3614812565b6115cb614917565b836001600160a01b0381166115f25760405162461bcd60e51b81526004016103b3906153b8565b6001600160a01b038181166000908152600160205260409020600301541661162c5760405162461bcd60e51b81526004016103b390615407565b6001600160a01b03811660009081526001602081905260409091200180546116589190610422906156d2565b156116755760405162461bcd60e51b81526004016103b3906153dd565b336000818152600360205260409020600201546001600160a01b03166116ad5760405162461bcd60e51b81526004016103b390615489565b6001600160a01b03808216600081815260036020526040902060020154909116146116ea5760405162461bcd60e51b81526004016103b390615489565b60006001600160a01b03821660009081526003602052604090206004015462010000900460ff16600181111561173057634e487b7160e01b600052602160045260246000fd5b1461174d5760405162461bcd60e51b81526004016103b39061545d565b6000611757614812565b61175f614917565b3360009081526008602090815260409182902080548351818402810184019094528084526117d0938d93909291908301828280156117c657602002820191906000526020600020905b81546001600160a01b031681526001909101906020018083116117a8575b5050505050613969565b90935091508215611bc75760076117e7338b6130cf565b6040516117f491906151c3565b90815260200160405180910390206040518061014001604052908160008201805461181e906156d2565b80601f016020809104026020016040519081016040528092919081815260200182805461184a906156d2565b80156118975780601f1061186c57610100808354040283529160200191611897565b820191906000526020600020905b81548152906001019060200180831161187a57829003601f168201915b505050918352505060018201546001600160a01b031660208201526002820180546040909201916118c7906156d2565b80601f01602080910402602001604051908101604052809291908181526020018280546118f3906156d2565b80156119405780601f1061191557610100808354040283529160200191611940565b820191906000526020600020905b81548152906001019060200180831161192357829003601f168201915b505050918352505060038201546001600160a01b03166020820152600482018054604090920191611970906156d2565b80601f016020809104026020016040519081016040528092919081815260200182805461199c906156d2565b80156119e95780601f106119be576101008083540402835291602001916119e9565b820191906000526020600020905b8154815290600101906020018083116119cc57829003601f168201915b50505050508152602001600582018054611a02906156d2565b80601f0160208091040260200160405190810160405280929190818152602001828054611a2e906156d2565b8015611a7b5780601f10611a5057610100808354040283529160200191611a7b565b820191906000526020600020905b815481529060010190602001808311611a5e57829003601f168201915b505050918352505060068201546020820152600782015460409091019060ff166002811115611aba57634e487b7160e01b600052602160045260246000fd5b6002811115611ad957634e487b7160e01b600052602160045260246000fd5b81526020016007820160019054906101000a900460ff166002811115611b0f57634e487b7160e01b600052602160045260246000fd5b6002811115611b2e57634e487b7160e01b600052602160045260246000fd5b8152602001600882018054611b42906156d2565b80601f0160208091040260200160405190810160405280929190818152602001828054611b6e906156d2565b8015611bbb5780601f10611b9057610100808354040283529160200191611bbb565b820191906000526020600020905b815481529060010190602001808311611b9e57829003601f168201915b50505050508152505090505b91989097509095509350505050565b336000818152600360205260409020600201546001600160a01b0316611c0e5760405162461bcd60e51b81526004016103b390615489565b6001600160a01b0380821660008181526003602052604090206002015490911614611c4b5760405162461bcd60e51b81526004016103b390615489565b60006001600160a01b03821660009081526003602052604090206004015462010000900460ff166001811115611c9157634e487b7160e01b600052602160045260246000fd5b14611cae5760405162461bcd60e51b81526004016103b39061545d565b6000611cbe3386606001516130cf565b9050611cc98161310d565b15611d0a5760405162461bcd60e51b81526020600482015260116024820152702ab9b2b9103430b21035bcb1903932b89760791b60448201526064016103b3565b60405180610140016040528082815260200186606001516001600160a01b0316815260200186600001518152602001336001600160a01b03168152602001611d5133612e2e565b51815260a0870151602082015260408101869052606001600081526020016000815260200184815250600782604051611d8a91906151c3565b90815260200160405180910390206000820151816000019080519060200190611db4929190614893565b506020828101516001830180546001600160a01b0319166001600160a01b0390921691909117905560408301518051611df39260028501920190614893565b5060608201516003820180546001600160a01b0319166001600160a01b0390921691909117905560808201518051611e35916004840191602090910190614893565b5060a08201518051611e51916005840191602090910190614893565b5060c0820151600682015560e082015160078201805460ff19166001836002811115611e8d57634e487b7160e01b600052602160045260246000fd5b0217905550610100828101516007830180549192909161ff00191690836002811115611ec957634e487b7160e01b600052602160045260246000fd5b02179055506101208201518051611eea916008840191602090910190614893565b505033600081815260086020908152604080832060608b0180518254600181810185559387528587200180546001600160a01b039283166001600160a01b031991821617909155915116855260098452828520805492830181558552929093209092018054909116909217909155517f1c9ca7942139211bfb75ec030ee95c38e96f4eb7d755b28d3eede55f8d5eb86d91508290600790611f8c9083906151c3565b9081526040519081900360200181208851611fad9392600490920191615346565b60405180910390a1611fc28560600151613219565b61216d57611fcf85613c11565b6040518060a00160405280866000015181526020018660200151815260200186606001516001600160a01b0316815260200160028081111561202157634e487b7160e01b600052602160045260246000fd5b81526000602091820181905260608801516001600160a01b03168152600682526040902082518051919261205a92849290910190614893565b5060208281015180516120739260018501920190614893565b506040820151600280830180546001600160a01b039093166001600160a01b031984168117825560608601519391926001600160a81b03199092161790600160a01b9084908111156120d557634e487b7160e01b600052602160045260246000fd5b0217905550608082015160028201805460ff60a81b1916600160a81b83600181111561211157634e487b7160e01b600052602160045260246000fd5b021790555050506060850151600580546001810182556000919091527f036b6384b5eca791c62761152d0c79bb0604c104a5fb6f4eb0703f3154bb3db00180546001600160a01b0319166001600160a01b039092169190911790555b5050505050565b33806121925760405162461bcd60e51b81526004016103b3906153b8565b6001600160a01b03818116600090815260016020526040902060030154166121cc5760405162461bcd60e51b81526004016103b390615407565b6001600160a01b03811660009081526001602081905260409091200180546121f89190610422906156d2565b156122155760405162461bcd60e51b81526004016103b3906153dd565b612220848484613d57565b336000908152600660209081526040909120855161224092870190614893565b50336000908152600660209081526040909120845161216d92600190920191860190614893565b33806122855760405162461bcd60e51b81526004016103b3906153b8565b6001600160a01b03818116600090815260016020526040902060030154166122bf5760405162461bcd60e51b81526004016103b390615407565b6001600160a01b03811660009081526001602081905260409091200180546122eb9190610422906156d2565b156123085760405162461bcd60e51b81526004016103b3906153dd565b6123128383613de6565b3360009081526009602090815260408083208054825181850281018501909352808352919290919083018282801561237357602002820191906000526020600020905b81546001600160a01b03168152600190910190602001808311612355575b5050505050905060005b815181101561216d5760006123b98383815181106123ab57634e487b7160e01b600052603260045260246000fd5b6020026020010151336130cf565b90506123c48161310d565b156124d857856007826040516123da91906151c3565b908152602001604051809103902060050190805190602001906123fe929190614893565b508460078260405161241091906151c3565b908152602001604051809103902060060181905550600060078260405161243791906151c3565b908152604051908190036020019020600701805460ff1916600183600281111561247157634e487b7160e01b600052602160045260246000fd5b0217905550604051806040016040528060138152602001725570646174656420616c6c206d7920646f637360681b8152506007826040516124b291906151c3565b908152602001604051809103902060080190805190602001906124d6929190614893565b505b50806124e381615729565b91505061237d565b6004546001600160a01b031633146125155760405162461bcd60e51b81526004016103b39061542e565b61251f8282613e62565b6001600160a01b0383166000908152600660205260409020600201805460ff60a81b1916600160a81b83600181111561256857634e487b7160e01b600052602160045260246000fd5b02179055505050565b3360008181526003602052604081206002015490916060916001600160a01b03166125ae5760405162461bcd60e51b81526004016103b390615489565b6001600160a01b03808216600081815260036020526040902060020154909116146125eb5760405162461bcd60e51b81526004016103b390615489565b60006001600160a01b03821660009081526003602052604090206004015462010000900460ff16600181111561263157634e487b7160e01b600052602160045260246000fd5b1461264e5760405162461bcd60e51b81526004016103b39061545d565b612659846001614049565b9250925050915091565b61266b61499b565b336126aa5760405162461bcd60e51b815260206004820152600f60248201526e53656e64657220496420456d70747960881b60448201526064016103b3565b336000908152600660205260409020600201546001600160a01b03166126e25760405162461bcd60e51b81526004016103b390615407565b3360009081526006602052604090819020815160a0810190925280548290829061270b906156d2565b80601f0160208091040260200160405190810160405280929190818152602001828054612737906156d2565b80156127845780601f1061275957610100808354040283529160200191612784565b820191906000526020600020905b81548152906001019060200180831161276757829003601f168201915b5050505050815260200160018201805461279d906156d2565b80601f01602080910402602001604051908101604052809291908181526020018280546127c9906156d2565b80156128165780601f106127eb57610100808354040283529160200191612816565b820191906000526020600020905b8154815290600101906020018083116127f957829003601f168201915b50505091835250506002828101546001600160a01b0381166020840152604090920191600160a01b900460ff169081111561286157634e487b7160e01b600052602160045260246000fd5b600281111561288057634e487b7160e01b600052602160045260246000fd5b81526020016002820160159054906101000a900460ff1660018111156128b657634e487b7160e01b600052602160045260246000fd5b60018111156128d557634e487b7160e01b600052602160045260246000fd5b905250919050565b6000606033806128ff5760405162461bcd60e51b81526004016103b3906153b8565b6001600160a01b03818116600090815260016020526040902060030154166129395760405162461bcd60e51b81526004016103b390615407565b6001600160a01b03811660009081526001602081905260409091200180546129659190610422906156d2565b156129825760405162461bcd60e51b81526004016103b3906153dd565b612659846000614049565b336000818152600360205260409020600201546001600160a01b03166129c55760405162461bcd60e51b81526004016103b390615489565b6001600160a01b0380821660008181526003602052604090206002015490911614612a025760405162461bcd60e51b81526004016103b390615489565b60006001600160a01b03821660009081526003602052604090206004015462010000900460ff166001811115612a4857634e487b7160e01b600052602160045260246000fd5b14612a655760405162461bcd60e51b81526004016103b39061545d565b6000612a7133866130cf565b9050612a7c8161310d565b612ac45760405162461bcd60e51b81526020600482015260196024820152785573657220646f65736e27742068617665204b59432072657160381b60448201526064016103b3565b60008415612ae657506001612ad83361468d565b612ae1866146fc565b612aea565b5060025b80600783604051612afb91906151c3565b908152604051908190036020019020600701805460ff19166001836002811115612b3557634e487b7160e01b600052602160045260246000fd5b021790555083600783604051612b4b91906151c3565b90815260200160405180910390206008019080519060200190612b6f929190614893565b507f900b83a690e29ff7d6e76e350983afea30403d6c47fe8ce52045fb20074c79a082873384604051612ba59493929190615302565b60405180910390a1505050505050565b600081604051602001612bc891906151c3565b6040516020818303038152906040528051906020012083604051602001612bef91906151c3565b604051602081830303815290604052805190602001201490505b92915050565b612c17614812565b6001600160a01b03821660009081526001602052604090819020815160e08101909252805482908290612c49906156d2565b80601f0160208091040260200160405190810160405280929190818152602001828054612c75906156d2565b8015612cc25780601f10612c9757610100808354040283529160200191612cc2565b820191906000526020600020905b815481529060010190602001808311612ca557829003601f168201915b50505050508152602001600182018054612cdb906156d2565b80601f0160208091040260200160405190810160405280929190818152602001828054612d07906156d2565b8015612d545780601f10612d2957610100808354040283529160200191612d54565b820191906000526020600020905b815481529060010190602001808311612d3757829003601f168201915b50505091835250506002820154602082015260038201546001600160a01b0390811660408301526004830154166060820152600582018054608090920191612d9b906156d2565b80601f0160208091040260200160405190810160405280929190818152602001828054612dc7906156d2565b8015612e145780601f10612de957610100808354040283529160200191612e14565b820191906000526020600020905b815481529060010190602001808311612df757829003601f168201915b505050505081526020016006820154815250509050919050565b612e36614861565b6001600160a01b038216612e7c5760405162461bcd60e51b815260206004820152600d60248201526c42616e6b20496420456d70747960981b60448201526064016103b3565b6001600160a01b03821660009081526003602052604090819020815160c08101909252805482908290612eae906156d2565b80601f0160208091040260200160405190810160405280929190818152602001828054612eda906156d2565b8015612f275780601f10612efc57610100808354040283529160200191612f27565b820191906000526020600020905b815481529060010190602001808311612f0a57829003601f168201915b50505050508152602001600182018054612f40906156d2565b80601f0160208091040260200160405190810160405280929190818152602001828054612f6c906156d2565b8015612fb95780601f10612f8e57610100808354040283529160200191612fb9565b820191906000526020600020905b815481529060010190602001808311612f9c57829003601f168201915b505050918352505060028201546001600160a01b03166020820152600382018054604090920191612fe9906156d2565b80601f0160208091040260200160405190810160405280929190818152602001828054613015906156d2565b80156130625780601f1061303757610100808354040283529160200191613062565b820191906000526020600020905b81548152906001019060200180831161304557829003601f168201915b5050509183525050600482015461ffff8116602083015260409091019062010000900460ff1660018111156130a757634e487b7160e01b600052602160045260246000fd5b60018111156130c657634e487b7160e01b600052602160045260246000fd5b90525092915050565b604080516bffffffffffffffffffffffff19606094851b811660208301529290931b9091166034830152805160288184030181526048909201905290565b60006131288260405180602001604052806000815250612bb5565b156131685760405162461bcd60e51b815260206004820152601060248201526f5265717565737420496420656d70747960801b60448201526064016103b3565b612c0960078360405161317b91906151c3565b9081526040519081900360200190208054613195906156d2565b80601f01602080910402602001604051908101604052809291908181526020018280546131c1906156d2565b801561320e5780601f106131e35761010080835404028352916020019161320e565b820191906000526020600020905b8154815290600101906020018083116131f157829003601f168201915b505050505083612bb5565b60006001600160a01b03821661325f5760405162461bcd60e51b815260206004820152600b60248201526a496420697320656d70747960a81b60448201526064016103b3565b6001600160a01b0382811660009081526001602052604090206003015416158015906132b457506001600160a01b03821660009081526001602081905260409091200180546132b29190610422906156d2565b155b156132bd575060015b919050565b6040808201516001600160a01b0390811660009081526003602052919091206002015416156133215760405162461bcd60e51b815260206004820152600b60248201526a42616e6b2065786973747360a81b60448201526064016103b3565b6040808201516001600160a01b0316600090815260036020908152919020825180518493613353928492910190614893565b50602082810151805161336c9260018501920190614893565b5060408201516002820180546001600160a01b0319166001600160a01b03909216919091179055606082015180516133ae916003840191602090910190614893565b50608082015160048201805461ffff90921661ffff1983168117825560a08501519262ffffff191617620100008360018111156133fb57634e487b7160e01b600052602160045260246000fd5b0217905550505060408181018051600280546001810182556000919091527f405787fa12a823e0f2b7631cc41b3ba8828b3321ca811111fa75cd3aa3bb5ace0180546001600160a01b0319166001600160a01b039092169190911790555182516020840151606085015193517f17ee33cc6a54067d735ee1c9200fc0dc8354b1d7deae9908692bcd90723044b19461349594939291615215565b60405180910390a150565b6001600160a01b03838116600090815260036020526040902060020154166134da5760405162461bcd60e51b81526004016103b390615489565b6001600160a01b0383166000908152600360209081526040909120825161350392840190614893565b506001600160a01b0383166000908152600360209081526040909120835161353392600190920191850190614893565b507fc0e694475d9755514453a459373ded91f1517029faca54000da1c3007ec2c4f9838284604051613567939291906151df565b60405180910390a1505050565b60006060600083116135bb5760405162461bcd60e51b815260206004820152601060248201526f0504e2073686f756c64206265203e20360841b60448201526064016103b3565b60008060008061362587600280548060200260200160405190810160405280929190818152602001828054801561361b57602002820191906000526020600020905b81546001600160a01b031681526001909101906020018083116135fd575b5050505050614772565b935093509350935060008367ffffffffffffffff81111561365657634e487b7160e01b600052604160045260246000fd5b60405190808252806020026020018201604052801561368f57816020015b61367c614861565b8152602001906001900390816136745790505b509050825b8281101561395a5760036000600283815481106136c157634e487b7160e01b600052603260045260246000fd5b60009182526020808320909101546001600160a01b031683528201929092526040908101909120815160c08101909252805482908290613700906156d2565b80601f016020809104026020016040519081016040528092919081815260200182805461372c906156d2565b80156137795780601f1061374e57610100808354040283529160200191613779565b820191906000526020600020905b81548152906001019060200180831161375c57829003601f168201915b50505050508152602001600182018054613792906156d2565b80601f01602080910402602001604051908101604052809291908181526020018280546137be906156d2565b801561380b5780601f106137e05761010080835404028352916020019161380b565b820191906000526020600020905b8154815290600101906020018083116137ee57829003601f168201915b505050918352505060028201546001600160a01b0316602082015260038201805460409092019161383b906156d2565b80601f0160208091040260200160405190810160405280929190818152602001828054613867906156d2565b80156138b45780601f10613889576101008083540402835291602001916138b4565b820191906000526020600020905b81548152906001019060200180831161389757829003601f168201915b5050509183525050600482015461ffff8116602083015260409091019062010000900460ff1660018111156138f957634e487b7160e01b600052602160045260246000fd5b600181111561391857634e487b7160e01b600052602160045260246000fd5b8152505082828151811061393c57634e487b7160e01b600052603260045260246000fd5b6020026020010181905250808061395290615729565b915050613694565b50939793965092945050505050565b6000613973614812565b600061397d614812565b60005b8551811015613c0557866001600160a01b03168682815181106139b357634e487b7160e01b600052603260045260246000fd5b60200260200101516001600160a01b03161415613bf3576001925060016000886001600160a01b03166001600160a01b031681526020019081526020016000206040518060e0016040529081600082018054613a0e906156d2565b80601f0160208091040260200160405190810160405280929190818152602001828054613a3a906156d2565b8015613a875780601f10613a5c57610100808354040283529160200191613a87565b820191906000526020600020905b815481529060010190602001808311613a6a57829003601f168201915b50505050508152602001600182018054613aa0906156d2565b80601f0160208091040260200160405190810160405280929190818152602001828054613acc906156d2565b8015613b195780601f10613aee57610100808354040283529160200191613b19565b820191906000526020600020905b815481529060010190602001808311613afc57829003601f168201915b50505091835250506002820154602082015260038201546001600160a01b0390811660408301526004830154166060820152600582018054608090920191613b60906156d2565b80601f0160208091040260200160405190810160405280929190818152602001828054613b8c906156d2565b8015613bd95780601f10613bae57610100808354040283529160200191613bd9565b820191906000526020600020905b815481529060010190602001808311613bbc57829003601f168201915b505050505081526020016006820154815250509150613c05565b80613bfd81615729565b915050613980565b50909590945092505050565b60608101516001600160a01b03166000908152600160209081526040909120825180518493613c44928492910190614893565b506020828101518051613c5d9260018501920190614893565b506040820151600282015560608201516003820180546001600160a01b039283166001600160a01b031991821617909155608084015160048401805491909316911617905560a08201518051613cbd916005840191602090910190614893565b5060c09190910151600690910155606081018051600080546001810182559080527f290decd9548b62a8d60345a988386fc84ba6bc95484008f6362f93160ef3e5630180546001600160a01b0319166001600160a01b0390921691909117905551815160208301516040517f77eacb4962819f791ebd2750d7be9519622ddcf4c37fe09c6fd33ace5ce32ccb9361349593909290916151df565b3360009081526001602090815260409091208451613d7792860190614893565b503360009081526001602081815260409092208451613d9e93919092019190850190614893565b503360008181526001602052604090819020600201839055517fcfc84fa73e8500b1f994b7616fda16714aa77352defd398c17f8dda41cc921959161356791869086906151df565b3360009081526001602090815260409091208351613e0c92600590920191850190614893565b5033600081815260016020526040908190206006810184905590517f844d9124dad5a413c4b99664397291f93f1e89513cd8c3a68674c050283c556192613e569290918690615296565b60405180910390a15050565b6001600160a01b03828116600090815260036020526040812060020154909116613e9e5760405162461bcd60e51b81526004016103b390615489565b818015613eee575060016001600160a01b03841660009081526003602052604090206004015462010000900460ff166001811115613eec57634e487b7160e01b600052602160045260246000fd5b145b15613f5b576001600160a01b0383166000908152600360205260409081902060048101805462ff00001916905590517fbbb85d77e85c02977b28ba58175443b7d9c020551c53482ea6df5fe2e1cb884391613f4b9186919061526a565b60405180910390a1506000612c09565b81158015613fac575060006001600160a01b03841660009081526003602052604090206004015462010000900460ff166001811115613faa57634e487b7160e01b600052602160045260246000fd5b145b1561401e576001600160a01b0383166000908152600360205260409081902060048101805462ff000019166201000017905590517fe2914c072e85a93716aea3154e8dc2a6d4f9a823930697852b892fe10bd598f89161400e9186919061526a565b60405180910390a1506001612c09565b506001600160a01b03821660009081526003602052604090206004015462010000900460ff16612c09565b60006060600084116140935760405162461bcd60e51b8152602060048201526013602482015272504e2073686f756c64206265203e207a65726f60681b60448201526064016103b3565b60008060008061412288886140b6573360009081526009602052604090206140c6565b3360009081526008602052604090205b80548060200260200160405190810160405280929190818152602001828054801561361b576020028201919060005260206000209081546001600160a01b031681526001909101906020018083116135fd575050505050614772565b935093509350935060008367ffffffffffffffff81111561415357634e487b7160e01b600052604160045260246000fd5b60405190808252806020026020018201604052801561418c57816020015b614179614917565b8152602001906001900390816141715790505b509050825b8281101561467d578861420f5733600090815260096020526040902080546007916141ef91849081106141d457634e487b7160e01b600052603260045260246000fd5b6000918252602090912001546001600160a01b0316336130cf565b6040516141fc91906151c3565b908152602001604051809103902061427d565b33600081815260086020526040902080546007926142619290918590811061424757634e487b7160e01b600052603260045260246000fd5b6000918252602090912001546001600160a01b03166130cf565b60405161426e91906151c3565b90815260200160405180910390205b60405180610140016040529081600082018054614299906156d2565b80601f01602080910402602001604051908101604052809291908181526020018280546142c5906156d2565b80156143125780601f106142e757610100808354040283529160200191614312565b820191906000526020600020905b8154815290600101906020018083116142f557829003601f168201915b505050918352505060018201546001600160a01b03166020820152600282018054604090920191614342906156d2565b80601f016020809104026020016040519081016040528092919081815260200182805461436e906156d2565b80156143bb5780601f10614390576101008083540402835291602001916143bb565b820191906000526020600020905b81548152906001019060200180831161439e57829003601f168201915b505050918352505060038201546001600160a01b031660208201526004820180546040909201916143eb906156d2565b80601f0160208091040260200160405190810160405280929190818152602001828054614417906156d2565b80156144645780601f1061443957610100808354040283529160200191614464565b820191906000526020600020905b81548152906001019060200180831161444757829003601f168201915b5050505050815260200160058201805461447d906156d2565b80601f01602080910402602001604051908101604052809291908181526020018280546144a9906156d2565b80156144f65780601f106144cb576101008083540402835291602001916144f6565b820191906000526020600020905b8154815290600101906020018083116144d957829003601f168201915b505050918352505060068201546020820152600782015460409091019060ff16600281111561453557634e487b7160e01b600052602160045260246000fd5b600281111561455457634e487b7160e01b600052602160045260246000fd5b81526020016007820160019054906101000a900460ff16600281111561458a57634e487b7160e01b600052602160045260246000fd5b60028111156145a957634e487b7160e01b600052602160045260246000fd5b81526020016008820180546145bd906156d2565b80601f01602080910402602001604051908101604052809291908181526020018280546145e9906156d2565b80156146365780601f1061460b57610100808354040283529160200191614636565b820191906000526020600020905b81548152906001019060200180831161461957829003601f168201915b50505050508152505082828151811061465f57634e487b7160e01b600052603260045260246000fd5b6020026020010181905250808061467590615729565b915050614191565b5093989397509295505050505050565b6001600160a01b0381166146b35760405162461bcd60e51b81526004016103b390615489565b6001600160a01b0381166000908152600360205260408120600401805461ffff16916146de83615707565b91906101000a81548161ffff021916908361ffff1602179055505050565b6001600160a01b0381166147465760405162461bcd60e51b8152602060048201526011602482015270437573746f6d657220496420456d70747960781b60448201526064016103b3565b6001600160a01b0316600090815260016020526040902060040180546001600160a01b03191633179055565b6000806000806000601986516147889190615744565b905060198651614798919061565c565b945080156147ae57846147aa81615729565b9550505b601993506147bd60018861568f565b6147c8906019615670565b92506147d5876019615670565b9150848711156147ec576000935060009150614808565b84871480156147fb5750600081115b1561480857809350855191505b5092959194509250565b6040518060e0016040528060608152602001606081526020016000815260200160006001600160a01b0316815260200160006001600160a01b0316815260200160608152602001600081525090565b6040805160c081018252606080825260208201819052600092820183905280820152608081018290529060a082015290565b82805461489f906156d2565b90600052602060002090601f0160209004810192826148c15760008555614907565b82601f106148da57805160ff1916838001178555614907565b82800160010185558215614907579182015b828111156149075782518255916020019190600101906148ec565b506149139291506149f1565b5090565b6040518061014001604052806060815260200160006001600160a01b031681526020016060815260200160006001600160a01b031681526020016060815260200160608152602001600081526020016000600281111561498757634e487b7160e01b600052602160045260246000fd5b815260200160008152602001606081525090565b6040518060a00160405280606081526020016060815260200160006001600160a01b03168152602001600060028111156149e557634e487b7160e01b600052602160045260246000fd5b81526020016000905290565b5b8082111561491357600081556001016149f2565b80356001600160a01b03811681146132bd57600080fd5b803580151581146132bd57600080fd5b8035600281106132bd57600080fd5b600082601f830112614a4c578081fd5b813567ffffffffffffffff80821115614a6757614a6761579a565b604051601f8301601f19908116603f01168101908282118183101715614a8f57614a8f61579a565b81604052838152866020858801011115614aa7578485fd5b8360208701602083013792830160200193909352509392505050565b803561ffff811681146132bd57600080fd5b600060208284031215614ae6578081fd5b614aef82614a06565b9392505050565b60008060408385031215614b08578081fd5b614b1183614a06565b9150614b1f60208401614a1d565b90509250929050565b600080600060608486031215614b3c578081fd5b614b4584614a06565b9250614b5360208501614a1d565b9150604084013567ffffffffffffffff811115614b6e578182fd5b614b7a86828701614a3c565b9150509250925092565b60008060408385031215614b96578182fd5b614b9f83614a06565b9150602083013567ffffffffffffffff811115614bba578182fd5b614bc685828601614a3c565b9150509250929050565b600080600060608486031215614be4578283fd5b614bed84614a06565b9250602084013567ffffffffffffffff80821115614c09578384fd5b614c1587838801614a3c565b93506040860135915080821115614c2a578283fd5b50614b7a86828701614a3c565b600080600060608486031215614c4b578283fd5b833567ffffffffffffffff80821115614c62578485fd5b614c6e87838801614a3c565b94506020860135915080821115614c83578384fd5b50614c9086828701614a3c565b925050604084013590509250925092565b60008060408385031215614cb3578182fd5b823567ffffffffffffffff811115614cc9578283fd5b614cd585828601614a3c565b95602094909401359450505050565b600060208284031215614cf5578081fd5b813567ffffffffffffffff80821115614d0c578283fd5b9083019060c08286031215614d1f578283fd5b614d27615610565b823582811115614d35578485fd5b614d4187828601614a3c565b825250602083013582811115614d55578485fd5b614d6187828601614a3c565b602083015250614d7360408401614a06565b6040820152606083013582811115614d89578485fd5b614d9587828601614a3c565b606083015250614da760808401614ac3565b6080820152614db860a08401614a2d565b60a082015295945050505050565b600080600060608486031215614dda578283fd5b833567ffffffffffffffff80821115614df1578485fd5b9085019060e08288031215614e04578485fd5b614e0c615639565b823582811115614e1a578687fd5b614e2689828601614a3c565b825250602083013582811115614e3a578687fd5b614e4689828601614a3c565b60208301525060408301356040820152614e6260608401614a06565b6060820152614e7360808401614a06565b608082015260a083013582811115614e89578687fd5b614e9589828601614a3c565b60a08301525060c083013560c082015280955050602086013593506040860135915080821115614c2a578283fd5b600060208284031215614ed4578081fd5b5035919050565b60028110614eeb57614eeb615784565b9052565b614eeb816157b0565b60008151808452614f108160208601602086016156a6565b601f01601f19169290920160200192915050565b8054600090600181811c9080831680614f3e57607f831692505b6020808410821415614f5e57634e487b7160e01b86526022600452602486fd5b83885260208801828015614f795760018114614f8a57614fb5565b60ff19871682528282019750614fb5565b60008981526020902060005b87811015614faf57815484820152908601908401614f96565b83019850505b5050505050505092915050565b6000815160c08452614fd760c0850182614ef8565b905060208301518482036020860152614ff08282614ef8565b91505060018060a01b0360408401511660408501526060830151848203606086015261501c8282614ef8565b91505061ffff608084015116608085015260a083015161503f60a0860182614edb565b509392505050565b6000815160e0845261505c60e0850182614ef8565b9050602083015184820360208601526150758282614ef8565b91505060408301516040850152606083015160018060a01b038082166060870152806080860151166080870152505060a083015184820360a08601526150bb8282614ef8565b91505060c083015160c08501528091505092915050565b600061014082518185526150e882860182614ef8565b915050602083015161510560208601826001600160a01b03169052565b506040830151848203604086015261511d8282614ef8565b915050606083015161513a60608601826001600160a01b03169052565b50608083015184820360808601526151528282614ef8565b91505060a083015184820360a086015261516c8282614ef8565b91505060c083015160c085015260e083015161518b60e0860182614eef565b506101008084015161519f82870182614eef565b505061012080840151858303828701526151b98382614ef8565b9695505050505050565b600082516151d58184602087016156a6565b9190910192915050565b6001600160a01b038416815260606020820181905260009061520390830185614ef8565b82810360408401526151b98185614ef8565b6001600160a01b038516815260806020820181905260009061523990830186614ef8565b828103604084015261524b8186614ef8565b9050828103606084015261525f8185614ef8565b979650505050505050565b6001600160a01b038316815260406020820181905260009061528e90830184614f24565b949350505050565b6001600160a01b038416815260606020820181905260009061520390830185614f24565b83151581526060602082015260006152d56060830185614fc2565b82810360408401526151b981856150d2565b83151581526060602082015260006152d56060830185615047565b6080815260006153156080830187614ef8565b6001600160a01b038681166020850152851660408401529050615337836157b0565b82606083015295945050505050565b6060815260006153596060830186614ef8565b828103602084015261536b8186614f24565b905082810360408401526151b98185614ef8565b6060815260006153926060830186614ef8565b82810360208401526153a48186614f24565b905082810360408401526151b98185614f24565b6020808252600b908201526a496420697320456d70747960a81b604082015260600190565b60208082526010908201526f5573657220456d61696c20456d70747960801b604082015260600190565b6020808252600d908201526c5573657220496420456d70747960981b604082015260600190565b60208082526015908201527413db9b1e4818591b5a5b881a5cc8185b1b1bddd959605a1b604082015260600190565b60208082526012908201527142616e6b206973206e6f742061637469766560701b604082015260600190565b6020808252600e908201526d10985b9ac81b9bdd08199bdd5b9960921b604082015260600190565b602081526000614aef6020830184614fc2565b602081526000614aef6020830184615047565b602081526000825160a060208401526154f360c0840182614ef8565b90506020840151601f198483030160408501526155108282614ef8565b91505060018060a01b0360408501511660608401526060840151615533816157b0565b80608085015250608084015161503f60a0850182614edb565b600060408201848352602060408185015281855180845260608601915060608160051b8701019350828701855b828110156155a757605f19888703018452615595868351614fc2565b95509284019290840190600101615579565b509398975050505050505050565b600060408201848352602060408185015281855180845260608601915060608160051b8701019350828701855b828110156155a757605f198887030184526155fe8683516150d2565b955092840192908401906001016155e2565b60405160c0810167ffffffffffffffff811182821017156156335761563361579a565b60405290565b60405160e0810167ffffffffffffffff811182821017156156335761563361579a565b60008261566b5761566b61576e565b500490565b600081600019048311821515161561568a5761568a615758565b500290565b6000828210156156a1576156a1615758565b500390565b60005b838110156156c15781810151838201526020016156a9565b838111156113b75750506000910152565b600181811c908216806156e657607f821691505b602082108114156104de57634e487b7160e01b600052602260045260246000fd5b600061ffff8083168181141561571f5761571f615758565b6001019392505050565b600060001982141561573d5761573d615758565b5060010190565b6000826157535761575361576e565b500690565b634e487b7160e01b600052601160045260246000fd5b634e487b7160e01b600052601260045260246000fd5b634e487b7160e01b600052602160045260246000fd5b634e487b7160e01b600052604160045260246000fd5b600381106157c0576157c0615784565b5056fea2646970667358221220d31261119a9c2924ed74db2e4d54100330dc77e442bb8e483ce06938a8273eac64736f6c63430008040033",
  "immutableReferences": {},
  "source": "// SPDX-License-Identifier: GPL-3.0\r\npragma experimental ABIEncoderV2;\r\npragma solidity >=0.4.25 <0.9.0;\r\n\r\n/** \r\nAssumptions\r\n* Finanicial Institutions - Bank\r\n* Users - Customer\r\n* Super Admin - Admin\r\n*/\r\n\r\nimport \"./Customers.sol\";\r\nimport \"./Banks.sol\";\r\n\r\n/**\r\n * @title KYC\r\n * @author Suresh Konakanchi\r\n * @dev Library for managing KYC process seemlessly using de-centralised system\r\n */\r\ncontract KYC is Customers, Banks {\r\n    address admin;\r\n    address[] internal userList;\r\n\r\n    mapping(address => Types.User) internal users;\r\n    mapping(string => Types.KycRequest) internal kycRequests;\r\n    mapping(address => address[]) internal bankCustomers; // All customers associated to a Bank\r\n    mapping(address => address[]) internal customerbanks; // All banks associated to a Customer\r\n\r\n    mapping(address => bool) public verification;\r\n    function addAddress(address _address) public{\r\n        verification[_address] = true;\r\n    }\r\n\r\n    function checkAddress(address _address) public view returns(bool){\r\n        return verification[_address];\r\n    }\r\n    \r\n    /**\r\n     * @notice Set admin to one who deploy this contract\r\n     * Who will act as the super-admin to add all the financial institutions (banks)\r\n     * @param name_ Name of the admin\r\n     * @param email_ Email of the admin\r\n     */\r\n    constructor(string memory name_, string memory email_) {\r\n        admin = msg.sender;\r\n        Types.User memory usr_ = Types.User({\r\n            name: name_,\r\n            email: email_,\r\n            id_: admin,\r\n            role: Types.Role.Admin,\r\n            status: Types.BankStatus.Active\r\n        });\r\n        users[admin] = usr_;\r\n        userList.push(admin);\r\n    }\r\n\r\n    // Modifiers\r\n\r\n    /**\r\n     * @notice Checks whether the requestor is admin\r\n     */\r\n    modifier isAdmin() {\r\n        require(msg.sender == admin, \"Only admin is allowed\");\r\n        _;\r\n    }\r\n\r\n    // Support functions\r\n\r\n\r\n   \r\n    /**\r\n     * @notice Checks whether the KYC request already exists\r\n     * @param reqId_ Unique Id of the KYC request\r\n     * @return boolean which says request exists or not\r\n     */\r\n    function kycRequestExists(string memory reqId_)\r\n        internal\r\n        view\r\n        returns (bool)\r\n    {\r\n        require(!Helpers.compareStrings(reqId_, \"\"), \"Request Id empty\");\r\n        return Helpers.compareStrings(kycRequests[reqId_].id_, reqId_);\r\n    }\r\n\r\n    /**\r\n     * @notice All kyc requests. Data will be sent in pages to avoid the more gas fee\r\n     * @param pageNumber page number for which data is needed (1..2..3....n)\r\n     * @param isForBank List needed for bank or for customer\r\n     * @return totalPages Total pages available\r\n     * @return KycRequest[] List of KYC requests in the current page\r\n     */\r\n    function getKYCRequests(uint256 pageNumber, bool isForBank)\r\n        internal\r\n        view\r\n        returns (uint256 totalPages, Types.KycRequest[] memory)\r\n    {\r\n        require(pageNumber > 0, \"PN should be > zero\");\r\n        (\r\n            uint256 pages,\r\n            uint256 pageLength_,\r\n            uint256 startIndex_,\r\n            uint256 endIndex_\r\n        ) = Helpers.getIndexes(\r\n                pageNumber,\r\n                isForBank\r\n                    ? bankCustomers[msg.sender]\r\n                    : customerbanks[msg.sender]\r\n            );\r\n        Types.KycRequest[] memory list_ = new Types.KycRequest[](pageLength_);\r\n        for (uint256 i = startIndex_; i < endIndex_; i++)\r\n            list_[i] = isForBank\r\n                ? kycRequests[\r\n                    Helpers.append(msg.sender, bankCustomers[msg.sender][i])\r\n                ]\r\n                : kycRequests[\r\n                    Helpers.append(customerbanks[msg.sender][i], msg.sender)\r\n                ];\r\n        return (pages, list_);\r\n    }\r\n\r\n    // Events\r\n\r\n    event KycRequestAdded(string reqId, string bankName, string customerName);\r\n    event KycReRequested(string reqId, string bankName, string customerName);\r\n    event KycStatusChanged(\r\n        string reqId,\r\n        address customerId,\r\n        address bankId,\r\n        Types.KycStatus status\r\n    );\r\n    event DataHashPermissionChanged(\r\n        string reqId,\r\n        address customerId,\r\n        address bankId,\r\n        Types.DataHashStatus status\r\n    );\r\n\r\n    // Admin Interface\r\n\r\n    /**\r\n     * @dev All the banks list. Data will be sent in pages to avoid the more gas fee\r\n     * @param pageNumber page number for which data is needed (1..2..3....n)\r\n     * @return totalPages Total pages available\r\n     * @return Bank[] List of banks in the current page\r\n     */\r\n    function getAllBanks(uint256 pageNumber)\r\n        public\r\n        view\r\n        isAdmin\r\n        returns (uint256 totalPages, Types.Bank[] memory)\r\n    {\r\n        return getallbanks(pageNumber);\r\n    }\r\n\r\n    /**\r\n     * @dev To add new bank account\r\n     * @param bank_ Bank details, which need to be added to the system\r\n     */\r\n    function addBank(Types.Bank memory bank_) public isAdmin {\r\n        addbank(bank_);\r\n        // Adding to common list\r\n        users[bank_.id_] = Types.User({\r\n            name: bank_.name,\r\n            email: bank_.email,\r\n            id_: bank_.id_,\r\n            role: Types.Role.Bank,\r\n            status: Types.BankStatus.Active\r\n        });\r\n        userList.push(bank_.id_);\r\n    }\r\n\r\n    /**\r\n     * @dev To add new bank account\r\n     * @param id_ Bank's metamask address\r\n     * @param email_ Bank's email address that need to be updated\r\n     * @param name_ Bank's name which need to be updated\r\n     */\r\n    function updateBankDetails(\r\n        address id_,\r\n        string memory email_,\r\n        string memory name_\r\n    ) public isAdmin {\r\n        updatebank(id_, email_, name_);\r\n        // Updating in common list\r\n        users[id_].name = name_;\r\n        users[id_].email = email_;\r\n    }\r\n\r\n    /**\r\n     * @dev To add new bank account\r\n     * @param id_ Bank's metamask address\r\n     * @param makeActive_ If true, bank will be marked as active, else, it will be marked as deactivateds\r\n     */\r\n    function activateDeactivateBank(address id_, bool makeActive_)\r\n        public\r\n        isAdmin\r\n    {\r\n        // Updating in common list\r\n        users[id_].status = activatedeactivatebank(id_, makeActive_);\r\n    }\r\n\r\n    // Bank Interface\r\n\r\n    /**\r\n     * @dev List of customers, who are linked to the current bank. Data will be sent in pages to avoid the more gas fee\r\n     * @param pageNumber page number for which data is needed (1..2..3....n)\r\n     * @return totalPages Total pages available\r\n     * @return KycRequest[] List of KYC requests in the current page\r\n     */\r\n    function getCustomersOfBank(uint256 pageNumber)\r\n        public\r\n        view\r\n        isValidBank(msg.sender)\r\n        returns (uint256 totalPages, Types.KycRequest[] memory)\r\n    {\r\n        return getKYCRequests(pageNumber, true);\r\n    }\r\n\r\n    /**\r\n     * @notice Records new KYC request for a customer\r\n     * @param customer_ Customer details for whom the request is to be raised\r\n     * @param currentTime_ Current Date & Time in unix epoch timestamp\r\n     * @param notes_ Any additional notes that need to be added\r\n     */\r\n    function addKycRequest(\r\n        Types.Customer memory customer_,\r\n        uint256 currentTime_,\r\n        string memory notes_\r\n    ) public isValidBank(msg.sender) {\r\n        string memory reqId_ = Helpers.append(msg.sender, customer_.id_);\r\n        require(!kycRequestExists(reqId_), \"User had kyc req.\");\r\n\r\n        kycRequests[reqId_] = Types.KycRequest({\r\n            id_: reqId_,\r\n            userId_: customer_.id_,\r\n            customerName: customer_.name,\r\n            bankId_: msg.sender,\r\n            bankName: getsinglebank(msg.sender).name,\r\n            dataHash: customer_.dataHash,\r\n            updatedOn: currentTime_,\r\n            status: Types.KycStatus.Pending,\r\n            dataRequest: Types.DataHashStatus.Pending,\r\n            additionalNotes: notes_\r\n        });\r\n        bankCustomers[msg.sender].push(customer_.id_);\r\n        customerbanks[customer_.id_].push(msg.sender);\r\n        emit KycRequestAdded(\r\n            reqId_,\r\n            kycRequests[reqId_].bankName,\r\n            customer_.name\r\n        );\r\n\r\n        if (!customerExists(customer_.id_)) {\r\n            addcustomer(customer_);\r\n            // Adding to common list\r\n            users[customer_.id_] = Types.User({\r\n                name: customer_.name,\r\n                email: customer_.email,\r\n                id_: customer_.id_,\r\n                role: Types.Role.Customer,\r\n                status: Types.BankStatus.Active\r\n            });\r\n            userList.push(customer_.id_);\r\n        }\r\n    }\r\n\r\n    /**\r\n     * @notice Updates existing KYC request for a customer (It's a re-request)\r\n     * @param id_ Customer ID for whom the request has to be re-raised\r\n     * @param notes_ Any additional notes that need to be added\r\n     */\r\n    function reRequestForKycRequest(address id_, string memory notes_)\r\n        public\r\n        isValidBank(msg.sender)\r\n    {\r\n        string memory reqId_ = Helpers.append(msg.sender, id_);\r\n        require(kycRequestExists(reqId_), \"KYC req not found\");\r\n        require(customerExists(id_), \"User not found\");\r\n\r\n        // kycRequests[reqId_].status = Types.KycStatus.Pending;\r\n        kycRequests[reqId_].dataRequest = Types.DataHashStatus.Pending;\r\n        kycRequests[reqId_].additionalNotes = notes_;\r\n\r\n        emit KycReRequested(\r\n            reqId_,\r\n            kycRequests[reqId_].bankName,\r\n            kycRequests[reqId_].customerName\r\n        );\r\n    }\r\n\r\n    /**\r\n     * @dev To mark the KYC verification as failure\r\n     * @param userId_ Id of the user\r\n     * @param userId_ KYC Verified\r\n     * @param note_ Any info that need to be shared\r\n     */\r\n    function updateKycVerification(\r\n        address userId_,\r\n        bool verified_,\r\n        string memory note_\r\n    ) public isValidBank(msg.sender) {\r\n        string memory reqId_ = Helpers.append(msg.sender, userId_);\r\n        require(kycRequestExists(reqId_), \"User doesn't have KYC req\");\r\n\r\n        Types.KycStatus status_ = Types.KycStatus.Pending;\r\n        if (verified_) {\r\n            status_ = Types.KycStatus.KYCVerified;\r\n            updatekyccount(msg.sender);\r\n            updatekycdoneby(userId_);\r\n        } else {\r\n            status_ = Types.KycStatus.KYCFailed;\r\n        }\r\n\r\n        kycRequests[reqId_].status = status_;\r\n        kycRequests[reqId_].additionalNotes = note_;\r\n        emit KycStatusChanged(reqId_, userId_, msg.sender, status_);\r\n    }\r\n\r\n    /**\r\n     * @dev Search for customer details in the list that the bank is directly linked to\r\n     * @param id_ Customer's metamask Id\r\n     * @return boolean to say if customer exists or not\r\n     * @return Customer object to get the complete details of the customer\r\n     * @return KycRequest object to get the details about the request & it's status\r\n     * Costly operation if we had more customers linked to this single bank\r\n     */\r\n    function searchCustomers(address id_)\r\n        public\r\n        view\r\n        isValidCustomer(id_)\r\n        isValidBank(msg.sender)\r\n        returns (\r\n            bool,\r\n            Types.Customer memory,\r\n            Types.KycRequest memory\r\n        )\r\n    {\r\n        bool found_;\r\n        Types.Customer memory customer_;\r\n        Types.KycRequest memory request_;\r\n        (found_, customer_) = searchcustomers(id_, bankCustomers[msg.sender]);\r\n        if (found_) request_ = kycRequests[Helpers.append(msg.sender, id_)];\r\n        return (found_, customer_, request_);\r\n    }\r\n\r\n    // Customer Interface\r\n\r\n    /**\r\n     * @notice List of all banks. Data will be sent in pages to avoid the more gas fee\r\n     * @dev This is customer facing RPC end point\r\n     * @param pageNumber page number for which data is needed (1..2..3....n)\r\n     * @return totalPages Total pages available\r\n     * @return KycRequest[] List of KYC requests in the current page\r\n     */\r\n    function getBankRequests(uint256 pageNumber)\r\n        public\r\n        view\r\n        isValidCustomer(msg.sender)\r\n        returns (uint256 totalPages, Types.KycRequest[] memory)\r\n    {\r\n        return getKYCRequests(pageNumber, false);\r\n    }\r\n\r\n    /**\r\n     * @dev Updates the KYC request (Either Approves or Rejects)\r\n     * @param bankId_ Id of the bank\r\n     * @param approve_ Approve the data hash or reject\r\n     * @param note_ Any info that need to be shared\r\n     */\r\n    function actionOnKycRequest(\r\n        address bankId_,\r\n        bool approve_,\r\n        string memory note_\r\n    ) public isValidCustomer(msg.sender) isValidBank(bankId_) {\r\n        string memory reqId_ = Helpers.append(bankId_, msg.sender);\r\n        require(kycRequestExists(reqId_), \"User doesn't have KYC req\");\r\n\r\n        Types.DataHashStatus status_ = Types.DataHashStatus.Pending;\r\n        if (approve_) {\r\n            status_ = Types.DataHashStatus.Approved;\r\n        } else {\r\n            status_ = Types.DataHashStatus.Rejected;\r\n        }\r\n        kycRequests[reqId_].dataRequest = status_;\r\n        kycRequests[reqId_].additionalNotes = note_;\r\n\r\n        emit DataHashPermissionChanged(reqId_, msg.sender, bankId_, status_);\r\n    }\r\n\r\n    /**\r\n     * @dev Updates the user profile\r\n     * @param name_ Customer name\r\n     * @param email_ Email that need to be updated\r\n     * @param mobile_ Mobile number that need to be updated\r\n     */\r\n    function updateProfile(\r\n        string memory name_,\r\n        string memory email_,\r\n        uint256 mobile_\r\n    ) public isValidCustomer(msg.sender) {\r\n        updateprofile(name_, email_, mobile_);\r\n        // Updating in common list\r\n        users[msg.sender].name = name_;\r\n        users[msg.sender].email = email_;\r\n    }\r\n\r\n    /**\r\n     * @dev Updates the Datahash of the documents\r\n     * @param hash_ Data hash value that need to be updated\r\n     * @param currentTime_ Current Date Time in unix epoch timestamp\r\n     */\r\n    function updateDatahash(string memory hash_, uint256 currentTime_)\r\n        public\r\n        isValidCustomer(msg.sender)\r\n    {\r\n        updatedatahash(hash_, currentTime_);\r\n\r\n        // Reset KYC verification status for all banks\r\n        address[] memory banksList_ = customerbanks[msg.sender];\r\n        for (uint256 i = 0; i < banksList_.length; i++) {\r\n            string memory reqId_ = Helpers.append(banksList_[i], msg.sender);\r\n            if (kycRequestExists(reqId_)) {\r\n                kycRequests[reqId_].dataHash = hash_;\r\n                kycRequests[reqId_].updatedOn = currentTime_;\r\n                kycRequests[reqId_].status = Types.KycStatus.Pending;\r\n                kycRequests[reqId_].additionalNotes = \"Updated all my docs\";\r\n            }\r\n        }\r\n    }\r\n\r\n    /**\r\n     * @dev Removes the permission to a specific bank, so that they can't access the documents again\r\n     * @param bankId_ Id of the bank to whom permission has to be revoked\r\n     * @param notes_ Any additional notes that need to included\r\n     */\r\n    function removerDatahashPermission(address bankId_, string memory notes_)\r\n        public\r\n        isValidCustomer(msg.sender)\r\n    {\r\n        string memory reqId_ = Helpers.append(bankId_, msg.sender);\r\n        require(kycRequestExists(reqId_), \"Permission not found\");\r\n        kycRequests[reqId_].dataRequest = Types.DataHashStatus.Rejected;\r\n        kycRequests[reqId_].additionalNotes = notes_;\r\n        emit DataHashPermissionChanged(\r\n            reqId_,\r\n            msg.sender,\r\n            bankId_,\r\n            Types.DataHashStatus.Rejected\r\n        );\r\n    }\r\n\r\n    /**\r\n     * @dev Search for bank details in the list that the customer is directly linked to\r\n     * @param bankId_ Bank's metamask Id\r\n     * @return boolean to say if bank exists or not\r\n     * @return Bank object to get the complete details of the bank\r\n     * @return KycRequest object to get the details about the request & it's status\r\n     * Costly operation if we had more banks linked to this single customer\r\n     */\r\n    function searchBanks(address bankId_)\r\n        public\r\n        view\r\n        isValidCustomer(msg.sender)\r\n        isValidBank(bankId_)\r\n        returns (\r\n            bool,\r\n            Types.Bank memory,\r\n            Types.KycRequest memory\r\n        )\r\n    {\r\n        bool found_;\r\n        Types.Bank memory bank_;\r\n        Types.KycRequest memory request_;\r\n        address[] memory banks_ = customerbanks[msg.sender];\r\n\r\n        for (uint256 i = 0; i < banks_.length; i++) {\r\n            if (banks_[i] == bankId_) {\r\n                found_ = true;\r\n                bank_ = getsinglebank(bankId_);\r\n                request_ = kycRequests[Helpers.append(bankId_, msg.sender)];\r\n                break;\r\n            }\r\n        }\r\n        return (found_, bank_, request_);\r\n    }\r\n\r\n    // Common Interface\r\n\r\n    /**\r\n     * @dev Updates the KYC request (Either Approves or Rejects)\r\n     * @return User object which contains the role & other basic info\r\n     */\r\n    function whoAmI() public view returns (Types.User memory) {\r\n        require(msg.sender != address(0), \"Sender Id Empty\");\r\n        require(users[msg.sender].id_ != address(0), \"User Id Empty\");\r\n        return users[msg.sender];\r\n    }\r\n\r\n    /**\r\n     * @dev To get details of the customer\r\n     * @param id_ Customer's metamask address\r\n     * @return Customer object which will have complete details of the customer\r\n     */\r\n    function getCustomerDetails(address id_)\r\n        public\r\n        view\r\n        isValidCustomer(id_)\r\n        returns (Types.Customer memory)\r\n    {\r\n        return getcustomerdetails(id_);\r\n    }\r\n\r\n    /**\r\n     * @dev To get details of the bank\r\n     * @param id_ Bank's metamask address\r\n     * @return Bank object which will have complete details of the bank\r\n     */\r\n    function getBankDetails(address id_)\r\n        public\r\n        view\r\n        isValidBank(id_)\r\n        returns (Types.Bank memory)\r\n    {\r\n        return getsinglebank(id_);\r\n    }\r\n}\r\n",
  "sourcePath": "C:\\Users\\alokk\\Desktop\\Learning\\learning blockchain\\kyc2\\blockchain\\contracts\\KYC.sol",
  "compiler": {
    "name": "solc",
    "version": "0.8.4+commit.c7e474f2.Emscripten.clang"
  },
  "schemaVersion": "3.4.13",
  "updatedAt": "2023-05-07T06:07:22.202Z",
  "networkType": "ethereum",
  "devdoc": {
    "author": "Suresh Konakanchi",
    "details": "Library for managing KYC process seemlessly using de-centralised system",
    "kind": "dev",
    "methods": {
      "actionOnKycRequest(address,bool,string)": {
        "details": "Updates the KYC request (Either Approves or Rejects)",
        "params": {
          "approve_": "Approve the data hash or reject",
          "bankId_": "Id of the bank",
          "note_": "Any info that need to be shared"
        }
      },
      "activateDeactivateBank(address,bool)": {
        "details": "To add new bank account",
        "params": {
          "id_": "Bank's metamask address",
          "makeActive_": "If true, bank will be marked as active, else, it will be marked as deactivateds"
        }
      },
      "addBank((string,string,address,string,uint16,uint8))": {
        "details": "To add new bank account",
        "params": {
          "bank_": "Bank details, which need to be added to the system"
        }
      },
      "addKycRequest((string,string,uint256,address,address,string,uint256),uint256,string)": {
        "params": {
          "currentTime_": "Current Date & Time in unix epoch timestamp",
          "customer_": "Customer details for whom the request is to be raised",
          "notes_": "Any additional notes that need to be added"
        }
      },
      "constructor": {
        "params": {
          "email_": "Email of the admin",
          "name_": "Name of the admin"
        }
      },
      "getAllBanks(uint256)": {
        "details": "All the banks list. Data will be sent in pages to avoid the more gas fee",
        "params": {
          "pageNumber": "page number for which data is needed (1..2..3....n)"
        },
        "returns": {
          "_1": "Bank[] List of banks in the current page",
          "totalPages": "Total pages available"
        }
      },
      "getBankDetails(address)": {
        "details": "To get details of the bank",
        "params": {
          "id_": "Bank's metamask address"
        },
        "returns": {
          "_0": "Bank object which will have complete details of the bank"
        }
      },
      "getBankRequests(uint256)": {
        "details": "This is customer facing RPC end point",
        "params": {
          "pageNumber": "page number for which data is needed (1..2..3....n)"
        },
        "returns": {
          "_1": "KycRequest[] List of KYC requests in the current page",
          "totalPages": "Total pages available"
        }
      },
      "getCustomerDetails(address)": {
        "details": "To get details of the customer",
        "params": {
          "id_": "Customer's metamask address"
        },
        "returns": {
          "_0": "Customer object which will have complete details of the customer"
        }
      },
      "getCustomersOfBank(uint256)": {
        "details": "List of customers, who are linked to the current bank. Data will be sent in pages to avoid the more gas fee",
        "params": {
          "pageNumber": "page number for which data is needed (1..2..3....n)"
        },
        "returns": {
          "_1": "KycRequest[] List of KYC requests in the current page",
          "totalPages": "Total pages available"
        }
      },
      "reRequestForKycRequest(address,string)": {
        "params": {
          "id_": "Customer ID for whom the request has to be re-raised",
          "notes_": "Any additional notes that need to be added"
        }
      },
      "removerDatahashPermission(address,string)": {
        "details": "Removes the permission to a specific bank, so that they can't access the documents again",
        "params": {
          "bankId_": "Id of the bank to whom permission has to be revoked",
          "notes_": "Any additional notes that need to included"
        }
      },
      "searchBanks(address)": {
        "details": "Search for bank details in the list that the customer is directly linked to",
        "params": {
          "bankId_": "Bank's metamask Id"
        },
        "returns": {
          "_0": "boolean to say if bank exists or not",
          "_1": "Bank object to get the complete details of the bank",
          "_2": "KycRequest object to get the details about the request & it's status Costly operation if we had more banks linked to this single customer"
        }
      },
      "searchCustomers(address)": {
        "details": "Search for customer details in the list that the bank is directly linked to",
        "params": {
          "id_": "Customer's metamask Id"
        },
        "returns": {
          "_0": "boolean to say if customer exists or not",
          "_1": "Customer object to get the complete details of the customer",
          "_2": "KycRequest object to get the details about the request & it's status Costly operation if we had more customers linked to this single bank"
        }
      },
      "updateBankDetails(address,string,string)": {
        "details": "To add new bank account",
        "params": {
          "email_": "Bank's email address that need to be updated",
          "id_": "Bank's metamask address",
          "name_": "Bank's name which need to be updated"
        }
      },
      "updateDatahash(string,uint256)": {
        "details": "Updates the Datahash of the documents",
        "params": {
          "currentTime_": "Current Date Time in unix epoch timestamp",
          "hash_": "Data hash value that need to be updated"
        }
      },
      "updateKycVerification(address,bool,string)": {
        "details": "To mark the KYC verification as failure",
        "params": {
          "note_": "Any info that need to be shared",
          "userId_": "KYC Verified"
        }
      },
      "updateProfile(string,string,uint256)": {
        "details": "Updates the user profile",
        "params": {
          "email_": "Email that need to be updated",
          "mobile_": "Mobile number that need to be updated",
          "name_": "Customer name"
        }
      },
      "whoAmI()": {
        "details": "Updates the KYC request (Either Approves or Rejects)",
        "returns": {
          "_0": "User object which contains the role & other basic info"
        }
      }
    },
    "title": "KYC",
    "version": 1
  },
  "userdoc": {
    "kind": "user",
    "methods": {
      "addKycRequest((string,string,uint256,address,address,string,uint256),uint256,string)": {
        "notice": "Records new KYC request for a customer"
      },
      "constructor": {
        "notice": "Set admin to one who deploy this contract Who will act as the super-admin to add all the financial institutions (banks)"
      },
      "getBankRequests(uint256)": {
        "notice": "List of all banks. Data will be sent in pages to avoid the more gas fee"
      },
      "reRequestForKycRequest(address,string)": {
        "notice": "Updates existing KYC request for a customer (It's a re-request)"
      }
    },
    "version": 1
  }
}