{
  "contractName": "KYC",
  "abi": [
    {
      "inputs": [
        {
          "internalType": "string",
          "name": "name_",
          "type": "string"
        },
        {
          "internalType": "string",
          "name": "email_",
          "type": "string"
        }
      ],
      "stateMutability": "nonpayable",
      "type": "constructor"
    },
    {
      "anonymous": false,
      "inputs": [
        {
          "indexed": false,
          "internalType": "address",
          "name": "id_",
          "type": "address"
        },
        {
          "indexed": false,
          "internalType": "string",
          "name": "name",
          "type": "string"
        }
      ],
      "name": "BankActivated",
      "type": "event"
    },
    {
      "anonymous": false,
      "inputs": [
        {
          "indexed": false,
          "internalType": "address",
          "name": "id_",
          "type": "address"
        },
        {
          "indexed": false,
          "internalType": "string",
          "name": "name",
          "type": "string"
        },
        {
          "indexed": false,
          "internalType": "string",
          "name": "email",
          "type": "string"
        },
        {
          "indexed": false,
          "internalType": "string",
          "name": "ifscCode",
          "type": "string"
        }
      ],
      "name": "BankAdded",
      "type": "event"
    },
    {
      "anonymous": false,
      "inputs": [
        {
          "indexed": false,
          "internalType": "address",
          "name": "id_",
          "type": "address"
        },
        {
          "indexed": false,
          "internalType": "string",
          "name": "name",
          "type": "string"
        }
      ],
      "name": "BankDeactivated",
      "type": "event"
    },
    {
      "anonymous": false,
      "inputs": [
        {
          "indexed": false,
          "internalType": "address",
          "name": "id_",
          "type": "address"
        },
        {
          "indexed": false,
          "internalType": "string",
          "name": "name",
          "type": "string"
        },
        {
          "indexed": false,
          "internalType": "string",
          "name": "email",
          "type": "string"
        }
      ],
      "name": "BankUpdated",
      "type": "event"
    },
    {
      "anonymous": false,
      "inputs": [
        {
          "indexed": false,
          "internalType": "address",
          "name": "id_",
          "type": "address"
        },
        {
          "indexed": false,
          "internalType": "string",
          "name": "name",
          "type": "string"
        },
        {
          "indexed": false,
          "internalType": "string",
          "name": "email",
          "type": "string"
        }
      ],
      "name": "CustomerAdded",
      "type": "event"
    },
    {
      "anonymous": false,
      "inputs": [
        {
          "indexed": false,
          "internalType": "address",
          "name": "id_",
          "type": "address"
        },
        {
          "indexed": false,
          "internalType": "string",
          "name": "name",
          "type": "string"
        },
        {
          "indexed": false,
          "internalType": "string",
          "name": "email",
          "type": "string"
        }
      ],
      "name": "CustomerDataUpdated",
      "type": "event"
    },
    {
      "anonymous": false,
      "inputs": [
        {
          "indexed": false,
          "internalType": "string",
          "name": "reqId",
          "type": "string"
        },
        {
          "indexed": false,
          "internalType": "address",
          "name": "customerId",
          "type": "address"
        },
        {
          "indexed": false,
          "internalType": "address",
          "name": "bankId",
          "type": "address"
        },
        {
          "indexed": false,
          "internalType": "enum Types.DataHashStatus",
          "name": "status",
          "type": "uint8"
        }
      ],
      "name": "DataHashPermissionChanged",
      "type": "event"
    },
    {
      "anonymous": false,
      "inputs": [
        {
          "indexed": false,
          "internalType": "address",
          "name": "id_",
          "type": "address"
        },
        {
          "indexed": false,
          "internalType": "string",
          "name": "customerName",
          "type": "string"
        },
        {
          "indexed": false,
          "internalType": "string",
          "name": "dataHash",
          "type": "string"
        }
      ],
      "name": "DataHashUpdated",
      "type": "event"
    },
    {
      "anonymous": false,
      "inputs": [
        {
          "indexed": false,
          "internalType": "string",
          "name": "reqId",
          "type": "string"
        },
        {
          "indexed": false,
          "internalType": "string",
          "name": "bankName",
          "type": "string"
        },
        {
          "indexed": false,
          "internalType": "string",
          "name": "customerName",
          "type": "string"
        }
      ],
      "name": "KycReRequested",
      "type": "event"
    },
    {
      "anonymous": false,
      "inputs": [
        {
          "indexed": false,
          "internalType": "string",
          "name": "reqId",
          "type": "string"
        },
        {
          "indexed": false,
          "internalType": "string",
          "name": "bankName",
          "type": "string"
        },
        {
          "indexed": false,
          "internalType": "string",
          "name": "customerName",
          "type": "string"
        }
      ],
      "name": "KycRequestAdded",
      "type": "event"
    },
    {
      "anonymous": false,
      "inputs": [
        {
          "indexed": false,
          "internalType": "string",
          "name": "reqId",
          "type": "string"
        },
        {
          "indexed": false,
          "internalType": "address",
          "name": "customerId",
          "type": "address"
        },
        {
          "indexed": false,
          "internalType": "address",
          "name": "bankId",
          "type": "address"
        },
        {
          "indexed": false,
          "internalType": "enum Types.KycStatus",
          "name": "status",
          "type": "uint8"
        }
      ],
      "name": "KycStatusChanged",
      "type": "event"
    },
    {
      "inputs": [
        {
          "internalType": "uint256",
          "name": "pageNumber",
          "type": "uint256"
        }
      ],
      "name": "getAllBanks",
      "outputs": [
        {
          "internalType": "uint256",
          "name": "totalPages",
          "type": "uint256"
        },
        {
          "components": [
            {
              "internalType": "string",
              "name": "name",
              "type": "string"
            },
            {
              "internalType": "string",
              "name": "email",
              "type": "string"
            },
            {
              "internalType": "address",
              "name": "id_",
              "type": "address"
            },
            {
              "internalType": "string",
              "name": "ifscCode",
              "type": "string"
            },
            {
              "internalType": "uint16",
              "name": "kycCount",
              "type": "uint16"
            },
            {
              "internalType": "enum Types.BankStatus",
              "name": "status",
              "type": "uint8"
            }
          ],
          "internalType": "struct Types.Bank[]",
          "name": "",
          "type": "tuple[]"
        }
      ],
      "stateMutability": "view",
      "type": "function",
      "constant": true
    },
    {
      "inputs": [
        {
          "components": [
            {
              "internalType": "string",
              "name": "name",
              "type": "string"
            },
            {
              "internalType": "string",
              "name": "email",
              "type": "string"
            },
            {
              "internalType": "address",
              "name": "id_",
              "type": "address"
            },
            {
              "internalType": "string",
              "name": "ifscCode",
              "type": "string"
            },
            {
              "internalType": "uint16",
              "name": "kycCount",
              "type": "uint16"
            },
            {
              "internalType": "enum Types.BankStatus",
              "name": "status",
              "type": "uint8"
            }
          ],
          "internalType": "struct Types.Bank",
          "name": "bank_",
          "type": "tuple"
        }
      ],
      "name": "addBank",
      "outputs": [],
      "stateMutability": "nonpayable",
      "type": "function"
    },
    {
      "inputs": [
        {
          "internalType": "address",
          "name": "id_",
          "type": "address"
        },
        {
          "internalType": "string",
          "name": "email_",
          "type": "string"
        },
        {
          "internalType": "string",
          "name": "name_",
          "type": "string"
        }
      ],
      "name": "updateBankDetails",
      "outputs": [],
      "stateMutability": "nonpayable",
      "type": "function"
    },
    {
      "inputs": [
        {
          "internalType": "address",
          "name": "id_",
          "type": "address"
        },
        {
          "internalType": "bool",
          "name": "makeActive_",
          "type": "bool"
        }
      ],
      "name": "activateDeactivateBank",
      "outputs": [],
      "stateMutability": "nonpayable",
      "type": "function"
    },
    {
      "inputs": [
        {
          "internalType": "uint256",
          "name": "pageNumber",
          "type": "uint256"
        }
      ],
      "name": "getCustomersOfBank",
      "outputs": [
        {
          "internalType": "uint256",
          "name": "totalPages",
          "type": "uint256"
        },
        {
          "components": [
            {
              "internalType": "string",
              "name": "id_",
              "type": "string"
            },
            {
              "internalType": "address",
              "name": "userId_",
              "type": "address"
            },
            {
              "internalType": "string",
              "name": "customerName",
              "type": "string"
            },
            {
              "internalType": "address",
              "name": "bankId_",
              "type": "address"
            },
            {
              "internalType": "string",
              "name": "bankName",
              "type": "string"
            },
            {
              "internalType": "string",
              "name": "dataHash",
              "type": "string"
            },
            {
              "internalType": "uint256",
              "name": "updatedOn",
              "type": "uint256"
            },
            {
              "internalType": "enum Types.KycStatus",
              "name": "status",
              "type": "uint8"
            },
            {
              "internalType": "enum Types.DataHashStatus",
              "name": "dataRequest",
              "type": "uint8"
            },
            {
              "internalType": "string",
              "name": "additionalNotes",
              "type": "string"
            }
          ],
          "internalType": "struct Types.KycRequest[]",
          "name": "",
          "type": "tuple[]"
        }
      ],
      "stateMutability": "view",
      "type": "function",
      "constant": true
    },
    {
      "inputs": [
        {
          "components": [
            {
              "internalType": "string",
              "name": "name",
              "type": "string"
            },
            {
              "internalType": "string",
              "name": "email",
              "type": "string"
            },
            {
              "internalType": "uint256",
              "name": "mobileNumber",
              "type": "uint256"
            },
            {
              "internalType": "address",
              "name": "id_",
              "type": "address"
            },
            {
              "internalType": "address",
              "name": "kycVerifiedBy",
              "type": "address"
            },
            {
              "internalType": "string",
              "name": "dataHash",
              "type": "string"
            },
            {
              "internalType": "uint256",
              "name": "dataUpdatedOn",
              "type": "uint256"
            }
          ],
          "internalType": "struct Types.Customer",
          "name": "customer_",
          "type": "tuple"
        },
        {
          "internalType": "uint256",
          "name": "currentTime_",
          "type": "uint256"
        },
        {
          "internalType": "string",
          "name": "notes_",
          "type": "string"
        }
      ],
      "name": "addKycRequest",
      "outputs": [],
      "stateMutability": "nonpayable",
      "type": "function"
    },
    {
      "inputs": [
        {
          "internalType": "address",
          "name": "id_",
          "type": "address"
        },
        {
          "internalType": "string",
          "name": "notes_",
          "type": "string"
        }
      ],
      "name": "reRequestForKycRequest",
      "outputs": [],
      "stateMutability": "nonpayable",
      "type": "function"
    },
    {
      "inputs": [
        {
          "internalType": "address",
          "name": "userId_",
          "type": "address"
        },
        {
          "internalType": "bool",
          "name": "verified_",
          "type": "bool"
        },
        {
          "internalType": "string",
          "name": "note_",
          "type": "string"
        }
      ],
      "name": "updateKycVerification",
      "outputs": [],
      "stateMutability": "nonpayable",
      "type": "function"
    },
    {
      "inputs": [
        {
          "internalType": "address",
          "name": "id_",
          "type": "address"
        }
      ],
      "name": "searchCustomers",
      "outputs": [
        {
          "internalType": "bool",
          "name": "",
          "type": "bool"
        },
        {
          "components": [
            {
              "internalType": "string",
              "name": "name",
              "type": "string"
            },
            {
              "internalType": "string",
              "name": "email",
              "type": "string"
            },
            {
              "internalType": "uint256",
              "name": "mobileNumber",
              "type": "uint256"
            },
            {
              "internalType": "address",
              "name": "id_",
              "type": "address"
            },
            {
              "internalType": "address",
              "name": "kycVerifiedBy",
              "type": "address"
            },
            {
              "internalType": "string",
              "name": "dataHash",
              "type": "string"
            },
            {
              "internalType": "uint256",
              "name": "dataUpdatedOn",
              "type": "uint256"
            }
          ],
          "internalType": "struct Types.Customer",
          "name": "",
          "type": "tuple"
        },
        {
          "components": [
            {
              "internalType": "string",
              "name": "id_",
              "type": "string"
            },
            {
              "internalType": "address",
              "name": "userId_",
              "type": "address"
            },
            {
              "internalType": "string",
              "name": "customerName",
              "type": "string"
            },
            {
              "internalType": "address",
              "name": "bankId_",
              "type": "address"
            },
            {
              "internalType": "string",
              "name": "bankName",
              "type": "string"
            },
            {
              "internalType": "string",
              "name": "dataHash",
              "type": "string"
            },
            {
              "internalType": "uint256",
              "name": "updatedOn",
              "type": "uint256"
            },
            {
              "internalType": "enum Types.KycStatus",
              "name": "status",
              "type": "uint8"
            },
            {
              "internalType": "enum Types.DataHashStatus",
              "name": "dataRequest",
              "type": "uint8"
            },
            {
              "internalType": "string",
              "name": "additionalNotes",
              "type": "string"
            }
          ],
          "internalType": "struct Types.KycRequest",
          "name": "",
          "type": "tuple"
        }
      ],
      "stateMutability": "view",
      "type": "function",
      "constant": true
    },
    {
      "inputs": [
        {
          "internalType": "uint256",
          "name": "pageNumber",
          "type": "uint256"
        }
      ],
      "name": "getBankRequests",
      "outputs": [
        {
          "internalType": "uint256",
          "name": "totalPages",
          "type": "uint256"
        },
        {
          "components": [
            {
              "internalType": "string",
              "name": "id_",
              "type": "string"
            },
            {
              "internalType": "address",
              "name": "userId_",
              "type": "address"
            },
            {
              "internalType": "string",
              "name": "customerName",
              "type": "string"
            },
            {
              "internalType": "address",
              "name": "bankId_",
              "type": "address"
            },
            {
              "internalType": "string",
              "name": "bankName",
              "type": "string"
            },
            {
              "internalType": "string",
              "name": "dataHash",
              "type": "string"
            },
            {
              "internalType": "uint256",
              "name": "updatedOn",
              "type": "uint256"
            },
            {
              "internalType": "enum Types.KycStatus",
              "name": "status",
              "type": "uint8"
            },
            {
              "internalType": "enum Types.DataHashStatus",
              "name": "dataRequest",
              "type": "uint8"
            },
            {
              "internalType": "string",
              "name": "additionalNotes",
              "type": "string"
            }
          ],
          "internalType": "struct Types.KycRequest[]",
          "name": "",
          "type": "tuple[]"
        }
      ],
      "stateMutability": "view",
      "type": "function",
      "constant": true
    },
    {
      "inputs": [
        {
          "internalType": "address",
          "name": "bankId_",
          "type": "address"
        },
        {
          "internalType": "bool",
          "name": "approve_",
          "type": "bool"
        },
        {
          "internalType": "string",
          "name": "note_",
          "type": "string"
        }
      ],
      "name": "actionOnKycRequest",
      "outputs": [],
      "stateMutability": "nonpayable",
      "type": "function"
    },
    {
      "inputs": [
        {
          "internalType": "string",
          "name": "name_",
          "type": "string"
        },
        {
          "internalType": "string",
          "name": "email_",
          "type": "string"
        },
        {
          "internalType": "uint256",
          "name": "mobile_",
          "type": "uint256"
        }
      ],
      "name": "updateProfile",
      "outputs": [],
      "stateMutability": "nonpayable",
      "type": "function"
    },
    {
      "inputs": [
        {
          "internalType": "string",
          "name": "hash_",
          "type": "string"
        },
        {
          "internalType": "uint256",
          "name": "currentTime_",
          "type": "uint256"
        }
      ],
      "name": "updateDatahash",
      "outputs": [],
      "stateMutability": "nonpayable",
      "type": "function"
    },
    {
      "inputs": [
        {
          "internalType": "address",
          "name": "bankId_",
          "type": "address"
        },
        {
          "internalType": "string",
          "name": "notes_",
          "type": "string"
        }
      ],
      "name": "removerDatahashPermission",
      "outputs": [],
      "stateMutability": "nonpayable",
      "type": "function"
    },
    {
      "inputs": [
        {
          "internalType": "address",
          "name": "bankId_",
          "type": "address"
        }
      ],
      "name": "searchBanks",
      "outputs": [
        {
          "internalType": "bool",
          "name": "",
          "type": "bool"
        },
        {
          "components": [
            {
              "internalType": "string",
              "name": "name",
              "type": "string"
            },
            {
              "internalType": "string",
              "name": "email",
              "type": "string"
            },
            {
              "internalType": "address",
              "name": "id_",
              "type": "address"
            },
            {
              "internalType": "string",
              "name": "ifscCode",
              "type": "string"
            },
            {
              "internalType": "uint16",
              "name": "kycCount",
              "type": "uint16"
            },
            {
              "internalType": "enum Types.BankStatus",
              "name": "status",
              "type": "uint8"
            }
          ],
          "internalType": "struct Types.Bank",
          "name": "",
          "type": "tuple"
        },
        {
          "components": [
            {
              "internalType": "string",
              "name": "id_",
              "type": "string"
            },
            {
              "internalType": "address",
              "name": "userId_",
              "type": "address"
            },
            {
              "internalType": "string",
              "name": "customerName",
              "type": "string"
            },
            {
              "internalType": "address",
              "name": "bankId_",
              "type": "address"
            },
            {
              "internalType": "string",
              "name": "bankName",
              "type": "string"
            },
            {
              "internalType": "string",
              "name": "dataHash",
              "type": "string"
            },
            {
              "internalType": "uint256",
              "name": "updatedOn",
              "type": "uint256"
            },
            {
              "internalType": "enum Types.KycStatus",
              "name": "status",
              "type": "uint8"
            },
            {
              "internalType": "enum Types.DataHashStatus",
              "name": "dataRequest",
              "type": "uint8"
            },
            {
              "internalType": "string",
              "name": "additionalNotes",
              "type": "string"
            }
          ],
          "internalType": "struct Types.KycRequest",
          "name": "",
          "type": "tuple"
        }
      ],
      "stateMutability": "view",
      "type": "function",
      "constant": true
    },
    {
      "inputs": [],
      "name": "whoAmI",
      "outputs": [
        {
          "components": [
            {
              "internalType": "string",
              "name": "name",
              "type": "string"
            },
            {
              "internalType": "string",
              "name": "email",
              "type": "string"
            },
            {
              "internalType": "address",
              "name": "id_",
              "type": "address"
            },
            {
              "internalType": "enum Types.Role",
              "name": "role",
              "type": "uint8"
            },
            {
              "internalType": "enum Types.BankStatus",
              "name": "status",
              "type": "uint8"
            }
          ],
          "internalType": "struct Types.User",
          "name": "",
          "type": "tuple"
        }
      ],
      "stateMutability": "view",
      "type": "function",
      "constant": true
    },
    {
      "inputs": [
        {
          "internalType": "address",
          "name": "id_",
          "type": "address"
        }
      ],
      "name": "getCustomerDetails",
      "outputs": [
        {
          "components": [
            {
              "internalType": "string",
              "name": "name",
              "type": "string"
            },
            {
              "internalType": "string",
              "name": "email",
              "type": "string"
            },
            {
              "internalType": "uint256",
              "name": "mobileNumber",
              "type": "uint256"
            },
            {
              "internalType": "address",
              "name": "id_",
              "type": "address"
            },
            {
              "internalType": "address",
              "name": "kycVerifiedBy",
              "type": "address"
            },
            {
              "internalType": "string",
              "name": "dataHash",
              "type": "string"
            },
            {
              "internalType": "uint256",
              "name": "dataUpdatedOn",
              "type": "uint256"
            }
          ],
          "internalType": "struct Types.Customer",
          "name": "",
          "type": "tuple"
        }
      ],
      "stateMutability": "view",
      "type": "function",
      "constant": true
    },
    {
      "inputs": [
        {
          "internalType": "address",
          "name": "id_",
          "type": "address"
        }
      ],
      "name": "getBankDetails",
      "outputs": [
        {
          "components": [
            {
              "internalType": "string",
              "name": "name",
              "type": "string"
            },
            {
              "internalType": "string",
              "name": "email",
              "type": "string"
            },
            {
              "internalType": "address",
              "name": "id_",
              "type": "address"
            },
            {
              "internalType": "string",
              "name": "ifscCode",
              "type": "string"
            },
            {
              "internalType": "uint16",
              "name": "kycCount",
              "type": "uint16"
            },
            {
              "internalType": "enum Types.BankStatus",
              "name": "status",
              "type": "uint8"
            }
          ],
          "internalType": "struct Types.Bank",
          "name": "",
          "type": "tuple"
        }
      ],
      "stateMutability": "view",
      "type": "function",
      "constant": true
    }
  ],
  "bytecode": "0x60806040523480156200001157600080fd5b506040516200580d3803806200580d833981016040819052620000349162000257565b600480546001600160a01b031916339081179091556040805160a0810182528481526020808201859052818301849052600060608301819052608083018190529384526006905291208151829190819062000090908262000366565b5060208201516001820190620000a7908262000366565b506040820151600280830180546001600160a01b039093166001600160a01b031984168117825560608601519391926001600160a81b03199092161790600160a01b908490811115620000fe57620000fe620002c1565b0217905550608082015160028201805460ff60a81b1916600160a81b8360018111156200012f576200012f620002c1565b021790555050600454600580546001810182556000919091527f036b6384b5eca791c62761152d0c79bb0604c104a5fb6f4eb0703f3154bb3db00180546001600160a01b0319166001600160a01b03909216919091179055506200043292505050565b634e487b7160e01b600052604160045260246000fd5b600082601f830112620001ba57600080fd5b81516001600160401b0380821115620001d757620001d762000192565b604051601f8301601f19908116603f0116810190828211818310171562000202576200020262000192565b816040528381526020925086838588010111156200021f57600080fd5b600091505b8382101562000243578582018301518183018401529082019062000224565b600093810190920192909252949350505050565b600080604083850312156200026b57600080fd5b82516001600160401b03808211156200028357600080fd5b6200029186838701620001a8565b93506020850151915080821115620002a857600080fd5b50620002b785828601620001a8565b9150509250929050565b634e487b7160e01b600052602160045260246000fd5b600181811c90821680620002ec57607f821691505b6020821081036200030d57634e487b7160e01b600052602260045260246000fd5b50919050565b601f8211156200036157600081815260208120601f850160051c810160208610156200033c5750805b601f850160051c820191505b818110156200035d5782815560010162000348565b5050505b505050565b81516001600160401b0381111562000382576200038262000192565b6200039a81620003938454620002d7565b8462000313565b602080601f831160018114620003d25760008415620003b95750858301515b600019600386901b1c1916600185901b1785556200035d565b600085815260208120601f198616915b828110156200040357888601518255948401946001909101908401620003e2565b5085821015620004225787850151600019600388901b60f8161c191681555b5050505050600190811b01905550565b6153cb80620004426000396000f3fe608060405234801561001057600080fd5b50600436106101165760003560e01c80635f4d6ddf116100a2578063b374a7dd11610071578063b374a7dd14610263578063baa2b9fd14610276578063da91254c14610297578063dbc671d0146102ac578063dc57d07e146102bf57600080fd5b80635f4d6ddf1461020857806377fa069c1461022a5780637c1d61971461023d5780638915fb0c1461025057600080fd5b80632ce23acb116100e95780632ce23acb1461018c57806334b52411146101ae578063369ba32b146101c15780633f2c0e96146101d45780634d82d8e8146101e757600080fd5b80630c60f83d1461011b57806315101e02146101445780631bdd5a0f146101645780632283db9c14610179575b600080fd5b61012e6101293660046144ea565b6102d2565b60405161013b91906145e7565b60405180910390f35b6101576101523660046144ea565b610432565b60405161013b91906146a9565b6101776101723660046147a8565b610511565b005b610177610187366004614816565b61076d565b61019f61019a3660046144ea565b6108eb565b60405161013b93929190614a0a565b6101776101bc366004614a47565b610f0d565b6101776101cf366004614aa4565b6111a8565b6101776101e23660046147a8565b61122b565b6101fa6101f5366004614b0d565b6113d0565b60405161013b929190614b26565b61021b6102163660046144ea565b611412565b60405161013b93929190614b90565b610177610238366004614bab565b6119e9565b61017761024b366004614cae565b611f03565b61017761025e366004614d1a565b611fe5565b610177610271366004614d5e565b61223f565b610289610284366004614b0d565b6122b7565b60405161013b929190614d91565b61029f61239b565b60405161013b9190614ded565b6102896102ba366004614b0d565b6125dd565b6101776102cd366004614a47565b61268d565b6102da614394565b816001600160a01b03811661030a5760405162461bcd60e51b815260040161030190614e62565b60405180910390fd5b6001600160a01b03818116600090815260016020526040902060030154166103445760405162461bcd60e51b815260040161030190614e87565b6001600160a01b0381166000908152600160208190526040909120018054610403919061037090614eae565b80601f016020809104026020016040519081016040528092919081815260200182805461039c90614eae565b80156103e95780601f106103be576101008083540402835291602001916103e9565b820191906000526020600020905b8154815290600101906020018083116103cc57829003601f168201915b505050505060405180602001604052806000815250612892565b156104205760405162461bcd60e51b815260040161030190614ee2565b610429836128ec565b91505b50919050565b61043a6143e3565b6001600160a01b038083166000908152600360205260409020600201548391166104765760405162461bcd60e51b815260040161030190614f0c565b6001600160a01b03808216600081815260036020526040902060020154909116146104b35760405162461bcd60e51b815260040161030190614f0c565b60006001600160a01b03821660009081526003602052604090206004015462010000900460ff1660018111156104eb576104eb6145fa565b146105085760405162461bcd60e51b815260040161030190614f34565b61042983612b0b565b336000818152600360205260409020600201546001600160a01b03166105495760405162461bcd60e51b815260040161030190614f0c565b6001600160a01b03808216600081815260036020526040902060020154909116146105865760405162461bcd60e51b815260040161030190614f0c565b60006001600160a01b03821660009081526003602052604090206004015462010000900460ff1660018111156105be576105be6145fa565b146105db5760405162461bcd60e51b815260040161030190614f34565b60006105e73385612d90565b90506105f281612dce565b6106325760405162461bcd60e51b815260206004820152601160248201527012d650c81c995c481b9bdd08199bdd5b99607a1b6044820152606401610301565b61063b84612eda565b6106785760405162461bcd60e51b815260206004820152600e60248201526d155cd95c881b9bdd08199bdd5b9960921b6044820152606401610301565b600060078260405161068a9190614f60565b908152604051908190036020019020600701805461ff0019166101008360028111156106b8576106b86145fa565b0217905550826007826040516106ce9190614f60565b908152602001604051809103902060080190816106eb9190614fcb565b507f524a348eaa0159a5bd9d05667fe8d01e3fef50369ae5f27c2ade107c84bfeaf78160078360405161071e9190614f60565b908152602001604051809103902060040160078460405161073f9190614f60565b908152602001604051809103902060020160405161075f93929190615107565b60405180910390a150505050565b6004546001600160a01b031633146107975760405162461bcd60e51b815260040161030190615140565b6107a081612f83565b6040805160a081018252825181526020808401518183015283830180516001600160a01b0390811684860152600160608501526000608085018190529151168152600690915291909120815181906107f89082614fcb565b506020820151600182019061080d9082614fcb565b506040820151600280830180546001600160a01b039093166001600160a01b031984168117825560608601519391926001600160a81b03199092161790600160a01b908490811115610861576108616145fa565b0217905550608082015160028201805460ff60a81b1916600160a81b83600181111561088f5761088f6145fa565b0217905550505060400151600580546001810182556000919091527f036b6384b5eca791c62761152d0c79bb0604c104a5fb6f4eb0703f3154bb3db00180546001600160a01b0319166001600160a01b03909216919091179055565b60006108f56143e3565b6108fd614415565b338061091b5760405162461bcd60e51b815260040161030190614e62565b6001600160a01b03818116600090815260016020526040902060030154166109555760405162461bcd60e51b815260040161030190614e87565b6001600160a01b0381166000908152600160208190526040909120018054610981919061037090614eae565b1561099e5760405162461bcd60e51b815260040161030190614ee2565b6001600160a01b038086166000908152600360205260409020600201548691166109da5760405162461bcd60e51b815260040161030190614f0c565b6001600160a01b0380821660008181526003602052604090206002015490911614610a175760405162461bcd60e51b815260040161030190614f0c565b60006001600160a01b03821660009081526003602052604090206004015462010000900460ff166001811115610a4f57610a4f6145fa565b14610a6c5760405162461bcd60e51b815260040161030190614f34565b6000610a766143e3565b610a7e614415565b33600090815260096020908152604080832080548251818502810185019093528083529192909190830182828015610adf57602002820191906000526020600020905b81546001600160a01b03168152600190910190602001808311610ac1575b5050505050905060005b8151811015610efd578a6001600160a01b0316828281518110610b0e57610b0e61516f565b60200260200101516001600160a01b031603610eeb5760019450610b318b612b0b565b93506007610b3f8c33612d90565b604051610b4c9190614f60565b908152602001604051809103902060405180610140016040529081600082018054610b7690614eae565b80601f0160208091040260200160405190810160405280929190818152602001828054610ba290614eae565b8015610bef5780601f10610bc457610100808354040283529160200191610bef565b820191906000526020600020905b815481529060010190602001808311610bd257829003601f168201915b505050918352505060018201546001600160a01b03166020820152600282018054604090920191610c1f90614eae565b80601f0160208091040260200160405190810160405280929190818152602001828054610c4b90614eae565b8015610c985780601f10610c6d57610100808354040283529160200191610c98565b820191906000526020600020905b815481529060010190602001808311610c7b57829003601f168201915b505050918352505060038201546001600160a01b03166020820152600482018054604090920191610cc890614eae565b80601f0160208091040260200160405190810160405280929190818152602001828054610cf490614eae565b8015610d415780601f10610d1657610100808354040283529160200191610d41565b820191906000526020600020905b815481529060010190602001808311610d2457829003601f168201915b50505050508152602001600582018054610d5a90614eae565b80601f0160208091040260200160405190810160405280929190818152602001828054610d8690614eae565b8015610dd35780601f10610da857610100808354040283529160200191610dd3565b820191906000526020600020905b815481529060010190602001808311610db657829003601f168201915b505050918352505060068201546020820152600782015460409091019060ff166002811115610e0457610e046145fa565b6002811115610e1557610e156145fa565b81526020016007820160019054906101000a900460ff166002811115610e3d57610e3d6145fa565b6002811115610e4e57610e4e6145fa565b8152602001600882018054610e6290614eae565b80601f0160208091040260200160405190810160405280929190818152602001828054610e8e90614eae565b8015610edb5780601f10610eb057610100808354040283529160200191610edb565b820191906000526020600020905b815481529060010190602001808311610ebe57829003601f168201915b5050505050815250509250610efd565b80610ef58161519b565b915050610ae9565b5092999198509650945050505050565b3380610f2b5760405162461bcd60e51b815260040161030190614e62565b6001600160a01b0381811660009081526001602052604090206003015416610f655760405162461bcd60e51b815260040161030190614e87565b6001600160a01b0381166000908152600160208190526040909120018054610f91919061037090614eae565b15610fae5760405162461bcd60e51b815260040161030190614ee2565b6001600160a01b03808516600090815260036020526040902060020154859116610fea5760405162461bcd60e51b815260040161030190614f0c565b6001600160a01b03808216600081815260036020526040902060020154909116146110275760405162461bcd60e51b815260040161030190614f0c565b60006001600160a01b03821660009081526003602052604090206004015462010000900460ff16600181111561105f5761105f6145fa565b1461107c5760405162461bcd60e51b815260040161030190614f34565b60006110888633612d90565b905061109381612dce565b6110db5760405162461bcd60e51b81526020600482015260196024820152785573657220646f65736e27742068617665204b59432072657160381b6044820152606401610301565b600085156110eb575060016110ef565b5060025b806007836040516111009190614f60565b908152604051908190036020019020600701805461ff00191661010083600281111561112e5761112e6145fa565b0217905550846007836040516111449190614f60565b908152602001604051809103902060080190816111619190614fcb565b507f9a3f3f9de5ac964f84f08c6124f7b844ffd73de3fd4b472eb59f6b68e5729a818233898460405161119794939291906151b4565b60405180910390a150505050505050565b6004546001600160a01b031633146111d25760405162461bcd60e51b815260040161030190615140565b6111dd838383613141565b6001600160a01b03831660009081526006602052604090206111ff8282614fcb565b506001600160a01b03831660009081526006602052604090206001016112258382614fcb565b50505050565b33806112495760405162461bcd60e51b815260040161030190614e62565b6001600160a01b03818116600090815260016020526040902060030154166112835760405162461bcd60e51b815260040161030190614e87565b6001600160a01b03811660009081526001602081905260409091200180546112af919061037090614eae565b156112cc5760405162461bcd60e51b815260040161030190614ee2565b60006112d88433612d90565b90506112e381612dce565b6113265760405162461bcd60e51b815260206004820152601460248201527314195c9b5a5cdcda5bdb881b9bdd08199bdd5b9960621b6044820152606401610301565b60026007826040516113389190614f60565b908152604051908190036020019020600701805461ff001916610100836002811115611366576113666145fa565b02179055508260078260405161137c9190614f60565b908152602001604051809103902060080190816113999190614fcb565b507f9a3f3f9de5ac964f84f08c6124f7b844ffd73de3fd4b472eb59f6b68e5729a81813386600260405161075f94939291906151b4565b6004546000906060906001600160a01b031633146114005760405162461bcd60e51b815260040161030190615140565b61140983613204565b91509150915091565b600061141c614394565b611424614415565b836001600160a01b03811661144b5760405162461bcd60e51b815260040161030190614e62565b6001600160a01b03818116600090815260016020526040902060030154166114855760405162461bcd60e51b815260040161030190614e87565b6001600160a01b03811660009081526001602081905260409091200180546114b1919061037090614eae565b156114ce5760405162461bcd60e51b815260040161030190614ee2565b336000818152600360205260409020600201546001600160a01b03166115065760405162461bcd60e51b815260040161030190614f0c565b6001600160a01b03808216600081815260036020526040902060020154909116146115435760405162461bcd60e51b815260040161030190614f0c565b60006001600160a01b03821660009081526003602052604090206004015462010000900460ff16600181111561157b5761157b6145fa565b146115985760405162461bcd60e51b815260040161030190614f34565b60006115a2614394565b6115aa614415565b33600090815260086020908152604091829020805483518184028101840190945280845261161b938d939092919083018282801561161157602002820191906000526020600020905b81546001600160a01b031681526001909101906020018083116115f3575b50505050506135b2565b909350915082156119da576007611632338b612d90565b60405161163f9190614f60565b90815260200160405180910390206040518061014001604052908160008201805461166990614eae565b80601f016020809104026020016040519081016040528092919081815260200182805461169590614eae565b80156116e25780601f106116b7576101008083540402835291602001916116e2565b820191906000526020600020905b8154815290600101906020018083116116c557829003601f168201915b505050918352505060018201546001600160a01b0316602082015260028201805460409092019161171290614eae565b80601f016020809104026020016040519081016040528092919081815260200182805461173e90614eae565b801561178b5780601f106117605761010080835404028352916020019161178b565b820191906000526020600020905b81548152906001019060200180831161176e57829003601f168201915b505050918352505060038201546001600160a01b031660208201526004820180546040909201916117bb90614eae565b80601f01602080910402602001604051908101604052809291908181526020018280546117e790614eae565b80156118345780601f1061180957610100808354040283529160200191611834565b820191906000526020600020905b81548152906001019060200180831161181757829003601f168201915b5050505050815260200160058201805461184d90614eae565b80601f016020809104026020016040519081016040528092919081815260200182805461187990614eae565b80156118c65780601f1061189b576101008083540402835291602001916118c6565b820191906000526020600020905b8154815290600101906020018083116118a957829003601f168201915b505050918352505060068201546020820152600782015460409091019060ff1660028111156118f7576118f76145fa565b6002811115611908576119086145fa565b81526020016007820160019054906101000a900460ff166002811115611930576119306145fa565b6002811115611941576119416145fa565b815260200160088201805461195590614eae565b80601f016020809104026020016040519081016040528092919081815260200182805461198190614eae565b80156119ce5780601f106119a3576101008083540402835291602001916119ce565b820191906000526020600020905b8154815290600101906020018083116119b157829003601f168201915b50505050508152505090505b91989097509095509350505050565b336000818152600360205260409020600201546001600160a01b0316611a215760405162461bcd60e51b815260040161030190614f0c565b6001600160a01b0380821660008181526003602052604090206002015490911614611a5e5760405162461bcd60e51b815260040161030190614f0c565b60006001600160a01b03821660009081526003602052604090206004015462010000900460ff166001811115611a9657611a966145fa565b14611ab35760405162461bcd60e51b815260040161030190614f34565b6000611ac3338660600151612d90565b9050611ace81612dce565b15611b0f5760405162461bcd60e51b81526020600482015260116024820152702ab9b2b9103430b21035bcb1903932b89760791b6044820152606401610301565b60405180610140016040528082815260200186606001516001600160a01b0316815260200186600001518152602001336001600160a01b03168152602001611b5633612b0b565b51815260a0870151602082015260408101869052606001600081526020016000815260200184815250600782604051611b8f9190614f60565b90815260405190819003602001902081518190611bac9082614fcb565b5060208201516001820180546001600160a01b0319166001600160a01b0390921691909117905560408201516002820190611be79082614fcb565b5060608201516003820180546001600160a01b0319166001600160a01b0390921691909117905560808201516004820190611c229082614fcb565b5060a08201516005820190611c379082614fcb565b5060c0820151600682015560e082015160078201805460ff19166001836002811115611c6557611c656145fa565b0217905550610100828101516007830180549192909161ff00191690836002811115611c9357611c936145fa565b02179055506101208201516008820190611cad9082614fcb565b505033600081815260086020908152604080832060608b0180518254600181810185559387528587200180546001600160a01b039283166001600160a01b031991821617909155915116855260098452828520805492830181558552929093209092018054909116909217909155517f1c9ca7942139211bfb75ec030ee95c38e96f4eb7d755b28d3eede55f8d5eb86d91508290600790611d4f908390614f60565b9081526040519081900360200181208851611d7093926004909201916151f8565b60405180910390a1611d858560600151612eda565b611efc57611d928561384b565b6040518060a00160405280866000015181526020018660200151815260200186606001516001600160a01b03168152602001600280811115611dd657611dd66145fa565b81526020016000905260608601516001600160a01b0316600090815260066020526040902081518190611e099082614fcb565b5060208201516001820190611e1e9082614fcb565b506040820151600280830180546001600160a01b039093166001600160a01b031984168117825560608601519391926001600160a81b03199092161790600160a01b908490811115611e7257611e726145fa565b0217905550608082015160028201805460ff60a81b1916600160a81b836001811115611ea057611ea06145fa565b021790555050506060850151600580546001810182556000919091527f036b6384b5eca791c62761152d0c79bb0604c104a5fb6f4eb0703f3154bb3db00180546001600160a01b0319166001600160a01b039092169190911790555b5050505050565b3380611f215760405162461bcd60e51b815260040161030190614e62565b6001600160a01b0381811660009081526001602052604090206003015416611f5b5760405162461bcd60e51b815260040161030190614e87565b6001600160a01b0381166000908152600160208190526040909120018054611f87919061037090614eae565b15611fa45760405162461bcd60e51b815260040161030190614ee2565b611faf848484613980565b336000908152600660205260409020611fc88582614fcb565b50336000908152600660205260409020600101611efc8482614fcb565b33806120035760405162461bcd60e51b815260040161030190614e62565b6001600160a01b038181166000908152600160205260409020600301541661203d5760405162461bcd60e51b815260040161030190614e87565b6001600160a01b0381166000908152600160208190526040909120018054612069919061037090614eae565b156120865760405162461bcd60e51b815260040161030190614ee2565b61209083836139ff565b336000908152600960209081526040808320805482518185028101850190935280835291929091908301828280156120f157602002820191906000526020600020905b81546001600160a01b031681526001909101906020018083116120d3575b5050505050905060005b8151811015611efc57600061212983838151811061211b5761211b61516f565b602002602001015133612d90565b905061213481612dce565b1561222c578560078260405161214a9190614f60565b908152602001604051809103902060050190816121679190614fcb565b50846007826040516121799190614f60565b90815260200160405180910390206006018190555060006007826040516121a09190614f60565b908152604051908190036020019020600701805460ff191660018360028111156121cc576121cc6145fa565b0217905550604051806040016040528060138152602001725570646174656420616c6c206d7920646f637360681b81525060078260405161220d9190614f60565b9081526020016040518091039020600801908161222a9190614fcb565b505b50806122378161519b565b9150506120fb565b6004546001600160a01b031633146122695760405162461bcd60e51b815260040161030190615140565b6122738282613a71565b6001600160a01b0383166000908152600660205260409020600201805460ff60a81b1916600160a81b8360018111156122ae576122ae6145fa565b02179055505050565b3360008181526003602052604081206002015490916060916001600160a01b03166122f45760405162461bcd60e51b815260040161030190614f0c565b6001600160a01b03808216600081815260036020526040902060020154909116146123315760405162461bcd60e51b815260040161030190614f0c565b60006001600160a01b03821660009081526003602052604090206004015462010000900460ff166001811115612369576123696145fa565b146123865760405162461bcd60e51b815260040161030190614f34565b612391846001613c3c565b9250925050915091565b6123a361448b565b336123e25760405162461bcd60e51b815260206004820152600f60248201526e53656e64657220496420456d70747960881b6044820152606401610301565b336000908152600660205260409020600201546001600160a01b031661241a5760405162461bcd60e51b815260040161030190614e87565b3360009081526006602052604090819020815160a0810190925280548290829061244390614eae565b80601f016020809104026020016040519081016040528092919081815260200182805461246f90614eae565b80156124bc5780601f10612491576101008083540402835291602001916124bc565b820191906000526020600020905b81548152906001019060200180831161249f57829003601f168201915b505050505081526020016001820180546124d590614eae565b80601f016020809104026020016040519081016040528092919081815260200182805461250190614eae565b801561254e5780601f106125235761010080835404028352916020019161254e565b820191906000526020600020905b81548152906001019060200180831161253157829003601f168201915b50505091835250506002828101546001600160a01b0381166020840152604090920191600160a01b900460ff169081111561258b5761258b6145fa565b600281111561259c5761259c6145fa565b81526020016002820160159054906101000a900460ff1660018111156125c4576125c46145fa565b60018111156125d5576125d56145fa565b905250919050565b6000606033806125ff5760405162461bcd60e51b815260040161030190614e62565b6001600160a01b03818116600090815260016020526040902060030154166126395760405162461bcd60e51b815260040161030190614e87565b6001600160a01b0381166000908152600160208190526040909120018054612665919061037090614eae565b156126825760405162461bcd60e51b815260040161030190614ee2565b612391846000613c3c565b336000818152600360205260409020600201546001600160a01b03166126c55760405162461bcd60e51b815260040161030190614f0c565b6001600160a01b03808216600081815260036020526040902060020154909116146127025760405162461bcd60e51b815260040161030190614f0c565b60006001600160a01b03821660009081526003602052604090206004015462010000900460ff16600181111561273a5761273a6145fa565b146127575760405162461bcd60e51b815260040161030190614f34565b60006127633386612d90565b905061276e81612dce565b6127b65760405162461bcd60e51b81526020600482015260196024820152785573657220646f65736e27742068617665204b59432072657160381b6044820152606401610301565b600084156127d8575060016127ca3361420f565b6127d38661427e565b6127dc565b5060025b806007836040516127ed9190614f60565b908152604051908190036020019020600701805460ff19166001836002811115612819576128196145fa565b02179055508360078360405161282f9190614f60565b9081526020016040518091039020600801908161284c9190614fcb565b507f900b83a690e29ff7d6e76e350983afea30403d6c47fe8ce52045fb20074c79a08287338460405161288294939291906151b4565b60405180910390a1505050505050565b6000816040516020016128a59190614f60565b60405160208183030381529060405280519060200120836040516020016128cc9190614f60565b604051602081830303815290604052805190602001201490505b92915050565b6128f4614394565b6001600160a01b03821660009081526001602052604090819020815160e0810190925280548290829061292690614eae565b80601f016020809104026020016040519081016040528092919081815260200182805461295290614eae565b801561299f5780601f106129745761010080835404028352916020019161299f565b820191906000526020600020905b81548152906001019060200180831161298257829003601f168201915b505050505081526020016001820180546129b890614eae565b80601f01602080910402602001604051908101604052809291908181526020018280546129e490614eae565b8015612a315780601f10612a0657610100808354040283529160200191612a31565b820191906000526020600020905b815481529060010190602001808311612a1457829003601f168201915b50505091835250506002820154602082015260038201546001600160a01b0390811660408301526004830154166060820152600582018054608090920191612a7890614eae565b80601f0160208091040260200160405190810160405280929190818152602001828054612aa490614eae565b8015612af15780601f10612ac657610100808354040283529160200191612af1565b820191906000526020600020905b815481529060010190602001808311612ad457829003601f168201915b505050505081526020016006820154815250509050919050565b612b136143e3565b6001600160a01b038216612b595760405162461bcd60e51b815260206004820152600d60248201526c42616e6b20496420456d70747960981b6044820152606401610301565b6001600160a01b03821660009081526003602052604090819020815160c08101909252805482908290612b8b90614eae565b80601f0160208091040260200160405190810160405280929190818152602001828054612bb790614eae565b8015612c045780601f10612bd957610100808354040283529160200191612c04565b820191906000526020600020905b815481529060010190602001808311612be757829003601f168201915b50505050508152602001600182018054612c1d90614eae565b80601f0160208091040260200160405190810160405280929190818152602001828054612c4990614eae565b8015612c965780601f10612c6b57610100808354040283529160200191612c96565b820191906000526020600020905b815481529060010190602001808311612c7957829003601f168201915b505050918352505060028201546001600160a01b03166020820152600382018054604090920191612cc690614eae565b80601f0160208091040260200160405190810160405280929190818152602001828054612cf290614eae565b8015612d3f5780601f10612d1457610100808354040283529160200191612d3f565b820191906000526020600020905b815481529060010190602001808311612d2257829003601f168201915b5050509183525050600482015461ffff8116602083015260409091019062010000900460ff166001811115612d7657612d766145fa565b6001811115612d8757612d876145fa565b90525092915050565b604080516bffffffffffffffffffffffff19606094851b811660208301529290931b9091166034830152805160288184030181526048909201905290565b6000612de98260405180602001604052806000815250612892565b15612e295760405162461bcd60e51b815260206004820152601060248201526f5265717565737420496420656d70747960801b6044820152606401610301565b6128e6600783604051612e3c9190614f60565b9081526040519081900360200190208054612e5690614eae565b80601f0160208091040260200160405190810160405280929190818152602001828054612e8290614eae565b8015612ecf5780601f10612ea457610100808354040283529160200191612ecf565b820191906000526020600020905b815481529060010190602001808311612eb257829003601f168201915b505050505083612892565b60006001600160a01b038216612f205760405162461bcd60e51b815260206004820152600b60248201526a496420697320656d70747960a81b6044820152606401610301565b6001600160a01b038281166000908152600160205260409020600301541615801590612f7557506001600160a01b0382166000908152600160208190526040909120018054612f73919061037090614eae565b155b15612f7e575060015b919050565b6040808201516001600160a01b039081166000908152600360205291909120600201541615612fe25760405162461bcd60e51b815260206004820152600b60248201526a42616e6b2065786973747360a81b6044820152606401610301565b6040808201516001600160a01b031660009081526003602052208151829190819061300d9082614fcb565b50602082015160018201906130229082614fcb565b5060408201516002820180546001600160a01b0319166001600160a01b039092169190911790556060820151600382019061305d9082614fcb565b50608082015160048201805461ffff90921661ffff1983168117825560a08501519262ffffff1916176201000083600181111561309c5761309c6145fa565b0217905550505060408181018051600280546001810182556000919091527f405787fa12a823e0f2b7631cc41b3ba8828b3321ca811111fa75cd3aa3bb5ace0180546001600160a01b0319166001600160a01b039092169190911790555182516020840151606085015193517f17ee33cc6a54067d735ee1c9200fc0dc8354b1d7deae9908692bcd90723044b19461313694939291615231565b60405180910390a150565b6001600160a01b038381166000908152600360205260409020600201541661317b5760405162461bcd60e51b815260040161030190614f0c565b6001600160a01b038316600090815260036020526040902061319d8282614fcb565b506001600160a01b03831660009081526003602052604090206001016131c38382614fcb565b507fc0e694475d9755514453a459373ded91f1517029faca54000da1c3007ec2c4f98382846040516131f793929190615286565b60405180910390a1505050565b600060606000831161324b5760405162461bcd60e51b815260206004820152601060248201526f0504e2073686f756c64206265203e20360841b6044820152606401610301565b6000806000806132b58760028054806020026020016040519081016040528092919081815260200182805480156132ab57602002820191906000526020600020905b81546001600160a01b0316815260019091019060200180831161328d575b50505050506142f4565b93509350935093506000836001600160401b038111156132d7576132d76146bc565b60405190808252806020026020018201604052801561331057816020015b6132fd6143e3565b8152602001906001900390816132f55790505b509050825b828110156135a35760036000600283815481106133345761333461516f565b60009182526020808320909101546001600160a01b031683528201929092526040908101909120815160c0810190925280548290829061337390614eae565b80601f016020809104026020016040519081016040528092919081815260200182805461339f90614eae565b80156133ec5780601f106133c1576101008083540402835291602001916133ec565b820191906000526020600020905b8154815290600101906020018083116133cf57829003601f168201915b5050505050815260200160018201805461340590614eae565b80601f016020809104026020016040519081016040528092919081815260200182805461343190614eae565b801561347e5780601f106134535761010080835404028352916020019161347e565b820191906000526020600020905b81548152906001019060200180831161346157829003601f168201915b505050918352505060028201546001600160a01b031660208201526003820180546040909201916134ae90614eae565b80601f01602080910402602001604051908101604052809291908181526020018280546134da90614eae565b80156135275780601f106134fc57610100808354040283529160200191613527565b820191906000526020600020905b81548152906001019060200180831161350a57829003601f168201915b5050509183525050600482015461ffff8116602083015260409091019062010000900460ff16600181111561355e5761355e6145fa565b600181111561356f5761356f6145fa565b815250508282815181106135855761358561516f565b6020026020010181905250808061359b9061519b565b915050613315565b50939793965092945050505050565b60006135bc614394565b60006135c6614394565b60005b855181101561383f57866001600160a01b03168682815181106135ee576135ee61516f565b60200260200101516001600160a01b03160361382d576001925060016000886001600160a01b03166001600160a01b031681526020019081526020016000206040518060e001604052908160008201805461364890614eae565b80601f016020809104026020016040519081016040528092919081815260200182805461367490614eae565b80156136c15780601f10613696576101008083540402835291602001916136c1565b820191906000526020600020905b8154815290600101906020018083116136a457829003601f168201915b505050505081526020016001820180546136da90614eae565b80601f016020809104026020016040519081016040528092919081815260200182805461370690614eae565b80156137535780601f1061372857610100808354040283529160200191613753565b820191906000526020600020905b81548152906001019060200180831161373657829003601f168201915b50505091835250506002820154602082015260038201546001600160a01b039081166040830152600483015416606082015260058201805460809092019161379a90614eae565b80601f01602080910402602001604051908101604052809291908181526020018280546137c690614eae565b80156138135780601f106137e857610100808354040283529160200191613813565b820191906000526020600020905b8154815290600101906020018083116137f657829003601f168201915b50505050508152602001600682015481525050915061383f565b806138378161519b565b9150506135c9565b50909590945092505050565b60608101516001600160a01b03166000908152600160205260409020815182919081906138789082614fcb565b506020820151600182019061388d9082614fcb565b506040820151600282015560608201516003820180546001600160a01b039283166001600160a01b031991821617909155608084015160048401805491909316911617905560a082015160058201906138e69082614fcb565b5060c09190910151600690910155606081018051600080546001810182559080527f290decd9548b62a8d60345a988386fc84ba6bc95484008f6362f93160ef3e5630180546001600160a01b0319166001600160a01b0390921691909117905551815160208301516040517f77eacb4962819f791ebd2750d7be9519622ddcf4c37fe09c6fd33ace5ce32ccb936131369390929091615286565b3360009081526001602052604090206139998482614fcb565b50336000908152600160208190526040909120016139b78382614fcb565b503360008181526001602052604090819020600201839055517fcfc84fa73e8500b1f994b7616fda16714aa77352defd398c17f8dda41cc92195916131f79186908690615286565b336000908152600160205260409020600501613a1b8382614fcb565b5033600081815260016020526040908190206006810184905590517f844d9124dad5a413c4b99664397291f93f1e89513cd8c3a68674c050283c556192613a6592909186906152bc565b60405180910390a15050565b6001600160a01b03828116600090815260036020526040812060020154909116613aad5760405162461bcd60e51b815260040161030190614f0c565b818015613aef575060016001600160a01b03841660009081526003602052604090206004015462010000900460ff166001811115613aed57613aed6145fa565b145b15613b5c576001600160a01b0383166000908152600360205260409081902060048101805462ff00001916905590517fbbb85d77e85c02977b28ba58175443b7d9c020551c53482ea6df5fe2e1cb884391613b4c918691906152e0565b60405180910390a15060006128e6565b81158015613b9f575060006001600160a01b03841660009081526003602052604090206004015462010000900460ff166001811115613b9d57613b9d6145fa565b145b15613c11576001600160a01b0383166000908152600360205260409081902060048101805462ff000019166201000017905590517fe2914c072e85a93716aea3154e8dc2a6d4f9a823930697852b892fe10bd598f891613c01918691906152e0565b60405180910390a15060016128e6565b506001600160a01b03821660009081526003602052604090206004015462010000900460ff166128e6565b6000606060008411613c865760405162461bcd60e51b8152602060048201526013602482015272504e2073686f756c64206265203e207a65726f60681b6044820152606401610301565b600080600080613d158888613ca957336000908152600960205260409020613cb9565b3360009081526008602052604090205b8054806020026020016040519081016040528092919081815260200182805480156132ab576020028201919060005260206000209081546001600160a01b0316815260019091019060200180831161328d5750505050506142f4565b93509350935093506000836001600160401b03811115613d3757613d376146bc565b604051908082528060200260200182016040528015613d7057816020015b613d5d614415565b815260200190600190039081613d555790505b509050825b828110156141ff5788613de5573360009081526009602052604090208054600791613dc59184908110613daa57613daa61516f565b6000918252602090912001546001600160a01b031633612d90565b604051613dd29190614f60565b9081526020016040518091039020613e45565b3360008181526008602052604090208054600792613e2992909185908110613e0f57613e0f61516f565b6000918252602090912001546001600160a01b0316612d90565b604051613e369190614f60565b90815260200160405180910390205b60405180610140016040529081600082018054613e6190614eae565b80601f0160208091040260200160405190810160405280929190818152602001828054613e8d90614eae565b8015613eda5780601f10613eaf57610100808354040283529160200191613eda565b820191906000526020600020905b815481529060010190602001808311613ebd57829003601f168201915b505050918352505060018201546001600160a01b03166020820152600282018054604090920191613f0a90614eae565b80601f0160208091040260200160405190810160405280929190818152602001828054613f3690614eae565b8015613f835780601f10613f5857610100808354040283529160200191613f83565b820191906000526020600020905b815481529060010190602001808311613f6657829003601f168201915b505050918352505060038201546001600160a01b03166020820152600482018054604090920191613fb390614eae565b80601f0160208091040260200160405190810160405280929190818152602001828054613fdf90614eae565b801561402c5780601f106140015761010080835404028352916020019161402c565b820191906000526020600020905b81548152906001019060200180831161400f57829003601f168201915b5050505050815260200160058201805461404590614eae565b80601f016020809104026020016040519081016040528092919081815260200182805461407190614eae565b80156140be5780601f10614093576101008083540402835291602001916140be565b820191906000526020600020905b8154815290600101906020018083116140a157829003601f168201915b505050918352505060068201546020820152600782015460409091019060ff1660028111156140ef576140ef6145fa565b6002811115614100576141006145fa565b81526020016007820160019054906101000a900460ff166002811115614128576141286145fa565b6002811115614139576141396145fa565b815260200160088201805461414d90614eae565b80601f016020809104026020016040519081016040528092919081815260200182805461417990614eae565b80156141c65780601f1061419b576101008083540402835291602001916141c6565b820191906000526020600020905b8154815290600101906020018083116141a957829003601f168201915b5050505050815250508282815181106141e1576141e161516f565b602002602001018190525080806141f79061519b565b915050613d75565b5093989397509295505050505050565b6001600160a01b0381166142355760405162461bcd60e51b815260040161030190614f0c565b6001600160a01b0381166000908152600360205260408120600401805461ffff16916142608361530c565b91906101000a81548161ffff021916908361ffff1602179055505050565b6001600160a01b0381166142c85760405162461bcd60e51b8152602060048201526011602482015270437573746f6d657220496420456d70747960781b6044820152606401610301565b6001600160a01b0316600090815260016020526040902060040180546001600160a01b03191633179055565b60008060008060006019865161430a9190615343565b90506019865161431a9190615357565b94508015614330578461432c8161519b565b9550505b6019935061433f60018861536b565b61434a90601961537e565b925061435787601961537e565b91508487111561436e57600093506000915061438a565b848714801561437d5750600081115b1561438a57809350855191505b5092959194509250565b6040518060e0016040528060608152602001606081526020016000815260200160006001600160a01b0316815260200160006001600160a01b0316815260200160608152602001600081525090565b6040805160c081018252606080825260208201819052600092820183905280820152608081018290529060a082015290565b6040518061014001604052806060815260200160006001600160a01b031681526020016060815260200160006001600160a01b0316815260200160608152602001606081526020016000815260200160006002811115614477576144776145fa565b815260200160008152602001606081525090565b6040518060a00160405280606081526020016060815260200160006001600160a01b03168152602001600060028111156144c7576144c76145fa565b81526020016000905290565b80356001600160a01b0381168114612f7e57600080fd5b6000602082840312156144fc57600080fd5b614505826144d3565b9392505050565b60005b8381101561452757818101518382015260200161450f565b50506000910152565b6000815180845261454881602086016020860161450c565b601f01601f19169290920160200192915050565b6000815160e0845261457160e0850182614530565b90506020830151848203602086015261458a8282614530565b91505060408301516040850152606083015160018060a01b038082166060870152806080860151166080870152505060a083015184820360a08601526145d08282614530565b91505060c083015160c08501528091505092915050565b602081526000614505602083018461455c565b634e487b7160e01b600052602160045260246000fd5b60028110614620576146206145fa565b9052565b6000815160c0845261463960c0850182614530565b9050602083015184820360208601526146528282614530565b91505060018060a01b0360408401511660408501526060830151848203606086015261467e8282614530565b91505061ffff608084015116608085015260a08301516146a160a0860182614610565b509392505050565b6020815260006145056020830184614624565b634e487b7160e01b600052604160045260246000fd5b60405160c081016001600160401b03811182821017156146f4576146f46146bc565b60405290565b60405160e081016001600160401b03811182821017156146f4576146f46146bc565b600082601f83011261472d57600080fd5b81356001600160401b0380821115614747576147476146bc565b604051601f8301601f19908116603f0116810190828211818310171561476f5761476f6146bc565b8160405283815286602085880101111561478857600080fd5b836020870160208301376000602085830101528094505050505092915050565b600080604083850312156147bb57600080fd5b6147c4836144d3565b915060208301356001600160401b038111156147df57600080fd5b6147eb8582860161471c565b9150509250929050565b803561ffff81168114612f7e57600080fd5b803560028110612f7e57600080fd5b60006020828403121561482857600080fd5b81356001600160401b038082111561483f57600080fd5b9083019060c0828603121561485357600080fd5b61485b6146d2565b82358281111561486a57600080fd5b6148768782860161471c565b82525060208301358281111561488b57600080fd5b6148978782860161471c565b6020830152506148a9604084016144d3565b60408201526060830135828111156148c057600080fd5b6148cc8782860161471c565b6060830152506148de608084016147f5565b60808201526148ef60a08401614807565b60a082015295945050505050565b6003811061490d5761490d6145fa565b50565b614620816148fd565b6000610140825181855261492f82860182614530565b915050602083015161494c60208601826001600160a01b03169052565b50604083015184820360408601526149648282614530565b915050606083015161498160608601826001600160a01b03169052565b50608083015184820360808601526149998282614530565b91505060a083015184820360a08601526149b38282614530565b91505060c083015160c085015260e08301516149d260e0860182614910565b50610100808401516149e682870182614910565b50506101208084015185830382870152614a008382614530565b9695505050505050565b8315158152606060208201526000614a256060830185614624565b8281036040840152614a008185614919565b80358015158114612f7e57600080fd5b600080600060608486031215614a5c57600080fd5b614a65846144d3565b9250614a7360208501614a37565b915060408401356001600160401b03811115614a8e57600080fd5b614a9a8682870161471c565b9150509250925092565b600080600060608486031215614ab957600080fd5b614ac2846144d3565b925060208401356001600160401b0380821115614ade57600080fd5b614aea8783880161471c565b93506040860135915080821115614b0057600080fd5b50614a9a8682870161471c565b600060208284031215614b1f57600080fd5b5035919050565b600060408201848352602060408185015281855180845260608601915060608160051b870101935082870160005b82811015614b8257605f19888703018452614b70868351614624565b95509284019290840190600101614b54565b509398975050505050505050565b8315158152606060208201526000614a25606083018561455c565b600080600060608486031215614bc057600080fd5b83356001600160401b0380821115614bd757600080fd5b9085019060e08288031215614beb57600080fd5b614bf36146fa565b823582811115614c0257600080fd5b614c0e8982860161471c565b825250602083013582811115614c2357600080fd5b614c2f8982860161471c565b60208301525060408301356040820152614c4b606084016144d3565b6060820152614c5c608084016144d3565b608082015260a083013582811115614c7357600080fd5b614c7f8982860161471c565b60a08301525060c083013560c082015280955050602086013593506040860135915080821115614b0057600080fd5b600080600060608486031215614cc357600080fd5b83356001600160401b0380821115614cda57600080fd5b614ce68783880161471c565b94506020860135915080821115614cfc57600080fd5b50614d098682870161471c565b925050604084013590509250925092565b60008060408385031215614d2d57600080fd5b82356001600160401b03811115614d4357600080fd5b614d4f8582860161471c565b95602094909401359450505050565b60008060408385031215614d7157600080fd5b614d7a836144d3565b9150614d8860208401614a37565b90509250929050565b600060408201848352602060408185015281855180845260608601915060608160051b870101935082870160005b82811015614b8257605f19888703018452614ddb868351614919565b95509284019290840190600101614dbf565b602081526000825160a06020840152614e0960c0840182614530565b90506020840151601f19848303016040850152614e268282614530565b91505060018060a01b0360408501511660608401526060840151614e49816148fd565b8060808501525060808401516146a160a0850182614610565b6020808252600b908201526a496420697320456d70747960a81b604082015260600190565b6020808252600d908201526c5573657220496420456d70747960981b604082015260600190565b600181811c90821680614ec257607f821691505b60208210810361042c57634e487b7160e01b600052602260045260246000fd5b60208082526010908201526f5573657220456d61696c20456d70747960801b604082015260600190565b6020808252600e908201526d10985b9ac81b9bdd08199bdd5b9960921b604082015260600190565b60208082526012908201527142616e6b206973206e6f742061637469766560701b604082015260600190565b60008251614f7281846020870161450c565b9190910192915050565b601f821115614fc657600081815260208120601f850160051c81016020861015614fa35750805b601f850160051c820191505b81811015614fc257828155600101614faf565b5050505b505050565b81516001600160401b03811115614fe457614fe46146bc565b614ff881614ff28454614eae565b84614f7c565b602080601f83116001811461502d57600084156150155750858301515b600019600386901b1c1916600185901b178555614fc2565b600085815260208120601f198616915b8281101561505c5788860151825594840194600190910190840161503d565b508582101561507a5787850151600019600388901b60f8161c191681555b5050505050600190811b01905550565b6000815461509781614eae565b8085526020600183811680156150b457600181146150ce576150fc565b60ff1985168884015283151560051b8801830195506150fc565b866000528260002060005b858110156150f45781548a82018601529083019084016150d9565b890184019650505b505050505092915050565b60608152600061511a6060830186614530565b828103602084015261512c818661508a565b90508281036040840152614a00818561508a565b60208082526015908201527413db9b1e4818591b5a5b881a5cc8185b1b1bddd959605a1b604082015260600190565b634e487b7160e01b600052603260045260246000fd5b634e487b7160e01b600052601160045260246000fd5b6000600182016151ad576151ad615185565b5060010190565b6080815260006151c76080830187614530565b6001600160a01b0386811660208501528516604084015290506151e9836148fd565b82606083015295945050505050565b60608152600061520b6060830186614530565b828103602084015261521d818661508a565b90508281036040840152614a008185614530565b6001600160a01b038516815260806020820181905260009061525590830186614530565b82810360408401526152678186614530565b9050828103606084015261527b8185614530565b979650505050505050565b6001600160a01b03841681526060602082018190526000906152aa90830185614530565b8281036040840152614a008185614530565b6001600160a01b03841681526060602082018190526000906152aa9083018561508a565b6001600160a01b03831681526040602082018190526000906153049083018461508a565b949350505050565b600061ffff80831681810361532357615323615185565b6001019392505050565b634e487b7160e01b600052601260045260246000fd5b6000826153525761535261532d565b500690565b6000826153665761536661532d565b500490565b818103818111156128e6576128e6615185565b80820281158282048414176128e6576128e661518556fea2646970667358221220003190a402d98718b164d3abc1cd6495e69c2fc7cb98d0c04687779f905a9e4664736f6c63430008130033",
  "immutableReferences": {},
  "source": "// SPDX-License-Identifier: GPL-3.0\r\npragma experimental ABIEncoderV2;\r\npragma solidity >=0.4.25 <0.9.0;\r\n\r\n/** \r\nAssumptions\r\n* Finanicial Institutions - Bank\r\n* Users - Customer\r\n* Super Admin - Admin\r\n*/\r\n\r\nimport \"./Customers.sol\";\r\nimport \"./Banks.sol\";\r\n\r\n/**\r\n * @title KYC\r\n * @author Suresh Konakanchi\r\n * @dev Library for managing KYC process seemlessly using de-centralised system\r\n */\r\ncontract KYC is Customers, Banks {\r\n    address admin;\r\n    address[] internal userList;\r\n\r\n    mapping(address => Types.User) internal users;\r\n    mapping(string => Types.KycRequest) internal kycRequests;\r\n    mapping(address => address[]) internal bankCustomers; // All customers associated to a Bank\r\n    mapping(address => address[]) internal customerbanks; // All banks associated to a Customer\r\n\r\n    /**\r\n     * @notice Set admin to one who deploy this contract\r\n     * Who will act as the super-admin to add all the financial institutions (banks)\r\n     * @param name_ Name of the admin\r\n     * @param email_ Email of the admin\r\n     */\r\n    constructor(string memory name_, string memory email_) {\r\n        admin = msg.sender;\r\n        Types.User memory usr_ = Types.User({\r\n            name: name_,\r\n            email: email_,\r\n            id_: admin,\r\n            role: Types.Role.Admin,\r\n            status: Types.BankStatus.Active\r\n        });\r\n        users[admin] = usr_;\r\n        userList.push(admin);\r\n    }\r\n\r\n    // Modifiers\r\n\r\n    /**\r\n     * @notice Checks whether the requestor is admin\r\n     */\r\n    modifier isAdmin() {\r\n        require(msg.sender == admin, \"Only admin is allowed\");\r\n        _;\r\n    }\r\n\r\n    // Support functions\r\n\r\n    /**\r\n     * @notice Checks whether the KYC request already exists\r\n     * @param reqId_ Unique Id of the KYC request\r\n     * @return boolean which says request exists or not\r\n     */\r\n    function kycRequestExists(string memory reqId_)\r\n        internal\r\n        view\r\n        returns (bool)\r\n    {\r\n        require(!Helpers.compareStrings(reqId_, \"\"), \"Request Id empty\");\r\n        return Helpers.compareStrings(kycRequests[reqId_].id_, reqId_);\r\n    }\r\n\r\n    /**\r\n     * @notice All kyc requests. Data will be sent in pages to avoid the more gas fee\r\n     * @param pageNumber page number for which data is needed (1..2..3....n)\r\n     * @param isForBank List needed for bank or for customer\r\n     * @return totalPages Total pages available\r\n     * @return KycRequest[] List of KYC requests in the current page\r\n     */\r\n    function getKYCRequests(uint256 pageNumber, bool isForBank)\r\n        internal\r\n        view\r\n        returns (uint256 totalPages, Types.KycRequest[] memory)\r\n    {\r\n        require(pageNumber > 0, \"PN should be > zero\");\r\n        (\r\n            uint256 pages,\r\n            uint256 pageLength_,\r\n            uint256 startIndex_,\r\n            uint256 endIndex_\r\n        ) = Helpers.getIndexes(\r\n                pageNumber,\r\n                isForBank\r\n                    ? bankCustomers[msg.sender]\r\n                    : customerbanks[msg.sender]\r\n            );\r\n        Types.KycRequest[] memory list_ = new Types.KycRequest[](pageLength_);\r\n        for (uint256 i = startIndex_; i < endIndex_; i++)\r\n            list_[i] = isForBank\r\n                ? kycRequests[\r\n                    Helpers.append(msg.sender, bankCustomers[msg.sender][i])\r\n                ]\r\n                : kycRequests[\r\n                    Helpers.append(customerbanks[msg.sender][i], msg.sender)\r\n                ];\r\n        return (pages, list_);\r\n    }\r\n\r\n    // Events\r\n\r\n    event KycRequestAdded(string reqId, string bankName, string customerName);\r\n    event KycReRequested(string reqId, string bankName, string customerName);\r\n    event KycStatusChanged(\r\n        string reqId,\r\n        address customerId,\r\n        address bankId,\r\n        Types.KycStatus status\r\n    );\r\n    event DataHashPermissionChanged(\r\n        string reqId,\r\n        address customerId,\r\n        address bankId,\r\n        Types.DataHashStatus status\r\n    );\r\n\r\n    // Admin Interface\r\n\r\n    /**\r\n     * @dev All the banks list. Data will be sent in pages to avoid the more gas fee\r\n     * @param pageNumber page number for which data is needed (1..2..3....n)\r\n     * @return totalPages Total pages available\r\n     * @return Bank[] List of banks in the current page\r\n     */\r\n    function getAllBanks(uint256 pageNumber)\r\n        public\r\n        view\r\n        isAdmin\r\n        returns (uint256 totalPages, Types.Bank[] memory)\r\n    {\r\n        return getallbanks(pageNumber);\r\n    }\r\n\r\n    /**\r\n     * @dev To add new bank account\r\n     * @param bank_ Bank details, which need to be added to the system\r\n     */\r\n    function addBank(Types.Bank memory bank_) public isAdmin {\r\n        addbank(bank_);\r\n        // Adding to common list\r\n        users[bank_.id_] = Types.User({\r\n            name: bank_.name,\r\n            email: bank_.email,\r\n            id_: bank_.id_,\r\n            role: Types.Role.Bank,\r\n            status: Types.BankStatus.Active\r\n        });\r\n        userList.push(bank_.id_);\r\n    }\r\n\r\n    /**\r\n     * @dev To add new bank account\r\n     * @param id_ Bank's metamask address\r\n     * @param email_ Bank's email address that need to be updated\r\n     * @param name_ Bank's name which need to be updated\r\n     */\r\n    function updateBankDetails(\r\n        address id_,\r\n        string memory email_,\r\n        string memory name_\r\n    ) public isAdmin {\r\n        updatebank(id_, email_, name_);\r\n        // Updating in common list\r\n        users[id_].name = name_;\r\n        users[id_].email = email_;\r\n    }\r\n\r\n    /**\r\n     * @dev To add new bank account\r\n     * @param id_ Bank's metamask address\r\n     * @param makeActive_ If true, bank will be marked as active, else, it will be marked as deactivateds\r\n     */\r\n    function activateDeactivateBank(address id_, bool makeActive_)\r\n        public\r\n        isAdmin\r\n    {\r\n        // Updating in common list\r\n        users[id_].status = activatedeactivatebank(id_, makeActive_);\r\n    }\r\n\r\n    // Bank Interface\r\n\r\n    /**\r\n     * @dev List of customers, who are linked to the current bank. Data will be sent in pages to avoid the more gas fee\r\n     * @param pageNumber page number for which data is needed (1..2..3....n)\r\n     * @return totalPages Total pages available\r\n     * @return KycRequest[] List of KYC requests in the current page\r\n     */\r\n    function getCustomersOfBank(uint256 pageNumber)\r\n        public\r\n        view\r\n        isValidBank(msg.sender)\r\n        returns (uint256 totalPages, Types.KycRequest[] memory)\r\n    {\r\n        return getKYCRequests(pageNumber, true);\r\n    }\r\n\r\n    /**\r\n     * @notice Records new KYC request for a customer\r\n     * @param customer_ Customer details for whom the request is to be raised\r\n     * @param currentTime_ Current Date & Time in unix epoch timestamp\r\n     * @param notes_ Any additional notes that need to be added\r\n     */\r\n    function addKycRequest(\r\n        Types.Customer memory customer_,\r\n        uint256 currentTime_,\r\n        string memory notes_\r\n    ) public isValidBank(msg.sender) {\r\n        string memory reqId_ = Helpers.append(msg.sender, customer_.id_);\r\n        require(!kycRequestExists(reqId_), \"User had kyc req.\");\r\n\r\n        kycRequests[reqId_] = Types.KycRequest({\r\n            id_: reqId_,\r\n            userId_: customer_.id_,\r\n            customerName: customer_.name,\r\n            bankId_: msg.sender,\r\n            bankName: getsinglebank(msg.sender).name,\r\n            dataHash: customer_.dataHash,\r\n            updatedOn: currentTime_,\r\n            status: Types.KycStatus.Pending,\r\n            dataRequest: Types.DataHashStatus.Pending,\r\n            additionalNotes: notes_\r\n        });\r\n        bankCustomers[msg.sender].push(customer_.id_);\r\n        customerbanks[customer_.id_].push(msg.sender);\r\n        emit KycRequestAdded(\r\n            reqId_,\r\n            kycRequests[reqId_].bankName,\r\n            customer_.name\r\n        );\r\n\r\n        if (!customerExists(customer_.id_)) {\r\n            addcustomer(customer_);\r\n            // Adding to common list\r\n            users[customer_.id_] = Types.User({\r\n                name: customer_.name,\r\n                email: customer_.email,\r\n                id_: customer_.id_,\r\n                role: Types.Role.Customer,\r\n                status: Types.BankStatus.Active\r\n            });\r\n            userList.push(customer_.id_);\r\n        }\r\n    }\r\n\r\n    /**\r\n     * @notice Updates existing KYC request for a customer (It's a re-request)\r\n     * @param id_ Customer ID for whom the request has to be re-raised\r\n     * @param notes_ Any additional notes that need to be added\r\n     */\r\n    function reRequestForKycRequest(address id_, string memory notes_)\r\n        public\r\n        isValidBank(msg.sender)\r\n    {\r\n        string memory reqId_ = Helpers.append(msg.sender, id_);\r\n        require(kycRequestExists(reqId_), \"KYC req not found\");\r\n        require(customerExists(id_), \"User not found\");\r\n\r\n        // kycRequests[reqId_].status = Types.KycStatus.Pending;\r\n        kycRequests[reqId_].dataRequest = Types.DataHashStatus.Pending;\r\n        kycRequests[reqId_].additionalNotes = notes_;\r\n\r\n        emit KycReRequested(\r\n            reqId_,\r\n            kycRequests[reqId_].bankName,\r\n            kycRequests[reqId_].customerName\r\n        );\r\n    }\r\n\r\n    /**\r\n     * @dev To mark the KYC verification as failure\r\n     * @param userId_ Id of the user\r\n     * @param userId_ KYC Verified\r\n     * @param note_ Any info that need to be shared\r\n     */\r\n    function updateKycVerification(\r\n        address userId_,\r\n        bool verified_,\r\n        string memory note_\r\n    ) public isValidBank(msg.sender) {\r\n        string memory reqId_ = Helpers.append(msg.sender, userId_);\r\n        require(kycRequestExists(reqId_), \"User doesn't have KYC req\");\r\n\r\n        Types.KycStatus status_ = Types.KycStatus.Pending;\r\n        if (verified_) {\r\n            status_ = Types.KycStatus.KYCVerified;\r\n            updatekyccount(msg.sender);\r\n            updatekycdoneby(userId_);\r\n        } else {\r\n            status_ = Types.KycStatus.KYCFailed;\r\n        }\r\n\r\n        kycRequests[reqId_].status = status_;\r\n        kycRequests[reqId_].additionalNotes = note_;\r\n        emit KycStatusChanged(reqId_, userId_, msg.sender, status_);\r\n    }\r\n\r\n    /**\r\n     * @dev Search for customer details in the list that the bank is directly linked to\r\n     * @param id_ Customer's metamask Id\r\n     * @return boolean to say if customer exists or not\r\n     * @return Customer object to get the complete details of the customer\r\n     * @return KycRequest object to get the details about the request & it's status\r\n     * Costly operation if we had more customers linked to this single bank\r\n     */\r\n    function searchCustomers(address id_)\r\n        public\r\n        view\r\n        isValidCustomer(id_)\r\n        isValidBank(msg.sender)\r\n        returns (\r\n            bool,\r\n            Types.Customer memory,\r\n            Types.KycRequest memory\r\n        )\r\n    {\r\n        bool found_;\r\n        Types.Customer memory customer_;\r\n        Types.KycRequest memory request_;\r\n        (found_, customer_) = searchcustomers(id_, bankCustomers[msg.sender]);\r\n        if (found_) request_ = kycRequests[Helpers.append(msg.sender, id_)];\r\n        return (found_, customer_, request_);\r\n    }\r\n\r\n    // Customer Interface\r\n\r\n    /**\r\n     * @notice List of all banks. Data will be sent in pages to avoid the more gas fee\r\n     * @dev This is customer facing RPC end point\r\n     * @param pageNumber page number for which data is needed (1..2..3....n)\r\n     * @return totalPages Total pages available\r\n     * @return KycRequest[] List of KYC requests in the current page\r\n     */\r\n    function getBankRequests(uint256 pageNumber)\r\n        public\r\n        view\r\n        isValidCustomer(msg.sender)\r\n        returns (uint256 totalPages, Types.KycRequest[] memory)\r\n    {\r\n        return getKYCRequests(pageNumber, false);\r\n    }\r\n\r\n    /**\r\n     * @dev Updates the KYC request (Either Approves or Rejects)\r\n     * @param bankId_ Id of the bank\r\n     * @param approve_ Approve the data hash or reject\r\n     * @param note_ Any info that need to be shared\r\n     */\r\n    function actionOnKycRequest(\r\n        address bankId_,\r\n        bool approve_,\r\n        string memory note_\r\n    ) public isValidCustomer(msg.sender) isValidBank(bankId_) {\r\n        string memory reqId_ = Helpers.append(bankId_, msg.sender);\r\n        require(kycRequestExists(reqId_), \"User doesn't have KYC req\");\r\n\r\n        Types.DataHashStatus status_ = Types.DataHashStatus.Pending;\r\n        if (approve_) {\r\n            status_ = Types.DataHashStatus.Approved;\r\n        } else {\r\n            status_ = Types.DataHashStatus.Rejected;\r\n        }\r\n        kycRequests[reqId_].dataRequest = status_;\r\n        kycRequests[reqId_].additionalNotes = note_;\r\n\r\n        emit DataHashPermissionChanged(reqId_, msg.sender, bankId_, status_);\r\n    }\r\n\r\n    /**\r\n     * @dev Updates the user profile\r\n     * @param name_ Customer name\r\n     * @param email_ Email that need to be updated\r\n     * @param mobile_ Mobile number that need to be updated\r\n     */\r\n    function updateProfile(\r\n        string memory name_,\r\n        string memory email_,\r\n        uint256 mobile_\r\n    ) public isValidCustomer(msg.sender) {\r\n        updateprofile(name_, email_, mobile_);\r\n        // Updating in common list\r\n        users[msg.sender].name = name_;\r\n        users[msg.sender].email = email_;\r\n    }\r\n\r\n    /**\r\n     * @dev Updates the Datahash of the documents\r\n     * @param hash_ Data hash value that need to be updated\r\n     * @param currentTime_ Current Date Time in unix epoch timestamp\r\n     */\r\n    function updateDatahash(string memory hash_, uint256 currentTime_)\r\n        public\r\n        isValidCustomer(msg.sender)\r\n    {\r\n        updatedatahash(hash_, currentTime_);\r\n\r\n        // Reset KYC verification status for all banks\r\n        address[] memory banksList_ = customerbanks[msg.sender];\r\n        for (uint256 i = 0; i < banksList_.length; i++) {\r\n            string memory reqId_ = Helpers.append(banksList_[i], msg.sender);\r\n            if (kycRequestExists(reqId_)) {\r\n                kycRequests[reqId_].dataHash = hash_;\r\n                kycRequests[reqId_].updatedOn = currentTime_;\r\n                kycRequests[reqId_].status = Types.KycStatus.Pending;\r\n                kycRequests[reqId_].additionalNotes = \"Updated all my docs\";\r\n            }\r\n        }\r\n    }\r\n\r\n    /**\r\n     * @dev Removes the permission to a specific bank, so that they can't access the documents again\r\n     * @param bankId_ Id of the bank to whom permission has to be revoked\r\n     * @param notes_ Any additional notes that need to included\r\n     */\r\n    function removerDatahashPermission(address bankId_, string memory notes_)\r\n        public\r\n        isValidCustomer(msg.sender)\r\n    {\r\n        string memory reqId_ = Helpers.append(bankId_, msg.sender);\r\n        require(kycRequestExists(reqId_), \"Permission not found\");\r\n        kycRequests[reqId_].dataRequest = Types.DataHashStatus.Rejected;\r\n        kycRequests[reqId_].additionalNotes = notes_;\r\n        emit DataHashPermissionChanged(\r\n            reqId_,\r\n            msg.sender,\r\n            bankId_,\r\n            Types.DataHashStatus.Rejected\r\n        );\r\n    }\r\n\r\n    /**\r\n     * @dev Search for bank details in the list that the customer is directly linked to\r\n     * @param bankId_ Bank's metamask Id\r\n     * @return boolean to say if bank exists or not\r\n     * @return Bank object to get the complete details of the bank\r\n     * @return KycRequest object to get the details about the request & it's status\r\n     * Costly operation if we had more banks linked to this single customer\r\n     */\r\n    function searchBanks(address bankId_)\r\n        public\r\n        view\r\n        isValidCustomer(msg.sender)\r\n        isValidBank(bankId_)\r\n        returns (\r\n            bool,\r\n            Types.Bank memory,\r\n            Types.KycRequest memory\r\n        )\r\n    {\r\n        bool found_;\r\n        Types.Bank memory bank_;\r\n        Types.KycRequest memory request_;\r\n        address[] memory banks_ = customerbanks[msg.sender];\r\n\r\n        for (uint256 i = 0; i < banks_.length; i++) {\r\n            if (banks_[i] == bankId_) {\r\n                found_ = true;\r\n                bank_ = getsinglebank(bankId_);\r\n                request_ = kycRequests[Helpers.append(bankId_, msg.sender)];\r\n                break;\r\n            }\r\n        }\r\n        return (found_, bank_, request_);\r\n    }\r\n\r\n    // Common Interface\r\n\r\n    /**\r\n     * @dev Updates the KYC request (Either Approves or Rejects)\r\n     * @return User object which contains the role & other basic info\r\n     */\r\n    function whoAmI() public view returns (Types.User memory) {\r\n        require(msg.sender != address(0), \"Sender Id Empty\");\r\n        require(users[msg.sender].id_ != address(0), \"User Id Empty\");\r\n        return users[msg.sender];\r\n    }\r\n\r\n    /**\r\n     * @dev To get details of the customer\r\n     * @param id_ Customer's metamask address\r\n     * @return Customer object which will have complete details of the customer\r\n     */\r\n    function getCustomerDetails(address id_)\r\n        public\r\n        view\r\n        isValidCustomer(id_)\r\n        returns (Types.Customer memory)\r\n    {\r\n        return getcustomerdetails(id_);\r\n    }\r\n\r\n    /**\r\n     * @dev To get details of the bank\r\n     * @param id_ Bank's metamask address\r\n     * @return Bank object which will have complete details of the bank\r\n     */\r\n    function getBankDetails(address id_)\r\n        public\r\n        view\r\n        isValidBank(id_)\r\n        returns (Types.Bank memory)\r\n    {\r\n        return getsinglebank(id_);\r\n    }\r\n}\r\n",
  "sourcePath": "C:\\Users\\alokk\\Desktop\\learning blockchain\\kyc2\\blockchain\\contracts\\KYC.sol",
  "compiler": {
    "name": "solc",
    "version": "0.8.19+commit.7dd6d404.Emscripten.clang"
  },
  "schemaVersion": "3.4.13",
  "updatedAt": "2023-04-06T16:12:42.049Z",
  "networkType": "ethereum",
  "devdoc": {
    "author": "Suresh Konakanchi",
    "details": "Library for managing KYC process seemlessly using de-centralised system",
    "kind": "dev",
    "methods": {
      "actionOnKycRequest(address,bool,string)": {
        "details": "Updates the KYC request (Either Approves or Rejects)",
        "params": {
          "approve_": "Approve the data hash or reject",
          "bankId_": "Id of the bank",
          "note_": "Any info that need to be shared"
        }
      },
      "activateDeactivateBank(address,bool)": {
        "details": "To add new bank account",
        "params": {
          "id_": "Bank's metamask address",
          "makeActive_": "If true, bank will be marked as active, else, it will be marked as deactivateds"
        }
      },
      "addBank((string,string,address,string,uint16,uint8))": {
        "details": "To add new bank account",
        "params": {
          "bank_": "Bank details, which need to be added to the system"
        }
      },
      "addKycRequest((string,string,uint256,address,address,string,uint256),uint256,string)": {
        "params": {
          "currentTime_": "Current Date & Time in unix epoch timestamp",
          "customer_": "Customer details for whom the request is to be raised",
          "notes_": "Any additional notes that need to be added"
        }
      },
      "constructor": {
        "params": {
          "email_": "Email of the admin",
          "name_": "Name of the admin"
        }
      },
      "getAllBanks(uint256)": {
        "details": "All the banks list. Data will be sent in pages to avoid the more gas fee",
        "params": {
          "pageNumber": "page number for which data is needed (1..2..3....n)"
        },
        "returns": {
          "_1": "Bank[] List of banks in the current page",
          "totalPages": "Total pages available"
        }
      },
      "getBankDetails(address)": {
        "details": "To get details of the bank",
        "params": {
          "id_": "Bank's metamask address"
        },
        "returns": {
          "_0": "Bank object which will have complete details of the bank"
        }
      },
      "getBankRequests(uint256)": {
        "details": "This is customer facing RPC end point",
        "params": {
          "pageNumber": "page number for which data is needed (1..2..3....n)"
        },
        "returns": {
          "_1": "KycRequest[] List of KYC requests in the current page",
          "totalPages": "Total pages available"
        }
      },
      "getCustomerDetails(address)": {
        "details": "To get details of the customer",
        "params": {
          "id_": "Customer's metamask address"
        },
        "returns": {
          "_0": "Customer object which will have complete details of the customer"
        }
      },
      "getCustomersOfBank(uint256)": {
        "details": "List of customers, who are linked to the current bank. Data will be sent in pages to avoid the more gas fee",
        "params": {
          "pageNumber": "page number for which data is needed (1..2..3....n)"
        },
        "returns": {
          "_1": "KycRequest[] List of KYC requests in the current page",
          "totalPages": "Total pages available"
        }
      },
      "reRequestForKycRequest(address,string)": {
        "params": {
          "id_": "Customer ID for whom the request has to be re-raised",
          "notes_": "Any additional notes that need to be added"
        }
      },
      "removerDatahashPermission(address,string)": {
        "details": "Removes the permission to a specific bank, so that they can't access the documents again",
        "params": {
          "bankId_": "Id of the bank to whom permission has to be revoked",
          "notes_": "Any additional notes that need to included"
        }
      },
      "searchBanks(address)": {
        "details": "Search for bank details in the list that the customer is directly linked to",
        "params": {
          "bankId_": "Bank's metamask Id"
        },
        "returns": {
          "_0": "boolean to say if bank exists or not",
          "_1": "Bank object to get the complete details of the bank",
          "_2": "KycRequest object to get the details about the request & it's status Costly operation if we had more banks linked to this single customer"
        }
      },
      "searchCustomers(address)": {
        "details": "Search for customer details in the list that the bank is directly linked to",
        "params": {
          "id_": "Customer's metamask Id"
        },
        "returns": {
          "_0": "boolean to say if customer exists or not",
          "_1": "Customer object to get the complete details of the customer",
          "_2": "KycRequest object to get the details about the request & it's status Costly operation if we had more customers linked to this single bank"
        }
      },
      "updateBankDetails(address,string,string)": {
        "details": "To add new bank account",
        "params": {
          "email_": "Bank's email address that need to be updated",
          "id_": "Bank's metamask address",
          "name_": "Bank's name which need to be updated"
        }
      },
      "updateDatahash(string,uint256)": {
        "details": "Updates the Datahash of the documents",
        "params": {
          "currentTime_": "Current Date Time in unix epoch timestamp",
          "hash_": "Data hash value that need to be updated"
        }
      },
      "updateKycVerification(address,bool,string)": {
        "details": "To mark the KYC verification as failure",
        "params": {
          "note_": "Any info that need to be shared",
          "userId_": "KYC Verified"
        }
      },
      "updateProfile(string,string,uint256)": {
        "details": "Updates the user profile",
        "params": {
          "email_": "Email that need to be updated",
          "mobile_": "Mobile number that need to be updated",
          "name_": "Customer name"
        }
      },
      "whoAmI()": {
        "details": "Updates the KYC request (Either Approves or Rejects)",
        "returns": {
          "_0": "User object which contains the role & other basic info"
        }
      }
    },
    "title": "KYC",
    "version": 1
  },
  "userdoc": {
    "kind": "user",
    "methods": {
      "addKycRequest((string,string,uint256,address,address,string,uint256),uint256,string)": {
        "notice": "Records new KYC request for a customer"
      },
      "constructor": {
        "notice": "Set admin to one who deploy this contract Who will act as the super-admin to add all the financial institutions (banks)"
      },
      "getBankRequests(uint256)": {
        "notice": "List of all banks. Data will be sent in pages to avoid the more gas fee"
      },
      "reRequestForKycRequest(address,string)": {
        "notice": "Updates existing KYC request for a customer (It's a re-request)"
      }
    },
    "version": 1
  }
}