{
  "contractName": "Mapping",
  "abi": [
    {
      "inputs": [
        {
          "internalType": "address",
          "name": "",
          "type": "address"
        }
      ],
      "name": "verification",
      "outputs": [
        {
          "internalType": "bool",
          "name": "",
          "type": "bool"
        }
      ],
      "stateMutability": "view",
      "type": "function",
      "constant": true
    },
    {
      "inputs": [
        {
          "internalType": "address",
          "name": "_address",
          "type": "address"
        }
      ],
      "name": "addAddress",
      "outputs": [],
      "stateMutability": "nonpayable",
      "type": "function"
    },
    {
      "inputs": [
        {
          "internalType": "address",
          "name": "_address",
          "type": "address"
        }
      ],
      "name": "checkAddress",
      "outputs": [
        {
          "internalType": "bool",
          "name": "",
          "type": "bool"
        }
      ],
      "stateMutability": "view",
      "type": "function",
      "constant": true
    }
  ],
  "bytecode": "0x608060405234801561001057600080fd5b50610131806100206000396000f3fe6080604052348015600f57600080fd5b5060043610603c5760003560e01c80630ddcfe8e14604157806338eada1c14607e57806392b4e1321460af575b600080fd5b606a604c36600460cf565b6001600160a01b031660009081526020819052604090205460ff1690565b604051901515815260200160405180910390f35b60ad608936600460cf565b6001600160a01b03166000908152602081905260409020805460ff19166001179055565b005b606a60ba36600460cf565b60006020819052908152604090205460ff1681565b60006020828403121560df578081fd5b81356001600160a01b038116811460f4578182fd5b939250505056fea264697066735822122029cdb19008dfae866e34c5156cb63c34a360c3912af8a9becfee8d1a6197adb764736f6c63430008040033",
  "immutableReferences": {},
  "source": "// SPDX-License-Identifier: GPL-3.0\r\npragma solidity >=0.4.25 <0.9.0;\r\n\r\ncontract Mapping{\r\n    \r\n     mapping(address => bool) public verification;\r\n    function addAddress(address _address) public{\r\n        verification[_address] = true;\r\n    }\r\n\r\n    function checkAddress(address _address) public view returns(bool){\r\n        return verification[_address];\r\n    }\r\n\r\n}",
  "sourcePath": "C:\\Users\\alokk\\Desktop\\Learning\\learning blockchain\\kyc2\\blockchain\\contracts\\Mapping.sol",
  "compiler": {
    "name": "solc",
    "version": "0.8.4+commit.c7e474f2.Emscripten.clang"
  },
  "schemaVersion": "3.4.13",
  "updatedAt": "2023-05-07T03:18:24.055Z",
  "networkType": "ethereum",
  "devdoc": {
    "kind": "dev",
    "methods": {},
    "version": 1
  },
  "userdoc": {
    "kind": "user",
    "methods": {},
    "version": 1
  }
}