{
  "contractName": "MyNFT",
  "abi": [
    {
      "inputs": [],
      "stateMutability": "nonpayable",
      "type": "constructor"
    },
    {
      "anonymous": false,
      "inputs": [
        {
          "indexed": true,
          "internalType": "address",
          "name": "owner",
          "type": "address"
        },
        {
          "indexed": true,
          "internalType": "address",
          "name": "approved",
          "type": "address"
        },
        {
          "indexed": true,
          "internalType": "uint256",
          "name": "tokenId",
          "type": "uint256"
        }
      ],
      "name": "Approval",
      "type": "event"
    },
    {
      "anonymous": false,
      "inputs": [
        {
          "indexed": true,
          "internalType": "address",
          "name": "owner",
          "type": "address"
        },
        {
          "indexed": true,
          "internalType": "address",
          "name": "operator",
          "type": "address"
        },
        {
          "indexed": false,
          "internalType": "bool",
          "name": "approved",
          "type": "bool"
        }
      ],
      "name": "ApprovalForAll",
      "type": "event"
    },
    {
      "anonymous": false,
      "inputs": [
        {
          "indexed": true,
          "internalType": "address",
          "name": "previousOwner",
          "type": "address"
        },
        {
          "indexed": true,
          "internalType": "address",
          "name": "newOwner",
          "type": "address"
        }
      ],
      "name": "OwnershipTransferred",
      "type": "event"
    },
    {
      "anonymous": false,
      "inputs": [
        {
          "indexed": true,
          "internalType": "address",
          "name": "from",
          "type": "address"
        },
        {
          "indexed": true,
          "internalType": "address",
          "name": "to",
          "type": "address"
        },
        {
          "indexed": true,
          "internalType": "uint256",
          "name": "tokenId",
          "type": "uint256"
        }
      ],
      "name": "Transfer",
      "type": "event"
    },
    {
      "inputs": [
        {
          "internalType": "address",
          "name": "to",
          "type": "address"
        },
        {
          "internalType": "uint256",
          "name": "tokenId",
          "type": "uint256"
        }
      ],
      "name": "approve",
      "outputs": [],
      "stateMutability": "nonpayable",
      "type": "function"
    },
    {
      "inputs": [
        {
          "internalType": "address",
          "name": "owner",
          "type": "address"
        }
      ],
      "name": "balanceOf",
      "outputs": [
        {
          "internalType": "uint256",
          "name": "",
          "type": "uint256"
        }
      ],
      "stateMutability": "view",
      "type": "function",
      "constant": true
    },
    {
      "inputs": [
        {
          "internalType": "uint256",
          "name": "tokenId",
          "type": "uint256"
        }
      ],
      "name": "getApproved",
      "outputs": [
        {
          "internalType": "address",
          "name": "",
          "type": "address"
        }
      ],
      "stateMutability": "view",
      "type": "function",
      "constant": true
    },
    {
      "inputs": [
        {
          "internalType": "address",
          "name": "owner",
          "type": "address"
        },
        {
          "internalType": "address",
          "name": "operator",
          "type": "address"
        }
      ],
      "name": "isApprovedForAll",
      "outputs": [
        {
          "internalType": "bool",
          "name": "",
          "type": "bool"
        }
      ],
      "stateMutability": "view",
      "type": "function",
      "constant": true
    },
    {
      "inputs": [],
      "name": "name",
      "outputs": [
        {
          "internalType": "string",
          "name": "",
          "type": "string"
        }
      ],
      "stateMutability": "view",
      "type": "function",
      "constant": true
    },
    {
      "inputs": [],
      "name": "owner",
      "outputs": [
        {
          "internalType": "address",
          "name": "",
          "type": "address"
        }
      ],
      "stateMutability": "view",
      "type": "function",
      "constant": true
    },
    {
      "inputs": [
        {
          "internalType": "uint256",
          "name": "tokenId",
          "type": "uint256"
        }
      ],
      "name": "ownerOf",
      "outputs": [
        {
          "internalType": "address",
          "name": "",
          "type": "address"
        }
      ],
      "stateMutability": "view",
      "type": "function",
      "constant": true
    },
    {
      "inputs": [],
      "name": "renounceOwnership",
      "outputs": [],
      "stateMutability": "nonpayable",
      "type": "function"
    },
    {
      "inputs": [
        {
          "internalType": "address",
          "name": "from",
          "type": "address"
        },
        {
          "internalType": "address",
          "name": "to",
          "type": "address"
        },
        {
          "internalType": "uint256",
          "name": "tokenId",
          "type": "uint256"
        }
      ],
      "name": "safeTransferFrom",
      "outputs": [],
      "stateMutability": "nonpayable",
      "type": "function"
    },
    {
      "inputs": [
        {
          "internalType": "address",
          "name": "from",
          "type": "address"
        },
        {
          "internalType": "address",
          "name": "to",
          "type": "address"
        },
        {
          "internalType": "uint256",
          "name": "tokenId",
          "type": "uint256"
        },
        {
          "internalType": "bytes",
          "name": "data",
          "type": "bytes"
        }
      ],
      "name": "safeTransferFrom",
      "outputs": [],
      "stateMutability": "nonpayable",
      "type": "function"
    },
    {
      "inputs": [
        {
          "internalType": "address",
          "name": "operator",
          "type": "address"
        },
        {
          "internalType": "bool",
          "name": "approved",
          "type": "bool"
        }
      ],
      "name": "setApprovalForAll",
      "outputs": [],
      "stateMutability": "nonpayable",
      "type": "function"
    },
    {
      "inputs": [
        {
          "internalType": "bytes4",
          "name": "interfaceId",
          "type": "bytes4"
        }
      ],
      "name": "supportsInterface",
      "outputs": [
        {
          "internalType": "bool",
          "name": "",
          "type": "bool"
        }
      ],
      "stateMutability": "view",
      "type": "function",
      "constant": true
    },
    {
      "inputs": [],
      "name": "symbol",
      "outputs": [
        {
          "internalType": "string",
          "name": "",
          "type": "string"
        }
      ],
      "stateMutability": "view",
      "type": "function",
      "constant": true
    },
    {
      "inputs": [
        {
          "internalType": "uint256",
          "name": "tokenId",
          "type": "uint256"
        }
      ],
      "name": "tokenURI",
      "outputs": [
        {
          "internalType": "string",
          "name": "",
          "type": "string"
        }
      ],
      "stateMutability": "view",
      "type": "function",
      "constant": true
    },
    {
      "inputs": [
        {
          "internalType": "address",
          "name": "from",
          "type": "address"
        },
        {
          "internalType": "address",
          "name": "to",
          "type": "address"
        },
        {
          "internalType": "uint256",
          "name": "tokenId",
          "type": "uint256"
        }
      ],
      "name": "transferFrom",
      "outputs": [],
      "stateMutability": "nonpayable",
      "type": "function"
    },
    {
      "inputs": [
        {
          "internalType": "address",
          "name": "newOwner",
          "type": "address"
        }
      ],
      "name": "transferOwnership",
      "outputs": [],
      "stateMutability": "nonpayable",
      "type": "function"
    },
    {
      "inputs": [
        {
          "internalType": "address",
          "name": "recipient",
          "type": "address"
        },
        {
          "internalType": "string",
          "name": "tokenURI",
          "type": "string"
        }
      ],
      "name": "mintNFT",
      "outputs": [
        {
          "internalType": "uint256",
          "name": "",
          "type": "uint256"
        }
      ],
      "stateMutability": "nonpayable",
      "type": "function"
    }
  ],
  "bytecode": "0x60806040523480156200001157600080fd5b50604080518082018252600781526612d650c813919560ca1b6020808301918252835180850190945260038452624b594360e81b9084015281519192916200005c91600091620000eb565b50805162000072906001906020840190620000eb565b5050506200008f620000896200009560201b60201c565b62000099565b620001ce565b3390565b600780546001600160a01b038381166001600160a01b0319831681179093556040519116919082907f8be0079c531659141344cd1fd0a4f28419497f9722a3daafe3b4186f6b6457e090600090a35050565b828054620000f99062000191565b90600052602060002090601f0160209004810192826200011d576000855562000168565b82601f106200013857805160ff191683800117855562000168565b8280016001018555821562000168579182015b82811115620001685782518255916020019190600101906200014b565b50620001769291506200017a565b5090565b5b808211156200017657600081556001016200017b565b600181811c90821680620001a657607f821691505b60208210811415620001c857634e487b7160e01b600052602260045260246000fd5b50919050565b61179680620001de6000396000f3fe608060405234801561001057600080fd5b506004361061010b5760003560e01c8063715018a6116100a2578063b88d4fde11610071578063b88d4fde1461021b578063c87b56dd1461022e578063e985e9c514610241578063eacabe141461027d578063f2fde38b1461029057600080fd5b8063715018a6146101e75780638da5cb5b146101ef57806395d89b4114610200578063a22cb4651461020857600080fd5b806323b872dd116100de57806323b872dd1461018d57806342842e0e146101a05780636352211e146101b357806370a08231146101c657600080fd5b806301ffc9a71461011057806306fdde0314610138578063081812fc1461014d578063095ea7b314610178575b600080fd5b61012361011e3660046114ee565b6102a3565b60405190151581526020015b60405180910390f35b6101406102f5565b60405161012f91906115d6565b61016061015b366004611526565b610387565b6040516001600160a01b03909116815260200161012f565b61018b6101863660046114c5565b6103ae565b005b61018b61019b366004611378565b6104c9565b61018b6101ae366004611378565b6104fa565b6101606101c1366004611526565b610515565b6101d96101d436600461132c565b610575565b60405190815260200161012f565b61018b6105fb565b6007546001600160a01b0316610160565b61014061060f565b61018b61021636600461142c565b61061e565b61018b6102293660046113b3565b61062d565b61014061023c366004611526565b610665565b61012361024f366004611346565b6001600160a01b03918216600090815260056020908152604080832093909416825291909152205460ff1690565b6101d961028b366004611466565b610776565b61018b61029e36600461132c565b6107b6565b60006001600160e01b031982166380ac58cd60e01b14806102d457506001600160e01b03198216635b5e139f60e01b145b806102ef57506301ffc9a760e01b6001600160e01b03198316145b92915050565b606060008054610304906116f9565b80601f0160208091040260200160405190810160405280929190818152602001828054610330906116f9565b801561037d5780601f106103525761010080835404028352916020019161037d565b820191906000526020600020905b81548152906001019060200180831161036057829003601f168201915b5050505050905090565b60006103928261082f565b506000908152600460205260409020546001600160a01b031690565b60006103b982610515565b9050806001600160a01b0316836001600160a01b0316141561042c5760405162461bcd60e51b815260206004820152602160248201527f4552433732313a20617070726f76616c20746f2063757272656e74206f776e656044820152603960f91b60648201526084015b60405180910390fd5b336001600160a01b03821614806104485750610448813361024f565b6104ba5760405162461bcd60e51b815260206004820152603d60248201527f4552433732313a20617070726f76652063616c6c6572206973206e6f7420746f60448201527f6b656e206f776e6572206f7220617070726f76656420666f7220616c6c0000006064820152608401610423565b6104c4838361088e565b505050565b6104d333826108fc565b6104ef5760405162461bcd60e51b8152600401610423906115e9565b6104c483838361097a565b6104c48383836040518060200160405280600081525061062d565b6000818152600260205260408120546001600160a01b0316806102ef5760405162461bcd60e51b8152602060048201526018602482015277115490cdcc8c4e881a5b9d985b1a59081d1bdad95b88125160421b6044820152606401610423565b60006001600160a01b0382166105df5760405162461bcd60e51b815260206004820152602960248201527f4552433732313a2061646472657373207a65726f206973206e6f7420612076616044820152683634b21037bbb732b960b91b6064820152608401610423565b506001600160a01b031660009081526003602052604090205490565b610603610ade565b61060d6000610b38565b565b606060018054610304906116f9565b610629338383610b8a565b5050565b61063733836108fc565b6106535760405162461bcd60e51b8152600401610423906115e9565b61065f84848484610c59565b50505050565b60606106708261082f565b60008281526006602052604081208054610689906116f9565b80601f01602080910402602001604051908101604052809291908181526020018280546106b5906116f9565b80156107025780601f106106d757610100808354040283529160200191610702565b820191906000526020600020905b8154815290600101906020018083116106e557829003601f168201915b50505050509050600061072060408051602081019091526000815290565b9050805160001415610733575092915050565b81511561076557808260405160200161074d92919061156a565b60405160208183030381529060405292505050919050565b61076e84610c8c565b949350505050565b6000610780610ade565b61078e600880546001019055565b600061079960085490565b90506107a58482610cff565b6107af8184610d19565b9392505050565b6107be610ade565b6001600160a01b0381166108235760405162461bcd60e51b815260206004820152602660248201527f4f776e61626c653a206e6577206f776e657220697320746865207a65726f206160448201526564647265737360d01b6064820152608401610423565b61082c81610b38565b50565b6000818152600260205260409020546001600160a01b031661082c5760405162461bcd60e51b8152602060048201526018602482015277115490cdcc8c4e881a5b9d985b1a59081d1bdad95b88125160421b6044820152606401610423565b600081815260046020526040902080546001600160a01b0319166001600160a01b03841690811790915581906108c382610515565b6001600160a01b03167f8c5be1e5ebec7d5bd14f71427d1e84f3dd0314c0f7b2291e5b200ac8c7c3b92560405160405180910390a45050565b60008061090883610515565b9050806001600160a01b0316846001600160a01b0316148061094f57506001600160a01b0380821660009081526005602090815260408083209388168352929052205460ff165b8061076e5750836001600160a01b031661096884610387565b6001600160a01b031614949350505050565b826001600160a01b031661098d82610515565b6001600160a01b0316146109b35760405162461bcd60e51b815260040161042390611688565b6001600160a01b038216610a155760405162461bcd60e51b8152602060048201526024808201527f4552433732313a207472616e7366657220746f20746865207a65726f206164646044820152637265737360e01b6064820152608401610423565b826001600160a01b0316610a2882610515565b6001600160a01b031614610a4e5760405162461bcd60e51b815260040161042390611688565b600081815260046020908152604080832080546001600160a01b03199081169091556001600160a01b0387811680865260038552838620805460001901905590871680865283862080546001019055868652600290945282852080549092168417909155905184937fddf252ad1be2c89b69c2b068fc378daa952ba7f163c4a11628f55a4df523b3ef91a4505050565b6007546001600160a01b0316331461060d5760405162461bcd60e51b815260206004820181905260248201527f4f776e61626c653a2063616c6c6572206973206e6f7420746865206f776e65726044820152606401610423565b600780546001600160a01b038381166001600160a01b0319831681179093556040519116919082907f8be0079c531659141344cd1fd0a4f28419497f9722a3daafe3b4186f6b6457e090600090a35050565b816001600160a01b0316836001600160a01b03161415610bec5760405162461bcd60e51b815260206004820152601960248201527f4552433732313a20617070726f766520746f2063616c6c6572000000000000006044820152606401610423565b6001600160a01b03838116600081815260056020908152604080832094871680845294825291829020805460ff191686151590811790915591519182527f17307eab39ab6107e8899845ad3d59bd9653f200f220920489ca2b5937696c31910160405180910390a3505050565b610c6484848461097a565b610c7084848484610db3565b61065f5760405162461bcd60e51b815260040161042390611636565b6060610c978261082f565b6000610cae60408051602081019091526000815290565b90506000815111610cce57604051806020016040528060008152506107af565b80610cd884610ec0565b604051602001610ce992919061156a565b6040516020818303038152906040529392505050565b610629828260405180602001604052806000815250610f6b565b6000828152600260205260409020546001600160a01b0316610d945760405162461bcd60e51b815260206004820152602e60248201527f45524337323155524953746f726167653a2055524920736574206f66206e6f6e60448201526d32bc34b9ba32b73a103a37b5b2b760911b6064820152608401610423565b600082815260066020908152604090912082516104c492840190611201565b60006001600160a01b0384163b15610eb557604051630a85bd0160e11b81526001600160a01b0385169063150b7a0290610df7903390899088908890600401611599565b602060405180830381600087803b158015610e1157600080fd5b505af1925050508015610e41575060408051601f3d908101601f19168201909252610e3e9181019061150a565b60015b610e9b573d808015610e6f576040519150601f19603f3d011682016040523d82523d6000602084013e610e74565b606091505b508051610e935760405162461bcd60e51b815260040161042390611636565b805181602001fd5b6001600160e01b031916630a85bd0160e11b14905061076e565b506001949350505050565b60606000610ecd83610f9e565b600101905060008167ffffffffffffffff811115610efb57634e487b7160e01b600052604160045260246000fd5b6040519080825280601f01601f191660200182016040528015610f25576020820181803683370190505b5090508181016020015b600019016f181899199a1a9b1b9c1cb0b131b232b360811b600a86061a8153600a8504945084610f5e57610f63565b610f2f565b509392505050565b610f758383611076565b610f826000848484610db3565b6104c45760405162461bcd60e51b815260040161042390611636565b60008072184f03e93ff9f4daa797ed6e38ed64bf6a1f0160401b8310610fdd5772184f03e93ff9f4daa797ed6e38ed64bf6a1f0160401b830492506040015b6d04ee2d6d415b85acef81000000008310611009576d04ee2d6d415b85acef8100000000830492506020015b662386f26fc10000831061102757662386f26fc10000830492506010015b6305f5e100831061103f576305f5e100830492506008015b612710831061105357612710830492506004015b60648310611065576064830492506002015b600a83106102ef5760010192915050565b6001600160a01b0382166110cc5760405162461bcd60e51b815260206004820181905260248201527f4552433732313a206d696e7420746f20746865207a65726f20616464726573736044820152606401610423565b6000818152600260205260409020546001600160a01b0316156111315760405162461bcd60e51b815260206004820152601c60248201527f4552433732313a20746f6b656e20616c7265616479206d696e746564000000006044820152606401610423565b6000818152600260205260409020546001600160a01b0316156111965760405162461bcd60e51b815260206004820152601c60248201527f4552433732313a20746f6b656e20616c7265616479206d696e746564000000006044820152606401610423565b6001600160a01b038216600081815260036020908152604080832080546001019055848352600290915280822080546001600160a01b0319168417905551839291907fddf252ad1be2c89b69c2b068fc378daa952ba7f163c4a11628f55a4df523b3ef908290a45050565b82805461120d906116f9565b90600052602060002090601f01602090048101928261122f5760008555611275565b82601f1061124857805160ff1916838001178555611275565b82800160010185558215611275579182015b8281111561127557825182559160200191906001019061125a565b50611281929150611285565b5090565b5b808211156112815760008155600101611286565b600067ffffffffffffffff808411156112b5576112b5611734565b604051601f8501601f19908116603f011681019082821181831017156112dd576112dd611734565b816040528093508581528686860111156112f657600080fd5b858560208301376000602087830101525050509392505050565b80356001600160a01b038116811461132757600080fd5b919050565b60006020828403121561133d578081fd5b6107af82611310565b60008060408385031215611358578081fd5b61136183611310565b915061136f60208401611310565b90509250929050565b60008060006060848603121561138c578081fd5b61139584611310565b92506113a360208501611310565b9150604084013590509250925092565b600080600080608085870312156113c8578081fd5b6113d185611310565b93506113df60208601611310565b925060408501359150606085013567ffffffffffffffff811115611401578182fd5b8501601f81018713611411578182fd5b6114208782356020840161129a565b91505092959194509250565b6000806040838503121561143e578182fd5b61144783611310565b91506020830135801515811461145b578182fd5b809150509250929050565b60008060408385031215611478578182fd5b61148183611310565b9150602083013567ffffffffffffffff81111561149c578182fd5b8301601f810185136114ac578182fd5b6114bb8582356020840161129a565b9150509250929050565b600080604083850312156114d7578182fd5b6114e083611310565b946020939093013593505050565b6000602082840312156114ff578081fd5b81356107af8161174a565b60006020828403121561151b578081fd5b81516107af8161174a565b600060208284031215611537578081fd5b5035919050565b600081518084526115568160208601602086016116cd565b601f01601f19169290920160200192915050565b6000835161157c8184602088016116cd565b8351908301906115908183602088016116cd565b01949350505050565b6001600160a01b03858116825284166020820152604081018390526080606082018190526000906115cc9083018461153e565b9695505050505050565b6020815260006107af602083018461153e565b6020808252602d908201527f4552433732313a2063616c6c6572206973206e6f7420746f6b656e206f776e6560408201526c1c881bdc88185c1c1c9bdd9959609a1b606082015260800190565b60208082526032908201527f4552433732313a207472616e7366657220746f206e6f6e20455243373231526560408201527131b2b4bb32b91034b6b83632b6b2b73a32b960711b606082015260800190565b60208082526025908201527f4552433732313a207472616e736665722066726f6d20696e636f72726563742060408201526437bbb732b960d91b606082015260800190565b60005b838110156116e85781810151838201526020016116d0565b8381111561065f5750506000910152565b600181811c9082168061170d57607f821691505b6020821081141561172e57634e487b7160e01b600052602260045260246000fd5b50919050565b634e487b7160e01b600052604160045260246000fd5b6001600160e01b03198116811461082c57600080fdfea2646970667358221220a42a88d482283cdfc85e229608d6185467ed1dea416b2e0a7881c86c8892cce664736f6c63430008040033",
  "immutableReferences": {},
  "source": "// SPDX-License-Identifier: MIT\r\npragma solidity >=0.5.0 <0.9.0;\r\n\r\nimport \"../node_modules/@openzeppelin/contracts/token/ERC721/ERC721.sol\";\r\nimport \"../node_modules/@openzeppelin/contracts/utils/Counters.sol\";\r\nimport \"../node_modules/@openzeppelin/contracts/access/Ownable.sol\";\r\nimport \"../node_modules/@openzeppelin/contracts/token/ERC721/extensions/ERC721URIStorage.sol\";\r\n\r\ncontract MyNFT is ERC721URIStorage, Ownable {\r\n    using Counters for Counters.Counter;\r\n\r\n    Counters.Counter private _tokenIds;\r\n\r\n    constructor() ERC721(\"KYC NFT\", \"KYC\") {}\r\n\r\n    function mintNFT(address recipient, string memory tokenURI)\r\n        public\r\n        onlyOwner\r\n        returns (uint256)\r\n    {\r\n        _tokenIds.increment();\r\n\r\n        uint256 newItemId = _tokenIds.current();\r\n        _safeMint(recipient, newItemId);\r\n        _setTokenURI(newItemId, tokenURI);\r\n        return newItemId;\r\n    }\r\n}  ",
  "sourcePath": "C:\\Users\\alokk\\Desktop\\Learning\\learning blockchain\\kyc2\\blockchain\\contracts\\MyNFT.sol",
  "compiler": {
    "name": "solc",
    "version": "0.8.4+commit.c7e474f2.Emscripten.clang"
  },
  "schemaVersion": "3.4.13",
  "updatedAt": "2023-05-07T06:07:22.244Z",
  "networkType": "ethereum",
  "devdoc": {
    "kind": "dev",
    "methods": {
      "approve(address,uint256)": {
        "details": "See {IERC721-approve}."
      },
      "balanceOf(address)": {
        "details": "See {IERC721-balanceOf}."
      },
      "getApproved(uint256)": {
        "details": "See {IERC721-getApproved}."
      },
      "isApprovedForAll(address,address)": {
        "details": "See {IERC721-isApprovedForAll}."
      },
      "name()": {
        "details": "See {IERC721Metadata-name}."
      },
      "owner()": {
        "details": "Returns the address of the current owner."
      },
      "ownerOf(uint256)": {
        "details": "See {IERC721-ownerOf}."
      },
      "renounceOwnership()": {
        "details": "Leaves the contract without owner. It will not be possible to call `onlyOwner` functions anymore. Can only be called by the current owner. NOTE: Renouncing ownership will leave the contract without an owner, thereby removing any functionality that is only available to the owner."
      },
      "safeTransferFrom(address,address,uint256)": {
        "details": "See {IERC721-safeTransferFrom}."
      },
      "safeTransferFrom(address,address,uint256,bytes)": {
        "details": "See {IERC721-safeTransferFrom}."
      },
      "setApprovalForAll(address,bool)": {
        "details": "See {IERC721-setApprovalForAll}."
      },
      "supportsInterface(bytes4)": {
        "details": "See {IERC165-supportsInterface}."
      },
      "symbol()": {
        "details": "See {IERC721Metadata-symbol}."
      },
      "tokenURI(uint256)": {
        "details": "See {IERC721Metadata-tokenURI}."
      },
      "transferFrom(address,address,uint256)": {
        "details": "See {IERC721-transferFrom}."
      },
      "transferOwnership(address)": {
        "details": "Transfers ownership of the contract to a new account (`newOwner`). Can only be called by the current owner."
      }
    },
    "version": 1
  },
  "userdoc": {
    "kind": "user",
    "methods": {},
    "version": 1
  }
}